{
	"data": {
		"bytecode": {
			"linkReferences": {},
			"object": "60806040526009805460ff191690553480156200001b57600080fd5b506040516200325a3803806200325a8339810160408190526200003e9162000219565b600080546001600160a01b038084166001600160a01b031992831617909255600280549091163317908190556200007691166200007d565b50620002fb565b60006200008962000189565b9050600181151514620000b95760405162461bcd60e51b8152600401620000b0906200027f565b60405180910390fd5b6002546001600160a01b03163314620000e65760405162461bcd60e51b8152600401620000b090620002c4565b600054604051633e95586f60e11b81526001600160a01b0390911690637d2ab0de90620001189085906004016200026b565b600060405180830381600087803b1580156200013357600080fd5b505af115801562000148573d6000803e3d6000fd5b505050507f2ef49f308764ebe6c1149ac59bf417810aa1d676e95227cc4638855c9eaf6c88826040516200017d91906200026b565b60405180910390a15050565b60008060009054906101000a90046001600160a01b03166001600160a01b031663cd905dff6040518163ffffffff1660e01b815260040160206040518083038186803b158015620001d957600080fd5b505afa158015620001ee573d6000803e3d6000fd5b505050506040513d601f19601f8201168201806040525081019062000214919062000249565b905090565b6000602082840312156200022b578081fd5b81516001600160a01b038116811462000242578182fd5b9392505050565b6000602082840312156200025b578081fd5b8151801515811462000242578182fd5b6001600160a01b0391909116815260200190565b60208082526025908201527f436f6e74726163742069732063757272656e746c79206e6f74206f70657261746040820152641a5bdb985b60da1b606082015260800190565b6020808252601c908201527f43616c6c6572206973206e6f7420636f6e7472616374206f776e657200000000604082015260600190565b612f4f806200030b6000396000f3fe6080604052600436106101445760003560e01c806370ebc195116100b6578063cd905dff1161006f578063cd905dff14610355578063d5e962641461036a578063e79e964914610372578063e7bdde3b14610392578063ed5509a6146103b2578063f83f11c0146103d25761014b565b806370ebc195146102ad57806394c15694146102b5578063a7b28278146102d5578063ae1309ec146102f5578063bdfd987714610315578063c10f2700146103355761014b565b806339cfc9951161010857806339cfc995146101ff578063423f6cef1461022c5780634a946e251461023f5780634c67cc3b146102525780635f1cc0e61461027657806364b4f751146102985761014b565b80630cc309d014610150578063110466ed146101725780631c3c14001461019257806324c534cc146101c8578063339d2590146101f75761014b565b3661014b57005b600080fd5b34801561015c57600080fd5b5061017061016b36600461235a565b6103f2565b005b34801561017e57600080fd5b5061017061018d3660046124df565b6105fb565b34801561019e57600080fd5b506101b26101ad3660046121c2565b6106c2565b6040516101bf91906128b8565b60405180910390f35b3480156101d457600080fd5b506101e86101e3366004612517565b61074a565b6040516101bf9392919061272c565b610170610817565b34801561020b57600080fd5b5061021f61021a366004612547565b610897565b6040516101bf91906128c3565b61017061023a3660046121de565b6109c6565b61017061024d366004612209565b610a72565b34801561025e57600080fd5b50610267610bbe565b6040516101bf939291906127dc565b34801561028257600080fd5b5061028b610f33565b6040516101bf919061288d565b3480156102a457600080fd5b5061021f610fca565b610170610fd6565b3480156102c157600080fd5b506101706102d03660046121c2565b61109b565b3480156102e157600080fd5b506101706102f03660046121c2565b6111dd565b34801561030157600080fd5b506101b26103103660046121c2565b6112c0565b34801561032157600080fd5b506101706103303660046121c2565b6112f1565b34801561034157600080fd5b5061017061035036600461258a565b611665565b34801561036157600080fd5b506101b2611837565b6101706118c3565b34801561037e57600080fd5b506101b261038d3660046121c2565b611a6a565b34801561039e57600080fd5b506101706103ad3660046122f2565b611a88565b3480156103be57600080fd5b506101b26103cd3660046121c2565b611b00565b3480156103de57600080fd5b506101706103ed366004612209565b611b31565b60005b60065460ff8216101561045557600680548061042157634e487b7160e01b600052603160045260246000fd5b600082815260209020810160001990810180546001600160a01b03191690550190558061044d81612e60565b9150506103f5565b5060005b60075460ff821610156104b557600780548061048557634e487b7160e01b600052603160045260246000fd5b6001900381819060005260206000200160006104a19190611f1d565b9055806104ad81612e60565b915050610459565b5060005b60085460ff8216101561050e5760088054806104e557634e487b7160e01b600052603160045260246000fd5b60019003818190600052602060002001600090559055808061050690612e60565b9150506104b9565b5060005b84518160ff1610156105f457610551858260ff168151811061054457634e487b7160e01b600052603260045260246000fd5b6020026020010151611bfc565b610584848260ff168151811061057757634e487b7160e01b600052603260045260246000fd5b6020026020010151611c86565b6105e2838260ff16815181106105aa57634e487b7160e01b600052603260045260246000fd5b6020026020010151838360ff16815181106105d557634e487b7160e01b600052603260045260246000fd5b6020026020010151611d17565b806105ec81612e60565b915050610512565b5050505050565b6000610605611837565b90506001811515146106325760405162461bcd60e51b815260040161062990612b66565b60405180910390fd5b6002546001600160a01b0316331461065c5760405162461bcd60e51b815260040161062990612bab565b60005460405163110466ed60e01b81526001600160a01b039091169063110466ed9061068c9085906004016128b8565b600060405180830381600087803b1580156106a657600080fd5b505af11580156106ba573d6000803e3d6000fd5b505050505050565b6000805460405162070f0560ea1b81526001600160a01b0390911690631c3c1400906106f29085906004016126db565b60206040518083038186803b15801561070a57600080fd5b505afa15801561071e573d6000803e3d6000fd5b505050506040513d601f19601f8201168201806040525081019061074291906124fb565b90505b919050565b60006060600080610759611837565b905060018115151461077d5760405162461bcd60e51b815260040161062990612b66565b600080546040516309314d3360e21b8152829182916001600160a01b03909116906324c534cc906107b2908b906004016128c3565b60006040518083038186803b1580156107ca57600080fd5b505afa1580156107de573d6000803e3d6000fd5b505050506040513d6000823e601f3d908101601f191682016040526108069190810190612260565b919a90995090975095505050505050565b670de0b6b3a764000034101561083f5760405162461bcd60e51b815260040161062990612be2565b600061084a33611de0565b60408051808201825260018082526020808301858152336000908152600a9092529390208251815460ff191690151517815592519394509092610891918301906003611f5c565b50505050565b6000806108a2611837565b90506001811515146108c65760405162461bcd60e51b815260040161062990612b66565b3360006108d2826112c0565b90506001811515146108f65760405162461bcd60e51b815260040161062990612cde565b60008054604051630f302fa760e21b81526001600160a01b0390911690633cc0be9c9061092b9033908b908b9060040161272c565b602060405180830381600087803b15801561094557600080fd5b505af1158015610959573d6000803e3d6000fd5b505050506040513d601f19601f8201168201806040525081019061097d919061252f565b90507f240f434fa78afde6c6a83ff9b95d095deb69bf0267f51faa56a4fc6664e728543388886040516109b29392919061272c565b60405180910390a193505b50505092915050565b60006109d0611837565b90506001811515146109f45760405162461bcd60e51b815260040161062990612b66565b600080846001600160a01b031684604051610a0e90612689565b60006040518083038185875af1925050503d8060008114610a4b576040519150601f19603f3d011682016040523d82523d6000602084013e610a50565b606091505b5091509150816105f45760405162461bcd60e51b815260040161062990612978565b6000610a7c611837565b9050600181151514610aa05760405162461bcd60e51b815260040161062990612b66565b336000610aac826106c2565b9050600181151514610ad05760405162461bcd60e51b8152600401610629906129f4565b670de0b6b3a7640000341115610af85760405162461bcd60e51b8152600401610629906129a6565b6000546001600160a01b0316610b0e81346109c6565b600054604051631623b94f60e31b81526001600160a01b039091169063b11dca7890610b469033908a9034908d908c90600401612760565b600060405180830381600087803b158015610b6057600080fd5b505af1158015610b74573d6000803e3d6000fd5b505050507f6041c986c57e8b39c3b9ff45d06d1825c694d01ffac018c2fe2b2ba8e28e32b133888834604051610bad94939291906126ef565b60405180910390a150505050505050565b60608060606000610bcd611837565b9050600181151514610bf15760405162461bcd60e51b815260040161062990612b66565b60008060009054906101000a90046001600160a01b03166001600160a01b031663341a6ce66040518163ffffffff1660e01b815260040160006040518083038186803b158015610c4057600080fd5b505afa158015610c54573d6000803e3d6000fd5b505050506040513d6000823e601f3d908101601f19168201604052610c7c919081019061244f565b905060005b81518160ff161015610d9e576000806000610cc5858560ff1681518110610cb857634e487b7160e01b600052603260045260246000fd5b602002602001015161074a565b6006805460018082019092557ff652222313e28459528d920b65115c16c04f3efc82aaedc97be59f3f377c0d3f0180546001600160a01b0319166001600160a01b03861617905560078054918201815560005282519396509194509250610d55917fa66cc928b5edb82af9bd49922954155ab7b0942694bea4ce44661d9a8736c688909101906020850190611fef565b50600880546001810182556000919091527ff3f7a9fe364faab93b216da50a3214154f22a0a2b415b23a84c8169e8b636ee3015550819050610d9681612e60565b915050610c81565b5060066007600882805480602002602001604051908101604052809291908181526020018280548015610dfa57602002820191906000526020600020905b81546001600160a01b03168152600190910190602001808311610ddc575b5050505050925081805480602002602001604051908101604052809291908181526020016000905b82821015610ece578382906000526020600020018054610e4190612e25565b80601f0160208091040260200160405190810160405280929190818152602001828054610e6d90612e25565b8015610eba5780601f10610e8f57610100808354040283529160200191610eba565b820191906000526020600020905b815481529060010190602001808311610e9d57829003601f168201915b505050505081526020019060010190610e22565b50505050915080805480602002602001604051908101604052809291908181526020018280548015610f1f57602002820191906000526020600020905b815481526020019060010190808311610f0b575b505050505090509450945094505050909192565b610f3b612063565b336000908152600a602052604090205460ff16610f6a5760405162461bcd60e51b815260040161062990612af8565b336000908152600a602052604080822081516060810192839052926001909101916003918390855b825461010083900a900460ff16815260206001928301818104948501949093039092029101808411610f925790505050505050905090565b670de0b6b3a764000081565b6000610fe0611837565b90506001811515146110045760405162461bcd60e51b815260040161062990612b66565b336000611010826106c2565b90506001811515146110345760405162461bcd60e51b8152600401610629906129f4565b600054604051631239c27160e01b81526001600160a01b0390911690631239c271906110649033906004016126db565b600060405180830381600087803b15801561107e57600080fd5b505af1158015611092573d6000803e3d6000fd5b50505050505050565b60006110a5611837565b90506001811515146110c95760405162461bcd60e51b815260040161062990612b66565b8160006110d5826112c0565b905080156110f55760405162461bcd60e51b815260040161062990612b2f565b836000611101826106c2565b905080156111215760405162461bcd60e51b815260040161062990612c5c565b600061112c876106c2565b9050801561114c5760405162461bcd60e51b81526004016106299061291b565b60005460405163253055a560e21b81526001600160a01b03909116906394c156949061117c908a906004016126db565b600060405180830381600087803b15801561119657600080fd5b505af11580156111aa573d6000803e3d6000fd5b505050507fa83117346cca49bd2c97acd5b237a40a23cea37cdfced29b1a65142bfe2c5baf87604051610bad91906126db565b60006111e7611837565b905060018115151461120b5760405162461bcd60e51b815260040161062990612b66565b6002546001600160a01b031633146112355760405162461bcd60e51b815260040161062990612bab565b600054604051633e95586f60e11b81526001600160a01b0390911690637d2ab0de906112659085906004016126db565b600060405180830381600087803b15801561127f57600080fd5b505af1158015611293573d6000803e3d6000fd5b50505050600080516020612efa833981519152826040516112b491906126db565b60405180910390a15050565b60008054604051632b84c27b60e21b81526001600160a01b039091169063ae1309ec906106f29085906004016126db565b60006112fb611837565b905060018115151461131f5760405162461bcd60e51b815260040161062990612b66565b81600061132b826112c0565b9050801561134b5760405162461bcd60e51b815260040161062990612b2f565b836000611357826106c2565b905080156113775760405162461bcd60e51b815260040161062990612c5c565b60008060009054906101000a90046001600160a01b03166001600160a01b0316637ab21cdc6040518163ffffffff1660e01b815260040160206040518083038186803b1580156113c657600080fd5b505afa1580156113da573d6000803e3d6000fd5b505050506040513d601f19601f820116820180604052508101906113fe919061252f565b905060048110156114ba5761141233611b00565b61142e5760405162461bcd60e51b815260040161062990612a2b565b60005460405163bdfd987760e01b81526001600160a01b039091169063bdfd98779061145e908a906004016126db565b600060405180830381600087803b15801561147857600080fd5b505af115801561148c573d6000803e3d6000fd5b50505050600080516020612efa833981519152876040516114ad91906126db565b60405180910390a1611092565b3360009081526004602090815260408083206001600160a01b038b16845290915290205460ff16611636573360009081526004602090815260408083206001600160a01b038b1684528252808320805460ff191660019081179091556005909252822080549192909161152e908490612db6565b9091555061153f9050600282612dce565b6001600160a01b0388166000908152600560205260409020541061160a5760005460405163bdfd987760e01b81526001600160a01b039091169063bdfd98779061158d908a906004016126db565b600060405180830381600087803b1580156115a757600080fd5b505af11580156115bb573d6000803e3d6000fd5b5050506001600160a01b03881660009081526001602052604090819020805460ff1916905551600080516020612efa83398151915291506115fd9089906126db565b60405180910390a1611631565b6001600160a01b0387166000908152600160208190526040909120805460ff191690911790555b611092565b6001600160a01b0387166000908152600160208190526040909120805460ff1916909117905550505050505050565b336000908152600a602052604090206001015460ff868116911614806116a75750336000908152600a602052604090206001015460ff86811661010090920416145b806116cf5750336000908152600a602052604090206001015460ff8681166201000090920416145b6116eb5760405162461bcd60e51b815260040161062990612c19565b600085858585604051602001611704949392919061268c565b60408051808303601f1901815291815281516020928301206000818152600c909352912054909150600160a01b900460ff166117525760405162461bcd60e51b8152600401610629906128cc565b6000818152600b6020908152604080832060ff8616845282528083208054600181018255908452919092200180546001600160a01b03191633179055517f43c853095c2752648493c88b4baac4d580d2594ffb00c6f1d4242d844514f783906117c290879087908790879061279e565b60405180910390a16000818152600b6020908152604080832060ff861684529091529020546003116106ba577fe23f5229de535c091e3b7bec2665f5d698192d3b31393066e8987b7a05076b6c85858585604051611823949392919061279e565b60405180910390a16106ba85858585611a88565b60008060009054906101000a90046001600160a01b03166001600160a01b031663cd905dff6040518163ffffffff1660e01b815260040160206040518083038186803b15801561188657600080fd5b505afa15801561189a573d6000803e3d6000fd5b505050506040513d601f19601f820116820180604052508101906118be91906124fb565b905090565b60006118cd611837565b90506001811515146118f15760405162461bcd60e51b815260040161062990612b66565b3360006118fd826112c0565b90506001811515146119215760405162461bcd60e51b815260040161062990612cde565b61192a33611b00565b156119475760405162461bcd60e51b815260040161062990612ac1565b678ac7230489e8000034101561196f5760405162461bcd60e51b815260040161062990612c93565b600080546001600160a01b03169061198f678ac7230489e8000034612de2565b905080156119b8576119a982678ac7230489e800006109c6565b6119b333826109c6565b6119ca565b6119ca82678ac7230489e800006109c6565b600054604051637976d42360e11b81526001600160a01b039091169063f2eda846906119fa9033906004016126db565b600060405180830381600087803b158015611a1457600080fd5b505af1158015611a28573d6000803e3d6000fd5b505050507f206cc1c860f752d981f7de81003368154d34b6ed91c6f5ea169e9eb5f1626f8b33604051611a5b91906126db565b60405180910390a15050505050565b6001600160a01b031660009081526001602052604090205460ff1690565b60ff81166014141561089157600054604051630c8820a760e41b81526001600160a01b039091169063c8820a7090611ac89087908790879060040161272c565b600060405180830381600087803b158015611ae257600080fd5b505af1158015611af6573d6000803e3d6000fd5b5050505050505050565b600080546040516376aa84d360e11b81526001600160a01b039091169063ed5509a6906106f29085906004016126db565b6000611b3c33611e80565b9050600081858585604051602001611b57949392919061268c565b60408051601f198184030181528282528051602091820120838301835233845260018483019081526000828152600c909352918390209351845492511515600160a01b0260ff60a01b196001600160a01b03929092166001600160a01b0319909416939093171691909117909255519091507f3ed01f2c3fc24c6b329d931e35b03e390d23497d22b3f90e15b600343e93df1190611a5b908490889088908890612d13565b60005460405163bdfd987760e01b81526001600160a01b039091169063bdfd987790611c2c9084906004016126db565b600060405180830381600087803b158015611c4657600080fd5b505af1158015611c5a573d6000803e3d6000fd5b50505050600080516020612efa83398151915281604051611c7b91906126db565b60405180910390a150565b60005460405163253055a560e21b81526001600160a01b03909116906394c1569490611cb69084906004016126db565b600060405180830381600087803b158015611cd057600080fd5b505af1158015611ce4573d6000803e3d6000fd5b505050507fa83117346cca49bd2c97acd5b237a40a23cea37cdfced29b1a65142bfe2c5baf81604051611c7b91906126db565b60008054604051630f302fa760e21b81526001600160a01b0390911690633cc0be9c90611d4c9033908790879060040161272c565b602060405180830381600087803b158015611d6657600080fd5b505af1158015611d7a573d6000803e3d6000fd5b505050506040513d601f19601f82011682018060405250810190611d9e919061252f565b90507f240f434fa78afde6c6a83ff9b95d095deb69bf0267f51faa56a4fc6664e72854338484604051611dd39392919061272c565b60405180910390a1505050565b611de8612063565b611df0612063565b611df983611e80565b60ff1680825260208201525b8051602082015160ff90811691161415611e2f57611e2283611e80565b60ff166020820152611e05565b602081015160ff1660408201525b8051604082015160ff90811691161480611e6557506020810151604082015160ff9081169116145b1561074257611e7383611e80565b60ff166040820152611e3d565b60098054600091600a918391839160ff169083611e9c83612e60565b91906101000a81548160ff021916908360ff16021790555060ff1643611ec29190612de2565b4085604051602001611ed5929190612669565b6040516020818303038152906040528051906020012060001c611ef89190612e80565b60095490915060fa60ff9091161115611f16576009805460ff191690555b9392505050565b508054611f2990612e25565b6000825580601f10611f3b5750611f59565b601f016020900490600052602060002090810190611f599190612081565b50565b600183019183908215611fdf5791602002820160005b83821115611fb057835183826101000a81548160ff021916908360ff1602179055509260200192600101602081600001049283019260010302611f72565b8015611fdd5782816101000a81549060ff0219169055600101602081600001049283019260010302611fb0565b505b50611feb929150612081565b5090565b828054611ffb90612e25565b90600052602060002090601f01602090048101928261201d5760008555611fdf565b82601f1061203657805160ff1916838001178555611fdf565b82800160010185558215611fdf579182015b82811115611fdf578251825591602001919060010190612048565b60405180606001604052806003906020820280368337509192915050565b5b80821115611feb5760008155600101612082565b600082601f8301126120a6578081fd5b813560206120bb6120b683612d6a565b612d40565b82815281810190858301838502870184018810156120d7578586fd5b855b858110156120fe5781356120ec81612ed6565b845292840192908401906001016120d9565b5090979650505050505050565b600082601f83011261211b578081fd5b8135602061212b6120b683612d6a565b8281528181019085830183850287018401881015612147578586fd5b855b858110156120fe57813584529284019290840190600101612149565b600082601f830112612175578081fd5b81356121836120b682612d8e565b818152846020838601011115612197578283fd5b816020850160208301379081016020019190915292915050565b803560ff8116811461074557600080fd5b6000602082840312156121d3578081fd5b8135611f1681612ed6565b600080604083850312156121f0578081fd5b82356121fb81612ed6565b946020939093013593505050565b60008060006060848603121561221d578081fd5b833561222881612ed6565b9250602084013567ffffffffffffffff811115612243578182fd5b61224f86828701612165565b925050604084013590509250925092565b600080600060608486031215612274578081fd5b835161227f81612ed6565b602085015190935067ffffffffffffffff81111561229b578182fd5b8401601f810186136122ab578182fd5b80516122b96120b682612d8e565b8181528760208385010111156122cd578384fd5b6122de826020830160208601612df9565b809450505050604084015190509250925092565b60008060008060808587031215612307578182fd5b843561231281612ed6565b9350602085013567ffffffffffffffff81111561232d578283fd5b61233987828801612165565b9350506040850135915061234f606086016121b1565b905092959194509250565b6000806000806080858703121561236f578182fd5b843567ffffffffffffffff80821115612386578384fd5b61239288838901612096565b95506020915081870135818111156123a8578485fd5b6123b489828a01612096565b9550506040870135818111156123c8578485fd5b8701601f810189136123d8578485fd5b80356123e66120b682612d6a565b81815284810190838601885b8481101561241b576124098e898435890101612165565b845292870192908701906001016123f2565b50909750505050606088013592505080821115612436578283fd5b506124438782880161210b565b91505092959194509250565b60006020808385031215612461578182fd5b825167ffffffffffffffff811115612477578283fd5b8301601f81018513612487578283fd5b80516124956120b682612d6a565b81815283810190838501858402850186018910156124b1578687fd5b8694505b838510156124d35780518352600194909401939185019185016124b5565b50979650505050505050565b6000602082840312156124f0578081fd5b8135611f1681612eeb565b60006020828403121561250c578081fd5b8151611f1681612eeb565b600060208284031215612528578081fd5b5035919050565b600060208284031215612540578081fd5b5051919050565b60008060408385031215612559578182fd5b823567ffffffffffffffff81111561256f578283fd5b61257b85828601612165565b95602094909401359450505050565b600080600080600060a086880312156125a1578283fd5b6125aa866121b1565b945060208601356125ba81612ed6565b9350604086013567ffffffffffffffff8111156125d5578384fd5b6125e188828901612165565b935050606086013591506125f7608087016121b1565b90509295509295909350565b6000815180845260208085019450808401835b8381101561263257815187529582019590820190600101612616565b509495945050505050565b60008151808452612655816020860160208601612df9565b601f01601f19169290920160200192915050565b91825260601b6bffffffffffffffffffffffff1916602082015260340190565b90565b600060ff60f81b8660f81b1682526bffffffffffffffffffffffff198560601b16600183015283516126c5816015850160208801612df9565b6015920191820192909252603501949350505050565b6001600160a01b0391909116815260200190565b6001600160a01b0385811682528416602082015260806040820181905260009061271b9083018561263d565b905082606083015295945050505050565b6001600160a01b03841681526060602082018190526000906127509083018561263d565b9050826040830152949350505050565b600060018060a01b03808816835260a0602084015261278260a084018861263d565b6040840196909652939093166060820152608001525092915050565b6001600160a01b03851681526080602082018190526000906127c29083018661263d565b905083604083015260ff8316606083015295945050505050565b606080825284519082018190526000906020906080840190828801845b8281101561281e5781516001600160a01b0316845292840192908401906001016127f9565b5050508381038285015285518082528282019080840283018401888501865b8381101561286b57601f1986840301855261285983835161263d565b9487019492509086019060010161283d565b5050868103604088015261287f8189612603565b9a9950505050505050505050565b60608101818360005b60038110156109bd57815160ff16835260209283019290910190600101612896565b901515815260200190565b90815260200190565b6020808252602f908201527f466c69676874206f722074696d657374616d7020646f206e6f74206d6174636860408201526e081bdc9858db19481c995c5d595cdd608a1b606082015260800190565b60208082526039908201527f416e20616464726573732063616e206e6f7420626520646f75626c656420757060408201527f206173206169726c696e6520616e642070617373656e67657200000000000000606082015260800190565b6020808252601490820152732330b4b632b2103a379039b2b7321022ba3432b960611b604082015260600190565b6020808252602e908201527f496e737572616e636520436f6e747269627574696f6e73206d6179206e6f742060408201526d32bc31b2b2b210189032ba3432b960911b606082015260800190565b60208082526019908201527f43616c6c6572206973206e6f7420612070617373656e67657200000000000000604082015260600190565b6020808252606a908201527f4d75737420626520612066756e646564206169726c696e6520746f207375626d60408201527f697420616e6f74686572206169726c696e65207768656e20746f74616c20616960608201527f726c696e6573206172652062656c6f7720746865206d696e696d756d20666f7260808201526920636f6e73656e73757360b01b60a082015260c00190565b6020808252601a908201527f4169726c696e6520697320616c72656164792066756e64656421000000000000604082015260600190565b6020808252601b908201527f4e6f74207265676973746572656420617320616e206f7261636c650000000000604082015260600190565b60208082526019908201527f4164647265737320616c72656164792061206169726c696e6500000000000000604082015260600190565b60208082526025908201527f436f6e74726163742069732063757272656e746c79206e6f74206f70657261746040820152641a5bdb985b60da1b606082015260800190565b6020808252601c908201527f43616c6c6572206973206e6f7420636f6e7472616374206f776e657200000000604082015260600190565b6020808252601c908201527f526567697374726174696f6e2066656520697320726571756972656400000000604082015260600190565b60208082526023908201527f496e64657820646f6573206e6f74206d61746368206f7261636c652072657175604082015262195cdd60ea1b606082015260800190565b6020808252601b908201527f4164647265737320616c726561647920612050617373656e6765720000000000604082015260600190565b6020808252602b908201527f537570706c69656420657468657220646f65736e2774206d656574207468652060408201526a66756e64696e672066656560a81b606082015260800190565b6020808252818101527f41646472657373206e6f7420612072656769737465726564206169726c696e65604082015260600190565b60ff851681526001600160a01b038416602082015260806040820181905260009061271b9083018561263d565b60405181810167ffffffffffffffff81118282101715612d6257612d62612ec0565b604052919050565b600067ffffffffffffffff821115612d8457612d84612ec0565b5060209081020190565b600067ffffffffffffffff821115612da857612da8612ec0565b50601f01601f191660200190565b60008219821115612dc957612dc9612e94565b500190565b600082612ddd57612ddd612eaa565b500490565b600082821015612df457612df4612e94565b500390565b60005b83811015612e14578181015183820152602001612dfc565b838111156108915750506000910152565b600281046001821680612e3957607f821691505b60208210811415612e5a57634e487b7160e01b600052602260045260246000fd5b50919050565b600060ff821660ff811415612e7757612e77612e94565b60010192915050565b600082612e8f57612e8f612eaa565b500690565b634e487b7160e01b600052601160045260246000fd5b634e487b7160e01b600052601260045260246000fd5b634e487b7160e01b600052604160045260246000fd5b6001600160a01b0381168114611f5957600080fd5b8015158114611f5957600080fdfe2ef49f308764ebe6c1149ac59bf417810aa1d676e95227cc4638855c9eaf6c88a26469706673582212209c86e09366a9ae50316b3695613dcd18d428cc6005e41e3593df8275e2b1f50b64736f6c63430008000033",
			"opcodes": "PUSH1 0x80 PUSH1 0x40 MSTORE PUSH1 0x9 DUP1 SLOAD PUSH1 0xFF NOT AND SWAP1 SSTORE CALLVALUE DUP1 ISZERO PUSH3 0x1B JUMPI PUSH1 0x0 DUP1 REVERT JUMPDEST POP PUSH1 0x40 MLOAD PUSH3 0x325A CODESIZE SUB DUP1 PUSH3 0x325A DUP4 CODECOPY DUP2 ADD PUSH1 0x40 DUP2 SWAP1 MSTORE PUSH3 0x3E SWAP2 PUSH3 0x219 JUMP JUMPDEST PUSH1 0x0 DUP1 SLOAD PUSH1 0x1 PUSH1 0x1 PUSH1 0xA0 SHL SUB DUP1 DUP5 AND PUSH1 0x1 PUSH1 0x1 PUSH1 0xA0 SHL SUB NOT SWAP3 DUP4 AND OR SWAP1 SWAP3 SSTORE PUSH1 0x2 DUP1 SLOAD SWAP1 SWAP2 AND CALLER OR SWAP1 DUP2 SWAP1 SSTORE PUSH3 0x76 SWAP2 AND PUSH3 0x7D JUMP JUMPDEST POP PUSH3 0x2FB JUMP JUMPDEST PUSH1 0x0 PUSH3 0x89 PUSH3 0x189 JUMP JUMPDEST SWAP1 POP PUSH1 0x1 DUP2 ISZERO ISZERO EQ PUSH3 0xB9 JUMPI PUSH1 0x40 MLOAD PUSH3 0x461BCD PUSH1 0xE5 SHL DUP2 MSTORE PUSH1 0x4 ADD PUSH3 0xB0 SWAP1 PUSH3 0x27F JUMP JUMPDEST PUSH1 0x40 MLOAD DUP1 SWAP2 SUB SWAP1 REVERT JUMPDEST PUSH1 0x2 SLOAD PUSH1 0x1 PUSH1 0x1 PUSH1 0xA0 SHL SUB AND CALLER EQ PUSH3 0xE6 JUMPI PUSH1 0x40 MLOAD PUSH3 0x461BCD PUSH1 0xE5 SHL DUP2 MSTORE PUSH1 0x4 ADD PUSH3 0xB0 SWAP1 PUSH3 0x2C4 JUMP JUMPDEST PUSH1 0x0 SLOAD PUSH1 0x40 MLOAD PUSH4 0x3E95586F PUSH1 0xE1 SHL DUP2 MSTORE PUSH1 0x1 PUSH1 0x1 PUSH1 0xA0 SHL SUB SWAP1 SWAP2 AND SWAP1 PUSH4 0x7D2AB0DE SWAP1 PUSH3 0x118 SWAP1 DUP6 SWAP1 PUSH1 0x4 ADD PUSH3 0x26B JUMP JUMPDEST PUSH1 0x0 PUSH1 0x40 MLOAD DUP1 DUP4 SUB DUP2 PUSH1 0x0 DUP8 DUP1 EXTCODESIZE ISZERO DUP1 ISZERO PUSH3 0x133 JUMPI PUSH1 0x0 DUP1 REVERT JUMPDEST POP GAS CALL ISZERO DUP1 ISZERO PUSH3 0x148 JUMPI RETURNDATASIZE PUSH1 0x0 DUP1 RETURNDATACOPY RETURNDATASIZE PUSH1 0x0 REVERT JUMPDEST POP POP POP POP PUSH32 0x2EF49F308764EBE6C1149AC59BF417810AA1D676E95227CC4638855C9EAF6C88 DUP3 PUSH1 0x40 MLOAD PUSH3 0x17D SWAP2 SWAP1 PUSH3 0x26B JUMP JUMPDEST PUSH1 0x40 MLOAD DUP1 SWAP2 SUB SWAP1 LOG1 POP POP JUMP JUMPDEST PUSH1 0x0 DUP1 PUSH1 0x0 SWAP1 SLOAD SWAP1 PUSH2 0x100 EXP SWAP1 DIV PUSH1 0x1 PUSH1 0x1 PUSH1 0xA0 SHL SUB AND PUSH1 0x1 PUSH1 0x1 PUSH1 0xA0 SHL SUB AND PUSH4 0xCD905DFF PUSH1 0x40 MLOAD DUP2 PUSH4 0xFFFFFFFF AND PUSH1 0xE0 SHL DUP2 MSTORE PUSH1 0x4 ADD PUSH1 0x20 PUSH1 0x40 MLOAD DUP1 DUP4 SUB DUP2 DUP7 DUP1 EXTCODESIZE ISZERO DUP1 ISZERO PUSH3 0x1D9 JUMPI PUSH1 0x0 DUP1 REVERT JUMPDEST POP GAS STATICCALL ISZERO DUP1 ISZERO PUSH3 0x1EE JUMPI RETURNDATASIZE PUSH1 0x0 DUP1 RETURNDATACOPY RETURNDATASIZE PUSH1 0x0 REVERT JUMPDEST POP POP POP POP PUSH1 0x40 MLOAD RETURNDATASIZE PUSH1 0x1F NOT PUSH1 0x1F DUP3 ADD AND DUP3 ADD DUP1 PUSH1 0x40 MSTORE POP DUP2 ADD SWAP1 PUSH3 0x214 SWAP2 SWAP1 PUSH3 0x249 JUMP JUMPDEST SWAP1 POP SWAP1 JUMP JUMPDEST PUSH1 0x0 PUSH1 0x20 DUP3 DUP5 SUB SLT ISZERO PUSH3 0x22B JUMPI DUP1 DUP2 REVERT JUMPDEST DUP2 MLOAD PUSH1 0x1 PUSH1 0x1 PUSH1 0xA0 SHL SUB DUP2 AND DUP2 EQ PUSH3 0x242 JUMPI DUP2 DUP3 REVERT JUMPDEST SWAP4 SWAP3 POP POP POP JUMP JUMPDEST PUSH1 0x0 PUSH1 0x20 DUP3 DUP5 SUB SLT ISZERO PUSH3 0x25B JUMPI DUP1 DUP2 REVERT JUMPDEST DUP2 MLOAD DUP1 ISZERO ISZERO DUP2 EQ PUSH3 0x242 JUMPI DUP2 DUP3 REVERT JUMPDEST PUSH1 0x1 PUSH1 0x1 PUSH1 0xA0 SHL SUB SWAP2 SWAP1 SWAP2 AND DUP2 MSTORE PUSH1 0x20 ADD SWAP1 JUMP JUMPDEST PUSH1 0x20 DUP1 DUP3 MSTORE PUSH1 0x25 SWAP1 DUP3 ADD MSTORE PUSH32 0x436F6E74726163742069732063757272656E746C79206E6F74206F7065726174 PUSH1 0x40 DUP3 ADD MSTORE PUSH5 0x1A5BDB985B PUSH1 0xDA SHL PUSH1 0x60 DUP3 ADD MSTORE PUSH1 0x80 ADD SWAP1 JUMP JUMPDEST PUSH1 0x20 DUP1 DUP3 MSTORE PUSH1 0x1C SWAP1 DUP3 ADD MSTORE PUSH32 0x43616C6C6572206973206E6F7420636F6E7472616374206F776E657200000000 PUSH1 0x40 DUP3 ADD MSTORE PUSH1 0x60 ADD SWAP1 JUMP JUMPDEST PUSH2 0x2F4F DUP1 PUSH3 0x30B PUSH1 0x0 CODECOPY PUSH1 0x0 RETURN INVALID PUSH1 0x80 PUSH1 0x40 MSTORE PUSH1 0x4 CALLDATASIZE LT PUSH2 0x144 JUMPI PUSH1 0x0 CALLDATALOAD PUSH1 0xE0 SHR DUP1 PUSH4 0x70EBC195 GT PUSH2 0xB6 JUMPI DUP1 PUSH4 0xCD905DFF GT PUSH2 0x6F JUMPI DUP1 PUSH4 0xCD905DFF EQ PUSH2 0x355 JUMPI DUP1 PUSH4 0xD5E96264 EQ PUSH2 0x36A JUMPI DUP1 PUSH4 0xE79E9649 EQ PUSH2 0x372 JUMPI DUP1 PUSH4 0xE7BDDE3B EQ PUSH2 0x392 JUMPI DUP1 PUSH4 0xED5509A6 EQ PUSH2 0x3B2 JUMPI DUP1 PUSH4 0xF83F11C0 EQ PUSH2 0x3D2 JUMPI PUSH2 0x14B JUMP JUMPDEST DUP1 PUSH4 0x70EBC195 EQ PUSH2 0x2AD JUMPI DUP1 PUSH4 0x94C15694 EQ PUSH2 0x2B5 JUMPI DUP1 PUSH4 0xA7B28278 EQ PUSH2 0x2D5 JUMPI DUP1 PUSH4 0xAE1309EC EQ PUSH2 0x2F5 JUMPI DUP1 PUSH4 0xBDFD9877 EQ PUSH2 0x315 JUMPI DUP1 PUSH4 0xC10F2700 EQ PUSH2 0x335 JUMPI PUSH2 0x14B JUMP JUMPDEST DUP1 PUSH4 0x39CFC995 GT PUSH2 0x108 JUMPI DUP1 PUSH4 0x39CFC995 EQ PUSH2 0x1FF JUMPI DUP1 PUSH4 0x423F6CEF EQ PUSH2 0x22C JUMPI DUP1 PUSH4 0x4A946E25 EQ PUSH2 0x23F JUMPI DUP1 PUSH4 0x4C67CC3B EQ PUSH2 0x252 JUMPI DUP1 PUSH4 0x5F1CC0E6 EQ PUSH2 0x276 JUMPI DUP1 PUSH4 0x64B4F751 EQ PUSH2 0x298 JUMPI PUSH2 0x14B JUMP JUMPDEST DUP1 PUSH4 0xCC309D0 EQ PUSH2 0x150 JUMPI DUP1 PUSH4 0x110466ED EQ PUSH2 0x172 JUMPI DUP1 PUSH4 0x1C3C1400 EQ PUSH2 0x192 JUMPI DUP1 PUSH4 0x24C534CC EQ PUSH2 0x1C8 JUMPI DUP1 PUSH4 0x339D2590 EQ PUSH2 0x1F7 JUMPI PUSH2 0x14B JUMP JUMPDEST CALLDATASIZE PUSH2 0x14B JUMPI STOP JUMPDEST PUSH1 0x0 DUP1 REVERT JUMPDEST CALLVALUE DUP1 ISZERO PUSH2 0x15C JUMPI PUSH1 0x0 DUP1 REVERT JUMPDEST POP PUSH2 0x170 PUSH2 0x16B CALLDATASIZE PUSH1 0x4 PUSH2 0x235A JUMP JUMPDEST PUSH2 0x3F2 JUMP JUMPDEST STOP JUMPDEST CALLVALUE DUP1 ISZERO PUSH2 0x17E JUMPI PUSH1 0x0 DUP1 REVERT JUMPDEST POP PUSH2 0x170 PUSH2 0x18D CALLDATASIZE PUSH1 0x4 PUSH2 0x24DF JUMP JUMPDEST PUSH2 0x5FB JUMP JUMPDEST CALLVALUE DUP1 ISZERO PUSH2 0x19E JUMPI PUSH1 0x0 DUP1 REVERT JUMPDEST POP PUSH2 0x1B2 PUSH2 0x1AD CALLDATASIZE PUSH1 0x4 PUSH2 0x21C2 JUMP JUMPDEST PUSH2 0x6C2 JUMP JUMPDEST PUSH1 0x40 MLOAD PUSH2 0x1BF SWAP2 SWAP1 PUSH2 0x28B8 JUMP JUMPDEST PUSH1 0x40 MLOAD DUP1 SWAP2 SUB SWAP1 RETURN JUMPDEST CALLVALUE DUP1 ISZERO PUSH2 0x1D4 JUMPI PUSH1 0x0 DUP1 REVERT JUMPDEST POP PUSH2 0x1E8 PUSH2 0x1E3 CALLDATASIZE PUSH1 0x4 PUSH2 0x2517 JUMP JUMPDEST PUSH2 0x74A JUMP JUMPDEST PUSH1 0x40 MLOAD PUSH2 0x1BF SWAP4 SWAP3 SWAP2 SWAP1 PUSH2 0x272C JUMP JUMPDEST PUSH2 0x170 PUSH2 0x817 JUMP JUMPDEST CALLVALUE DUP1 ISZERO PUSH2 0x20B JUMPI PUSH1 0x0 DUP1 REVERT JUMPDEST POP PUSH2 0x21F PUSH2 0x21A CALLDATASIZE PUSH1 0x4 PUSH2 0x2547 JUMP JUMPDEST PUSH2 0x897 JUMP JUMPDEST PUSH1 0x40 MLOAD PUSH2 0x1BF SWAP2 SWAP1 PUSH2 0x28C3 JUMP JUMPDEST PUSH2 0x170 PUSH2 0x23A CALLDATASIZE PUSH1 0x4 PUSH2 0x21DE JUMP JUMPDEST PUSH2 0x9C6 JUMP JUMPDEST PUSH2 0x170 PUSH2 0x24D CALLDATASIZE PUSH1 0x4 PUSH2 0x2209 JUMP JUMPDEST PUSH2 0xA72 JUMP JUMPDEST CALLVALUE DUP1 ISZERO PUSH2 0x25E JUMPI PUSH1 0x0 DUP1 REVERT JUMPDEST POP PUSH2 0x267 PUSH2 0xBBE JUMP JUMPDEST PUSH1 0x40 MLOAD PUSH2 0x1BF SWAP4 SWAP3 SWAP2 SWAP1 PUSH2 0x27DC JUMP JUMPDEST CALLVALUE DUP1 ISZERO PUSH2 0x282 JUMPI PUSH1 0x0 DUP1 REVERT JUMPDEST POP PUSH2 0x28B PUSH2 0xF33 JUMP JUMPDEST PUSH1 0x40 MLOAD PUSH2 0x1BF SWAP2 SWAP1 PUSH2 0x288D JUMP JUMPDEST CALLVALUE DUP1 ISZERO PUSH2 0x2A4 JUMPI PUSH1 0x0 DUP1 REVERT JUMPDEST POP PUSH2 0x21F PUSH2 0xFCA JUMP JUMPDEST PUSH2 0x170 PUSH2 0xFD6 JUMP JUMPDEST CALLVALUE DUP1 ISZERO PUSH2 0x2C1 JUMPI PUSH1 0x0 DUP1 REVERT JUMPDEST POP PUSH2 0x170 PUSH2 0x2D0 CALLDATASIZE PUSH1 0x4 PUSH2 0x21C2 JUMP JUMPDEST PUSH2 0x109B JUMP JUMPDEST CALLVALUE DUP1 ISZERO PUSH2 0x2E1 JUMPI PUSH1 0x0 DUP1 REVERT JUMPDEST POP PUSH2 0x170 PUSH2 0x2F0 CALLDATASIZE PUSH1 0x4 PUSH2 0x21C2 JUMP JUMPDEST PUSH2 0x11DD JUMP JUMPDEST CALLVALUE DUP1 ISZERO PUSH2 0x301 JUMPI PUSH1 0x0 DUP1 REVERT JUMPDEST POP PUSH2 0x1B2 PUSH2 0x310 CALLDATASIZE PUSH1 0x4 PUSH2 0x21C2 JUMP JUMPDEST PUSH2 0x12C0 JUMP JUMPDEST CALLVALUE DUP1 ISZERO PUSH2 0x321 JUMPI PUSH1 0x0 DUP1 REVERT JUMPDEST POP PUSH2 0x170 PUSH2 0x330 CALLDATASIZE PUSH1 0x4 PUSH2 0x21C2 JUMP JUMPDEST PUSH2 0x12F1 JUMP JUMPDEST CALLVALUE DUP1 ISZERO PUSH2 0x341 JUMPI PUSH1 0x0 DUP1 REVERT JUMPDEST POP PUSH2 0x170 PUSH2 0x350 CALLDATASIZE PUSH1 0x4 PUSH2 0x258A JUMP JUMPDEST PUSH2 0x1665 JUMP JUMPDEST CALLVALUE DUP1 ISZERO PUSH2 0x361 JUMPI PUSH1 0x0 DUP1 REVERT JUMPDEST POP PUSH2 0x1B2 PUSH2 0x1837 JUMP JUMPDEST PUSH2 0x170 PUSH2 0x18C3 JUMP JUMPDEST CALLVALUE DUP1 ISZERO PUSH2 0x37E JUMPI PUSH1 0x0 DUP1 REVERT JUMPDEST POP PUSH2 0x1B2 PUSH2 0x38D CALLDATASIZE PUSH1 0x4 PUSH2 0x21C2 JUMP JUMPDEST PUSH2 0x1A6A JUMP JUMPDEST CALLVALUE DUP1 ISZERO PUSH2 0x39E JUMPI PUSH1 0x0 DUP1 REVERT JUMPDEST POP PUSH2 0x170 PUSH2 0x3AD CALLDATASIZE PUSH1 0x4 PUSH2 0x22F2 JUMP JUMPDEST PUSH2 0x1A88 JUMP JUMPDEST CALLVALUE DUP1 ISZERO PUSH2 0x3BE JUMPI PUSH1 0x0 DUP1 REVERT JUMPDEST POP PUSH2 0x1B2 PUSH2 0x3CD CALLDATASIZE PUSH1 0x4 PUSH2 0x21C2 JUMP JUMPDEST PUSH2 0x1B00 JUMP JUMPDEST CALLVALUE DUP1 ISZERO PUSH2 0x3DE JUMPI PUSH1 0x0 DUP1 REVERT JUMPDEST POP PUSH2 0x170 PUSH2 0x3ED CALLDATASIZE PUSH1 0x4 PUSH2 0x2209 JUMP JUMPDEST PUSH2 0x1B31 JUMP JUMPDEST PUSH1 0x0 JUMPDEST PUSH1 0x6 SLOAD PUSH1 0xFF DUP3 AND LT ISZERO PUSH2 0x455 JUMPI PUSH1 0x6 DUP1 SLOAD DUP1 PUSH2 0x421 JUMPI PUSH4 0x4E487B71 PUSH1 0xE0 SHL PUSH1 0x0 MSTORE PUSH1 0x31 PUSH1 0x4 MSTORE PUSH1 0x24 PUSH1 0x0 REVERT JUMPDEST PUSH1 0x0 DUP3 DUP2 MSTORE PUSH1 0x20 SWAP1 KECCAK256 DUP2 ADD PUSH1 0x0 NOT SWAP1 DUP2 ADD DUP1 SLOAD PUSH1 0x1 PUSH1 0x1 PUSH1 0xA0 SHL SUB NOT AND SWAP1 SSTORE ADD SWAP1 SSTORE DUP1 PUSH2 0x44D DUP2 PUSH2 0x2E60 JUMP JUMPDEST SWAP2 POP POP PUSH2 0x3F5 JUMP JUMPDEST POP PUSH1 0x0 JUMPDEST PUSH1 0x7 SLOAD PUSH1 0xFF DUP3 AND LT ISZERO PUSH2 0x4B5 JUMPI PUSH1 0x7 DUP1 SLOAD DUP1 PUSH2 0x485 JUMPI PUSH4 0x4E487B71 PUSH1 0xE0 SHL PUSH1 0x0 MSTORE PUSH1 0x31 PUSH1 0x4 MSTORE PUSH1 0x24 PUSH1 0x0 REVERT JUMPDEST PUSH1 0x1 SWAP1 SUB DUP2 DUP2 SWAP1 PUSH1 0x0 MSTORE PUSH1 0x20 PUSH1 0x0 KECCAK256 ADD PUSH1 0x0 PUSH2 0x4A1 SWAP2 SWAP1 PUSH2 0x1F1D JUMP JUMPDEST SWAP1 SSTORE DUP1 PUSH2 0x4AD DUP2 PUSH2 0x2E60 JUMP JUMPDEST SWAP2 POP POP PUSH2 0x459 JUMP JUMPDEST POP PUSH1 0x0 JUMPDEST PUSH1 0x8 SLOAD PUSH1 0xFF DUP3 AND LT ISZERO PUSH2 0x50E JUMPI PUSH1 0x8 DUP1 SLOAD DUP1 PUSH2 0x4E5 JUMPI PUSH4 0x4E487B71 PUSH1 0xE0 SHL PUSH1 0x0 MSTORE PUSH1 0x31 PUSH1 0x4 MSTORE PUSH1 0x24 PUSH1 0x0 REVERT JUMPDEST PUSH1 0x1 SWAP1 SUB DUP2 DUP2 SWAP1 PUSH1 0x0 MSTORE PUSH1 0x20 PUSH1 0x0 KECCAK256 ADD PUSH1 0x0 SWAP1 SSTORE SWAP1 SSTORE DUP1 DUP1 PUSH2 0x506 SWAP1 PUSH2 0x2E60 JUMP JUMPDEST SWAP2 POP POP PUSH2 0x4B9 JUMP JUMPDEST POP PUSH1 0x0 JUMPDEST DUP5 MLOAD DUP2 PUSH1 0xFF AND LT ISZERO PUSH2 0x5F4 JUMPI PUSH2 0x551 DUP6 DUP3 PUSH1 0xFF AND DUP2 MLOAD DUP2 LT PUSH2 0x544 JUMPI PUSH4 0x4E487B71 PUSH1 0xE0 SHL PUSH1 0x0 MSTORE PUSH1 0x32 PUSH1 0x4 MSTORE PUSH1 0x24 PUSH1 0x0 REVERT JUMPDEST PUSH1 0x20 MUL PUSH1 0x20 ADD ADD MLOAD PUSH2 0x1BFC JUMP JUMPDEST PUSH2 0x584 DUP5 DUP3 PUSH1 0xFF AND DUP2 MLOAD DUP2 LT PUSH2 0x577 JUMPI PUSH4 0x4E487B71 PUSH1 0xE0 SHL PUSH1 0x0 MSTORE PUSH1 0x32 PUSH1 0x4 MSTORE PUSH1 0x24 PUSH1 0x0 REVERT JUMPDEST PUSH1 0x20 MUL PUSH1 0x20 ADD ADD MLOAD PUSH2 0x1C86 JUMP JUMPDEST PUSH2 0x5E2 DUP4 DUP3 PUSH1 0xFF AND DUP2 MLOAD DUP2 LT PUSH2 0x5AA JUMPI PUSH4 0x4E487B71 PUSH1 0xE0 SHL PUSH1 0x0 MSTORE PUSH1 0x32 PUSH1 0x4 MSTORE PUSH1 0x24 PUSH1 0x0 REVERT JUMPDEST PUSH1 0x20 MUL PUSH1 0x20 ADD ADD MLOAD DUP4 DUP4 PUSH1 0xFF AND DUP2 MLOAD DUP2 LT PUSH2 0x5D5 JUMPI PUSH4 0x4E487B71 PUSH1 0xE0 SHL PUSH1 0x0 MSTORE PUSH1 0x32 PUSH1 0x4 MSTORE PUSH1 0x24 PUSH1 0x0 REVERT JUMPDEST PUSH1 0x20 MUL PUSH1 0x20 ADD ADD MLOAD PUSH2 0x1D17 JUMP JUMPDEST DUP1 PUSH2 0x5EC DUP2 PUSH2 0x2E60 JUMP JUMPDEST SWAP2 POP POP PUSH2 0x512 JUMP JUMPDEST POP POP POP POP POP JUMP JUMPDEST PUSH1 0x0 PUSH2 0x605 PUSH2 0x1837 JUMP JUMPDEST SWAP1 POP PUSH1 0x1 DUP2 ISZERO ISZERO EQ PUSH2 0x632 JUMPI PUSH1 0x40 MLOAD PUSH3 0x461BCD PUSH1 0xE5 SHL DUP2 MSTORE PUSH1 0x4 ADD PUSH2 0x629 SWAP1 PUSH2 0x2B66 JUMP JUMPDEST PUSH1 0x40 MLOAD DUP1 SWAP2 SUB SWAP1 REVERT JUMPDEST PUSH1 0x2 SLOAD PUSH1 0x1 PUSH1 0x1 PUSH1 0xA0 SHL SUB AND CALLER EQ PUSH2 0x65C JUMPI PUSH1 0x40 MLOAD PUSH3 0x461BCD PUSH1 0xE5 SHL DUP2 MSTORE PUSH1 0x4 ADD PUSH2 0x629 SWAP1 PUSH2 0x2BAB JUMP JUMPDEST PUSH1 0x0 SLOAD PUSH1 0x40 MLOAD PUSH4 0x110466ED PUSH1 0xE0 SHL DUP2 MSTORE PUSH1 0x1 PUSH1 0x1 PUSH1 0xA0 SHL SUB SWAP1 SWAP2 AND SWAP1 PUSH4 0x110466ED SWAP1 PUSH2 0x68C SWAP1 DUP6 SWAP1 PUSH1 0x4 ADD PUSH2 0x28B8 JUMP JUMPDEST PUSH1 0x0 PUSH1 0x40 MLOAD DUP1 DUP4 SUB DUP2 PUSH1 0x0 DUP8 DUP1 EXTCODESIZE ISZERO DUP1 ISZERO PUSH2 0x6A6 JUMPI PUSH1 0x0 DUP1 REVERT JUMPDEST POP GAS CALL ISZERO DUP1 ISZERO PUSH2 0x6BA JUMPI RETURNDATASIZE PUSH1 0x0 DUP1 RETURNDATACOPY RETURNDATASIZE PUSH1 0x0 REVERT JUMPDEST POP POP POP POP POP POP JUMP JUMPDEST PUSH1 0x0 DUP1 SLOAD PUSH1 0x40 MLOAD PUSH3 0x70F05 PUSH1 0xEA SHL DUP2 MSTORE PUSH1 0x1 PUSH1 0x1 PUSH1 0xA0 SHL SUB SWAP1 SWAP2 AND SWAP1 PUSH4 0x1C3C1400 SWAP1 PUSH2 0x6F2 SWAP1 DUP6 SWAP1 PUSH1 0x4 ADD PUSH2 0x26DB JUMP JUMPDEST PUSH1 0x20 PUSH1 0x40 MLOAD DUP1 DUP4 SUB DUP2 DUP7 DUP1 EXTCODESIZE ISZERO DUP1 ISZERO PUSH2 0x70A JUMPI PUSH1 0x0 DUP1 REVERT JUMPDEST POP GAS STATICCALL ISZERO DUP1 ISZERO PUSH2 0x71E JUMPI RETURNDATASIZE PUSH1 0x0 DUP1 RETURNDATACOPY RETURNDATASIZE PUSH1 0x0 REVERT JUMPDEST POP POP POP POP PUSH1 0x40 MLOAD RETURNDATASIZE PUSH1 0x1F NOT PUSH1 0x1F DUP3 ADD AND DUP3 ADD DUP1 PUSH1 0x40 MSTORE POP DUP2 ADD SWAP1 PUSH2 0x742 SWAP2 SWAP1 PUSH2 0x24FB JUMP JUMPDEST SWAP1 POP JUMPDEST SWAP2 SWAP1 POP JUMP JUMPDEST PUSH1 0x0 PUSH1 0x60 PUSH1 0x0 DUP1 PUSH2 0x759 PUSH2 0x1837 JUMP JUMPDEST SWAP1 POP PUSH1 0x1 DUP2 ISZERO ISZERO EQ PUSH2 0x77D JUMPI PUSH1 0x40 MLOAD PUSH3 0x461BCD PUSH1 0xE5 SHL DUP2 MSTORE PUSH1 0x4 ADD PUSH2 0x629 SWAP1 PUSH2 0x2B66 JUMP JUMPDEST PUSH1 0x0 DUP1 SLOAD PUSH1 0x40 MLOAD PUSH4 0x9314D33 PUSH1 0xE2 SHL DUP2 MSTORE DUP3 SWAP2 DUP3 SWAP2 PUSH1 0x1 PUSH1 0x1 PUSH1 0xA0 SHL SUB SWAP1 SWAP2 AND SWAP1 PUSH4 0x24C534CC SWAP1 PUSH2 0x7B2 SWAP1 DUP12 SWAP1 PUSH1 0x4 ADD PUSH2 0x28C3 JUMP JUMPDEST PUSH1 0x0 PUSH1 0x40 MLOAD DUP1 DUP4 SUB DUP2 DUP7 DUP1 EXTCODESIZE ISZERO DUP1 ISZERO PUSH2 0x7CA JUMPI PUSH1 0x0 DUP1 REVERT JUMPDEST POP GAS STATICCALL ISZERO DUP1 ISZERO PUSH2 0x7DE JUMPI RETURNDATASIZE PUSH1 0x0 DUP1 RETURNDATACOPY RETURNDATASIZE PUSH1 0x0 REVERT JUMPDEST POP POP POP POP PUSH1 0x40 MLOAD RETURNDATASIZE PUSH1 0x0 DUP3 RETURNDATACOPY PUSH1 0x1F RETURNDATASIZE SWAP1 DUP2 ADD PUSH1 0x1F NOT AND DUP3 ADD PUSH1 0x40 MSTORE PUSH2 0x806 SWAP2 SWAP1 DUP2 ADD SWAP1 PUSH2 0x2260 JUMP JUMPDEST SWAP2 SWAP11 SWAP1 SWAP10 POP SWAP1 SWAP8 POP SWAP6 POP POP POP POP POP POP JUMP JUMPDEST PUSH8 0xDE0B6B3A7640000 CALLVALUE LT ISZERO PUSH2 0x83F JUMPI PUSH1 0x40 MLOAD PUSH3 0x461BCD PUSH1 0xE5 SHL DUP2 MSTORE PUSH1 0x4 ADD PUSH2 0x629 SWAP1 PUSH2 0x2BE2 JUMP JUMPDEST PUSH1 0x0 PUSH2 0x84A CALLER PUSH2 0x1DE0 JUMP JUMPDEST PUSH1 0x40 DUP1 MLOAD DUP1 DUP3 ADD DUP3 MSTORE PUSH1 0x1 DUP1 DUP3 MSTORE PUSH1 0x20 DUP1 DUP4 ADD DUP6 DUP2 MSTORE CALLER PUSH1 0x0 SWAP1 DUP2 MSTORE PUSH1 0xA SWAP1 SWAP3 MSTORE SWAP4 SWAP1 KECCAK256 DUP3 MLOAD DUP2 SLOAD PUSH1 0xFF NOT AND SWAP1 ISZERO ISZERO OR DUP2 SSTORE SWAP3 MLOAD SWAP4 SWAP5 POP SWAP1 SWAP3 PUSH2 0x891 SWAP2 DUP4 ADD SWAP1 PUSH1 0x3 PUSH2 0x1F5C JUMP JUMPDEST POP POP POP POP JUMP JUMPDEST PUSH1 0x0 DUP1 PUSH2 0x8A2 PUSH2 0x1837 JUMP JUMPDEST SWAP1 POP PUSH1 0x1 DUP2 ISZERO ISZERO EQ PUSH2 0x8C6 JUMPI PUSH1 0x40 MLOAD PUSH3 0x461BCD PUSH1 0xE5 SHL DUP2 MSTORE PUSH1 0x4 ADD PUSH2 0x629 SWAP1 PUSH2 0x2B66 JUMP JUMPDEST CALLER PUSH1 0x0 PUSH2 0x8D2 DUP3 PUSH2 0x12C0 JUMP JUMPDEST SWAP1 POP PUSH1 0x1 DUP2 ISZERO ISZERO EQ PUSH2 0x8F6 JUMPI PUSH1 0x40 MLOAD PUSH3 0x461BCD PUSH1 0xE5 SHL DUP2 MSTORE PUSH1 0x4 ADD PUSH2 0x629 SWAP1 PUSH2 0x2CDE JUMP JUMPDEST PUSH1 0x0 DUP1 SLOAD PUSH1 0x40 MLOAD PUSH4 0xF302FA7 PUSH1 0xE2 SHL DUP2 MSTORE PUSH1 0x1 PUSH1 0x1 PUSH1 0xA0 SHL SUB SWAP1 SWAP2 AND SWAP1 PUSH4 0x3CC0BE9C SWAP1 PUSH2 0x92B SWAP1 CALLER SWAP1 DUP12 SWAP1 DUP12 SWAP1 PUSH1 0x4 ADD PUSH2 0x272C JUMP JUMPDEST PUSH1 0x20 PUSH1 0x40 MLOAD DUP1 DUP4 SUB DUP2 PUSH1 0x0 DUP8 DUP1 EXTCODESIZE ISZERO DUP1 ISZERO PUSH2 0x945 JUMPI PUSH1 0x0 DUP1 REVERT JUMPDEST POP GAS CALL ISZERO DUP1 ISZERO PUSH2 0x959 JUMPI RETURNDATASIZE PUSH1 0x0 DUP1 RETURNDATACOPY RETURNDATASIZE PUSH1 0x0 REVERT JUMPDEST POP POP POP POP PUSH1 0x40 MLOAD RETURNDATASIZE PUSH1 0x1F NOT PUSH1 0x1F DUP3 ADD AND DUP3 ADD DUP1 PUSH1 0x40 MSTORE POP DUP2 ADD SWAP1 PUSH2 0x97D SWAP2 SWAP1 PUSH2 0x252F JUMP JUMPDEST SWAP1 POP PUSH32 0x240F434FA78AFDE6C6A83FF9B95D095DEB69BF0267F51FAA56A4FC6664E72854 CALLER DUP9 DUP9 PUSH1 0x40 MLOAD PUSH2 0x9B2 SWAP4 SWAP3 SWAP2 SWAP1 PUSH2 0x272C JUMP JUMPDEST PUSH1 0x40 MLOAD DUP1 SWAP2 SUB SWAP1 LOG1 SWAP4 POP JUMPDEST POP POP POP SWAP3 SWAP2 POP POP JUMP JUMPDEST PUSH1 0x0 PUSH2 0x9D0 PUSH2 0x1837 JUMP JUMPDEST SWAP1 POP PUSH1 0x1 DUP2 ISZERO ISZERO EQ PUSH2 0x9F4 JUMPI PUSH1 0x40 MLOAD PUSH3 0x461BCD PUSH1 0xE5 SHL DUP2 MSTORE PUSH1 0x4 ADD PUSH2 0x629 SWAP1 PUSH2 0x2B66 JUMP JUMPDEST PUSH1 0x0 DUP1 DUP5 PUSH1 0x1 PUSH1 0x1 PUSH1 0xA0 SHL SUB AND DUP5 PUSH1 0x40 MLOAD PUSH2 0xA0E SWAP1 PUSH2 0x2689 JUMP JUMPDEST PUSH1 0x0 PUSH1 0x40 MLOAD DUP1 DUP4 SUB DUP2 DUP6 DUP8 GAS CALL SWAP3 POP POP POP RETURNDATASIZE DUP1 PUSH1 0x0 DUP2 EQ PUSH2 0xA4B JUMPI PUSH1 0x40 MLOAD SWAP2 POP PUSH1 0x1F NOT PUSH1 0x3F RETURNDATASIZE ADD AND DUP3 ADD PUSH1 0x40 MSTORE RETURNDATASIZE DUP3 MSTORE RETURNDATASIZE PUSH1 0x0 PUSH1 0x20 DUP5 ADD RETURNDATACOPY PUSH2 0xA50 JUMP JUMPDEST PUSH1 0x60 SWAP2 POP JUMPDEST POP SWAP2 POP SWAP2 POP DUP2 PUSH2 0x5F4 JUMPI PUSH1 0x40 MLOAD PUSH3 0x461BCD PUSH1 0xE5 SHL DUP2 MSTORE PUSH1 0x4 ADD PUSH2 0x629 SWAP1 PUSH2 0x2978 JUMP JUMPDEST PUSH1 0x0 PUSH2 0xA7C PUSH2 0x1837 JUMP JUMPDEST SWAP1 POP PUSH1 0x1 DUP2 ISZERO ISZERO EQ PUSH2 0xAA0 JUMPI PUSH1 0x40 MLOAD PUSH3 0x461BCD PUSH1 0xE5 SHL DUP2 MSTORE PUSH1 0x4 ADD PUSH2 0x629 SWAP1 PUSH2 0x2B66 JUMP JUMPDEST CALLER PUSH1 0x0 PUSH2 0xAAC DUP3 PUSH2 0x6C2 JUMP JUMPDEST SWAP1 POP PUSH1 0x1 DUP2 ISZERO ISZERO EQ PUSH2 0xAD0 JUMPI PUSH1 0x40 MLOAD PUSH3 0x461BCD PUSH1 0xE5 SHL DUP2 MSTORE PUSH1 0x4 ADD PUSH2 0x629 SWAP1 PUSH2 0x29F4 JUMP JUMPDEST PUSH8 0xDE0B6B3A7640000 CALLVALUE GT ISZERO PUSH2 0xAF8 JUMPI PUSH1 0x40 MLOAD PUSH3 0x461BCD PUSH1 0xE5 SHL DUP2 MSTORE PUSH1 0x4 ADD PUSH2 0x629 SWAP1 PUSH2 0x29A6 JUMP JUMPDEST PUSH1 0x0 SLOAD PUSH1 0x1 PUSH1 0x1 PUSH1 0xA0 SHL SUB AND PUSH2 0xB0E DUP2 CALLVALUE PUSH2 0x9C6 JUMP JUMPDEST PUSH1 0x0 SLOAD PUSH1 0x40 MLOAD PUSH4 0x1623B94F PUSH1 0xE3 SHL DUP2 MSTORE PUSH1 0x1 PUSH1 0x1 PUSH1 0xA0 SHL SUB SWAP1 SWAP2 AND SWAP1 PUSH4 0xB11DCA78 SWAP1 PUSH2 0xB46 SWAP1 CALLER SWAP1 DUP11 SWAP1 CALLVALUE SWAP1 DUP14 SWAP1 DUP13 SWAP1 PUSH1 0x4 ADD PUSH2 0x2760 JUMP JUMPDEST PUSH1 0x0 PUSH1 0x40 MLOAD DUP1 DUP4 SUB DUP2 PUSH1 0x0 DUP8 DUP1 EXTCODESIZE ISZERO DUP1 ISZERO PUSH2 0xB60 JUMPI PUSH1 0x0 DUP1 REVERT JUMPDEST POP GAS CALL ISZERO DUP1 ISZERO PUSH2 0xB74 JUMPI RETURNDATASIZE PUSH1 0x0 DUP1 RETURNDATACOPY RETURNDATASIZE PUSH1 0x0 REVERT JUMPDEST POP POP POP POP PUSH32 0x6041C986C57E8B39C3B9FF45D06D1825C694D01FFAC018C2FE2B2BA8E28E32B1 CALLER DUP9 DUP9 CALLVALUE PUSH1 0x40 MLOAD PUSH2 0xBAD SWAP5 SWAP4 SWAP3 SWAP2 SWAP1 PUSH2 0x26EF JUMP JUMPDEST PUSH1 0x40 MLOAD DUP1 SWAP2 SUB SWAP1 LOG1 POP POP POP POP POP POP POP JUMP JUMPDEST PUSH1 0x60 DUP1 PUSH1 0x60 PUSH1 0x0 PUSH2 0xBCD PUSH2 0x1837 JUMP JUMPDEST SWAP1 POP PUSH1 0x1 DUP2 ISZERO ISZERO EQ PUSH2 0xBF1 JUMPI PUSH1 0x40 MLOAD PUSH3 0x461BCD PUSH1 0xE5 SHL DUP2 MSTORE PUSH1 0x4 ADD PUSH2 0x629 SWAP1 PUSH2 0x2B66 JUMP JUMPDEST PUSH1 0x0 DUP1 PUSH1 0x0 SWAP1 SLOAD SWAP1 PUSH2 0x100 EXP SWAP1 DIV PUSH1 0x1 PUSH1 0x1 PUSH1 0xA0 SHL SUB AND PUSH1 0x1 PUSH1 0x1 PUSH1 0xA0 SHL SUB AND PUSH4 0x341A6CE6 PUSH1 0x40 MLOAD DUP2 PUSH4 0xFFFFFFFF AND PUSH1 0xE0 SHL DUP2 MSTORE PUSH1 0x4 ADD PUSH1 0x0 PUSH1 0x40 MLOAD DUP1 DUP4 SUB DUP2 DUP7 DUP1 EXTCODESIZE ISZERO DUP1 ISZERO PUSH2 0xC40 JUMPI PUSH1 0x0 DUP1 REVERT JUMPDEST POP GAS STATICCALL ISZERO DUP1 ISZERO PUSH2 0xC54 JUMPI RETURNDATASIZE PUSH1 0x0 DUP1 RETURNDATACOPY RETURNDATASIZE PUSH1 0x0 REVERT JUMPDEST POP POP POP POP PUSH1 0x40 MLOAD RETURNDATASIZE PUSH1 0x0 DUP3 RETURNDATACOPY PUSH1 0x1F RETURNDATASIZE SWAP1 DUP2 ADD PUSH1 0x1F NOT AND DUP3 ADD PUSH1 0x40 MSTORE PUSH2 0xC7C SWAP2 SWAP1 DUP2 ADD SWAP1 PUSH2 0x244F JUMP JUMPDEST SWAP1 POP PUSH1 0x0 JUMPDEST DUP2 MLOAD DUP2 PUSH1 0xFF AND LT ISZERO PUSH2 0xD9E JUMPI PUSH1 0x0 DUP1 PUSH1 0x0 PUSH2 0xCC5 DUP6 DUP6 PUSH1 0xFF AND DUP2 MLOAD DUP2 LT PUSH2 0xCB8 JUMPI PUSH4 0x4E487B71 PUSH1 0xE0 SHL PUSH1 0x0 MSTORE PUSH1 0x32 PUSH1 0x4 MSTORE PUSH1 0x24 PUSH1 0x0 REVERT JUMPDEST PUSH1 0x20 MUL PUSH1 0x20 ADD ADD MLOAD PUSH2 0x74A JUMP JUMPDEST PUSH1 0x6 DUP1 SLOAD PUSH1 0x1 DUP1 DUP3 ADD SWAP1 SWAP3 SSTORE PUSH32 0xF652222313E28459528D920B65115C16C04F3EFC82AAEDC97BE59F3F377C0D3F ADD DUP1 SLOAD PUSH1 0x1 PUSH1 0x1 PUSH1 0xA0 SHL SUB NOT AND PUSH1 0x1 PUSH1 0x1 PUSH1 0xA0 SHL SUB DUP7 AND OR SWAP1 SSTORE PUSH1 0x7 DUP1 SLOAD SWAP2 DUP3 ADD DUP2 SSTORE PUSH1 0x0 MSTORE DUP3 MLOAD SWAP4 SWAP7 POP SWAP2 SWAP5 POP SWAP3 POP PUSH2 0xD55 SWAP2 PUSH32 0xA66CC928B5EDB82AF9BD49922954155AB7B0942694BEA4CE44661D9A8736C688 SWAP1 SWAP2 ADD SWAP1 PUSH1 0x20 DUP6 ADD SWAP1 PUSH2 0x1FEF JUMP JUMPDEST POP PUSH1 0x8 DUP1 SLOAD PUSH1 0x1 DUP2 ADD DUP3 SSTORE PUSH1 0x0 SWAP2 SWAP1 SWAP2 MSTORE PUSH32 0xF3F7A9FE364FAAB93B216DA50A3214154F22A0A2B415B23A84C8169E8B636EE3 ADD SSTORE POP DUP2 SWAP1 POP PUSH2 0xD96 DUP2 PUSH2 0x2E60 JUMP JUMPDEST SWAP2 POP POP PUSH2 0xC81 JUMP JUMPDEST POP PUSH1 0x6 PUSH1 0x7 PUSH1 0x8 DUP3 DUP1 SLOAD DUP1 PUSH1 0x20 MUL PUSH1 0x20 ADD PUSH1 0x40 MLOAD SWAP1 DUP2 ADD PUSH1 0x40 MSTORE DUP1 SWAP3 SWAP2 SWAP1 DUP2 DUP2 MSTORE PUSH1 0x20 ADD DUP3 DUP1 SLOAD DUP1 ISZERO PUSH2 0xDFA JUMPI PUSH1 0x20 MUL DUP3 ADD SWAP2 SWAP1 PUSH1 0x0 MSTORE PUSH1 0x20 PUSH1 0x0 KECCAK256 SWAP1 JUMPDEST DUP2 SLOAD PUSH1 0x1 PUSH1 0x1 PUSH1 0xA0 SHL SUB AND DUP2 MSTORE PUSH1 0x1 SWAP1 SWAP2 ADD SWAP1 PUSH1 0x20 ADD DUP1 DUP4 GT PUSH2 0xDDC JUMPI JUMPDEST POP POP POP POP POP SWAP3 POP DUP2 DUP1 SLOAD DUP1 PUSH1 0x20 MUL PUSH1 0x20 ADD PUSH1 0x40 MLOAD SWAP1 DUP2 ADD PUSH1 0x40 MSTORE DUP1 SWAP3 SWAP2 SWAP1 DUP2 DUP2 MSTORE PUSH1 0x20 ADD PUSH1 0x0 SWAP1 JUMPDEST DUP3 DUP3 LT ISZERO PUSH2 0xECE JUMPI DUP4 DUP3 SWAP1 PUSH1 0x0 MSTORE PUSH1 0x20 PUSH1 0x0 KECCAK256 ADD DUP1 SLOAD PUSH2 0xE41 SWAP1 PUSH2 0x2E25 JUMP JUMPDEST DUP1 PUSH1 0x1F ADD PUSH1 0x20 DUP1 SWAP2 DIV MUL PUSH1 0x20 ADD PUSH1 0x40 MLOAD SWAP1 DUP2 ADD PUSH1 0x40 MSTORE DUP1 SWAP3 SWAP2 SWAP1 DUP2 DUP2 MSTORE PUSH1 0x20 ADD DUP3 DUP1 SLOAD PUSH2 0xE6D SWAP1 PUSH2 0x2E25 JUMP JUMPDEST DUP1 ISZERO PUSH2 0xEBA JUMPI DUP1 PUSH1 0x1F LT PUSH2 0xE8F JUMPI PUSH2 0x100 DUP1 DUP4 SLOAD DIV MUL DUP4 MSTORE SWAP2 PUSH1 0x20 ADD SWAP2 PUSH2 0xEBA JUMP JUMPDEST DUP3 ADD SWAP2 SWAP1 PUSH1 0x0 MSTORE PUSH1 0x20 PUSH1 0x0 KECCAK256 SWAP1 JUMPDEST DUP2 SLOAD DUP2 MSTORE SWAP1 PUSH1 0x1 ADD SWAP1 PUSH1 0x20 ADD DUP1 DUP4 GT PUSH2 0xE9D JUMPI DUP3 SWAP1 SUB PUSH1 0x1F AND DUP3 ADD SWAP2 JUMPDEST POP POP POP POP POP DUP2 MSTORE PUSH1 0x20 ADD SWAP1 PUSH1 0x1 ADD SWAP1 PUSH2 0xE22 JUMP JUMPDEST POP POP POP POP SWAP2 POP DUP1 DUP1 SLOAD DUP1 PUSH1 0x20 MUL PUSH1 0x20 ADD PUSH1 0x40 MLOAD SWAP1 DUP2 ADD PUSH1 0x40 MSTORE DUP1 SWAP3 SWAP2 SWAP1 DUP2 DUP2 MSTORE PUSH1 0x20 ADD DUP3 DUP1 SLOAD DUP1 ISZERO PUSH2 0xF1F JUMPI PUSH1 0x20 MUL DUP3 ADD SWAP2 SWAP1 PUSH1 0x0 MSTORE PUSH1 0x20 PUSH1 0x0 KECCAK256 SWAP1 JUMPDEST DUP2 SLOAD DUP2 MSTORE PUSH1 0x20 ADD SWAP1 PUSH1 0x1 ADD SWAP1 DUP1 DUP4 GT PUSH2 0xF0B JUMPI JUMPDEST POP POP POP POP POP SWAP1 POP SWAP5 POP SWAP5 POP SWAP5 POP POP POP SWAP1 SWAP2 SWAP3 JUMP JUMPDEST PUSH2 0xF3B PUSH2 0x2063 JUMP JUMPDEST CALLER PUSH1 0x0 SWAP1 DUP2 MSTORE PUSH1 0xA PUSH1 0x20 MSTORE PUSH1 0x40 SWAP1 KECCAK256 SLOAD PUSH1 0xFF AND PUSH2 0xF6A JUMPI PUSH1 0x40 MLOAD PUSH3 0x461BCD PUSH1 0xE5 SHL DUP2 MSTORE PUSH1 0x4 ADD PUSH2 0x629 SWAP1 PUSH2 0x2AF8 JUMP JUMPDEST CALLER PUSH1 0x0 SWAP1 DUP2 MSTORE PUSH1 0xA PUSH1 0x20 MSTORE PUSH1 0x40 DUP1 DUP3 KECCAK256 DUP2 MLOAD PUSH1 0x60 DUP2 ADD SWAP3 DUP4 SWAP1 MSTORE SWAP3 PUSH1 0x1 SWAP1 SWAP2 ADD SWAP2 PUSH1 0x3 SWAP2 DUP4 SWAP1 DUP6 JUMPDEST DUP3 SLOAD PUSH2 0x100 DUP4 SWAP1 EXP SWAP1 DIV PUSH1 0xFF AND DUP2 MSTORE PUSH1 0x20 PUSH1 0x1 SWAP3 DUP4 ADD DUP2 DUP2 DIV SWAP5 DUP6 ADD SWAP5 SWAP1 SWAP4 SUB SWAP1 SWAP3 MUL SWAP2 ADD DUP1 DUP5 GT PUSH2 0xF92 JUMPI SWAP1 POP POP POP POP POP POP SWAP1 POP SWAP1 JUMP JUMPDEST PUSH8 0xDE0B6B3A7640000 DUP2 JUMP JUMPDEST PUSH1 0x0 PUSH2 0xFE0 PUSH2 0x1837 JUMP JUMPDEST SWAP1 POP PUSH1 0x1 DUP2 ISZERO ISZERO EQ PUSH2 0x1004 JUMPI PUSH1 0x40 MLOAD PUSH3 0x461BCD PUSH1 0xE5 SHL DUP2 MSTORE PUSH1 0x4 ADD PUSH2 0x629 SWAP1 PUSH2 0x2B66 JUMP JUMPDEST CALLER PUSH1 0x0 PUSH2 0x1010 DUP3 PUSH2 0x6C2 JUMP JUMPDEST SWAP1 POP PUSH1 0x1 DUP2 ISZERO ISZERO EQ PUSH2 0x1034 JUMPI PUSH1 0x40 MLOAD PUSH3 0x461BCD PUSH1 0xE5 SHL DUP2 MSTORE PUSH1 0x4 ADD PUSH2 0x629 SWAP1 PUSH2 0x29F4 JUMP JUMPDEST PUSH1 0x0 SLOAD PUSH1 0x40 MLOAD PUSH4 0x1239C271 PUSH1 0xE0 SHL DUP2 MSTORE PUSH1 0x1 PUSH1 0x1 PUSH1 0xA0 SHL SUB SWAP1 SWAP2 AND SWAP1 PUSH4 0x1239C271 SWAP1 PUSH2 0x1064 SWAP1 CALLER SWAP1 PUSH1 0x4 ADD PUSH2 0x26DB JUMP JUMPDEST PUSH1 0x0 PUSH1 0x40 MLOAD DUP1 DUP4 SUB DUP2 PUSH1 0x0 DUP8 DUP1 EXTCODESIZE ISZERO DUP1 ISZERO PUSH2 0x107E JUMPI PUSH1 0x0 DUP1 REVERT JUMPDEST POP GAS CALL ISZERO DUP1 ISZERO PUSH2 0x1092 JUMPI RETURNDATASIZE PUSH1 0x0 DUP1 RETURNDATACOPY RETURNDATASIZE PUSH1 0x0 REVERT JUMPDEST POP POP POP POP POP POP POP JUMP JUMPDEST PUSH1 0x0 PUSH2 0x10A5 PUSH2 0x1837 JUMP JUMPDEST SWAP1 POP PUSH1 0x1 DUP2 ISZERO ISZERO EQ PUSH2 0x10C9 JUMPI PUSH1 0x40 MLOAD PUSH3 0x461BCD PUSH1 0xE5 SHL DUP2 MSTORE PUSH1 0x4 ADD PUSH2 0x629 SWAP1 PUSH2 0x2B66 JUMP JUMPDEST DUP2 PUSH1 0x0 PUSH2 0x10D5 DUP3 PUSH2 0x12C0 JUMP JUMPDEST SWAP1 POP DUP1 ISZERO PUSH2 0x10F5 JUMPI PUSH1 0x40 MLOAD PUSH3 0x461BCD PUSH1 0xE5 SHL DUP2 MSTORE PUSH1 0x4 ADD PUSH2 0x629 SWAP1 PUSH2 0x2B2F JUMP JUMPDEST DUP4 PUSH1 0x0 PUSH2 0x1101 DUP3 PUSH2 0x6C2 JUMP JUMPDEST SWAP1 POP DUP1 ISZERO PUSH2 0x1121 JUMPI PUSH1 0x40 MLOAD PUSH3 0x461BCD PUSH1 0xE5 SHL DUP2 MSTORE PUSH1 0x4 ADD PUSH2 0x629 SWAP1 PUSH2 0x2C5C JUMP JUMPDEST PUSH1 0x0 PUSH2 0x112C DUP8 PUSH2 0x6C2 JUMP JUMPDEST SWAP1 POP DUP1 ISZERO PUSH2 0x114C JUMPI PUSH1 0x40 MLOAD PUSH3 0x461BCD PUSH1 0xE5 SHL DUP2 MSTORE PUSH1 0x4 ADD PUSH2 0x629 SWAP1 PUSH2 0x291B JUMP JUMPDEST PUSH1 0x0 SLOAD PUSH1 0x40 MLOAD PUSH4 0x253055A5 PUSH1 0xE2 SHL DUP2 MSTORE PUSH1 0x1 PUSH1 0x1 PUSH1 0xA0 SHL SUB SWAP1 SWAP2 AND SWAP1 PUSH4 0x94C15694 SWAP1 PUSH2 0x117C SWAP1 DUP11 SWAP1 PUSH1 0x4 ADD PUSH2 0x26DB JUMP JUMPDEST PUSH1 0x0 PUSH1 0x40 MLOAD DUP1 DUP4 SUB DUP2 PUSH1 0x0 DUP8 DUP1 EXTCODESIZE ISZERO DUP1 ISZERO PUSH2 0x1196 JUMPI PUSH1 0x0 DUP1 REVERT JUMPDEST POP GAS CALL ISZERO DUP1 ISZERO PUSH2 0x11AA JUMPI RETURNDATASIZE PUSH1 0x0 DUP1 RETURNDATACOPY RETURNDATASIZE PUSH1 0x0 REVERT JUMPDEST POP POP POP POP PUSH32 0xA83117346CCA49BD2C97ACD5B237A40A23CEA37CDFCED29B1A65142BFE2C5BAF DUP8 PUSH1 0x40 MLOAD PUSH2 0xBAD SWAP2 SWAP1 PUSH2 0x26DB JUMP JUMPDEST PUSH1 0x0 PUSH2 0x11E7 PUSH2 0x1837 JUMP JUMPDEST SWAP1 POP PUSH1 0x1 DUP2 ISZERO ISZERO EQ PUSH2 0x120B JUMPI PUSH1 0x40 MLOAD PUSH3 0x461BCD PUSH1 0xE5 SHL DUP2 MSTORE PUSH1 0x4 ADD PUSH2 0x629 SWAP1 PUSH2 0x2B66 JUMP JUMPDEST PUSH1 0x2 SLOAD PUSH1 0x1 PUSH1 0x1 PUSH1 0xA0 SHL SUB AND CALLER EQ PUSH2 0x1235 JUMPI PUSH1 0x40 MLOAD PUSH3 0x461BCD PUSH1 0xE5 SHL DUP2 MSTORE PUSH1 0x4 ADD PUSH2 0x629 SWAP1 PUSH2 0x2BAB JUMP JUMPDEST PUSH1 0x0 SLOAD PUSH1 0x40 MLOAD PUSH4 0x3E95586F PUSH1 0xE1 SHL DUP2 MSTORE PUSH1 0x1 PUSH1 0x1 PUSH1 0xA0 SHL SUB SWAP1 SWAP2 AND SWAP1 PUSH4 0x7D2AB0DE SWAP1 PUSH2 0x1265 SWAP1 DUP6 SWAP1 PUSH1 0x4 ADD PUSH2 0x26DB JUMP JUMPDEST PUSH1 0x0 PUSH1 0x40 MLOAD DUP1 DUP4 SUB DUP2 PUSH1 0x0 DUP8 DUP1 EXTCODESIZE ISZERO DUP1 ISZERO PUSH2 0x127F JUMPI PUSH1 0x0 DUP1 REVERT JUMPDEST POP GAS CALL ISZERO DUP1 ISZERO PUSH2 0x1293 JUMPI RETURNDATASIZE PUSH1 0x0 DUP1 RETURNDATACOPY RETURNDATASIZE PUSH1 0x0 REVERT JUMPDEST POP POP POP POP PUSH1 0x0 DUP1 MLOAD PUSH1 0x20 PUSH2 0x2EFA DUP4 CODECOPY DUP2 MLOAD SWAP2 MSTORE DUP3 PUSH1 0x40 MLOAD PUSH2 0x12B4 SWAP2 SWAP1 PUSH2 0x26DB JUMP JUMPDEST PUSH1 0x40 MLOAD DUP1 SWAP2 SUB SWAP1 LOG1 POP POP JUMP JUMPDEST PUSH1 0x0 DUP1 SLOAD PUSH1 0x40 MLOAD PUSH4 0x2B84C27B PUSH1 0xE2 SHL DUP2 MSTORE PUSH1 0x1 PUSH1 0x1 PUSH1 0xA0 SHL SUB SWAP1 SWAP2 AND SWAP1 PUSH4 0xAE1309EC SWAP1 PUSH2 0x6F2 SWAP1 DUP6 SWAP1 PUSH1 0x4 ADD PUSH2 0x26DB JUMP JUMPDEST PUSH1 0x0 PUSH2 0x12FB PUSH2 0x1837 JUMP JUMPDEST SWAP1 POP PUSH1 0x1 DUP2 ISZERO ISZERO EQ PUSH2 0x131F JUMPI PUSH1 0x40 MLOAD PUSH3 0x461BCD PUSH1 0xE5 SHL DUP2 MSTORE PUSH1 0x4 ADD PUSH2 0x629 SWAP1 PUSH2 0x2B66 JUMP JUMPDEST DUP2 PUSH1 0x0 PUSH2 0x132B DUP3 PUSH2 0x12C0 JUMP JUMPDEST SWAP1 POP DUP1 ISZERO PUSH2 0x134B JUMPI PUSH1 0x40 MLOAD PUSH3 0x461BCD PUSH1 0xE5 SHL DUP2 MSTORE PUSH1 0x4 ADD PUSH2 0x629 SWAP1 PUSH2 0x2B2F JUMP JUMPDEST DUP4 PUSH1 0x0 PUSH2 0x1357 DUP3 PUSH2 0x6C2 JUMP JUMPDEST SWAP1 POP DUP1 ISZERO PUSH2 0x1377 JUMPI PUSH1 0x40 MLOAD PUSH3 0x461BCD PUSH1 0xE5 SHL DUP2 MSTORE PUSH1 0x4 ADD PUSH2 0x629 SWAP1 PUSH2 0x2C5C JUMP JUMPDEST PUSH1 0x0 DUP1 PUSH1 0x0 SWAP1 SLOAD SWAP1 PUSH2 0x100 EXP SWAP1 DIV PUSH1 0x1 PUSH1 0x1 PUSH1 0xA0 SHL SUB AND PUSH1 0x1 PUSH1 0x1 PUSH1 0xA0 SHL SUB AND PUSH4 0x7AB21CDC PUSH1 0x40 MLOAD DUP2 PUSH4 0xFFFFFFFF AND PUSH1 0xE0 SHL DUP2 MSTORE PUSH1 0x4 ADD PUSH1 0x20 PUSH1 0x40 MLOAD DUP1 DUP4 SUB DUP2 DUP7 DUP1 EXTCODESIZE ISZERO DUP1 ISZERO PUSH2 0x13C6 JUMPI PUSH1 0x0 DUP1 REVERT JUMPDEST POP GAS STATICCALL ISZERO DUP1 ISZERO PUSH2 0x13DA JUMPI RETURNDATASIZE PUSH1 0x0 DUP1 RETURNDATACOPY RETURNDATASIZE PUSH1 0x0 REVERT JUMPDEST POP POP POP POP PUSH1 0x40 MLOAD RETURNDATASIZE PUSH1 0x1F NOT PUSH1 0x1F DUP3 ADD AND DUP3 ADD DUP1 PUSH1 0x40 MSTORE POP DUP2 ADD SWAP1 PUSH2 0x13FE SWAP2 SWAP1 PUSH2 0x252F JUMP JUMPDEST SWAP1 POP PUSH1 0x4 DUP2 LT ISZERO PUSH2 0x14BA JUMPI PUSH2 0x1412 CALLER PUSH2 0x1B00 JUMP JUMPDEST PUSH2 0x142E JUMPI PUSH1 0x40 MLOAD PUSH3 0x461BCD PUSH1 0xE5 SHL DUP2 MSTORE PUSH1 0x4 ADD PUSH2 0x629 SWAP1 PUSH2 0x2A2B JUMP JUMPDEST PUSH1 0x0 SLOAD PUSH1 0x40 MLOAD PUSH4 0xBDFD9877 PUSH1 0xE0 SHL DUP2 MSTORE PUSH1 0x1 PUSH1 0x1 PUSH1 0xA0 SHL SUB SWAP1 SWAP2 AND SWAP1 PUSH4 0xBDFD9877 SWAP1 PUSH2 0x145E SWAP1 DUP11 SWAP1 PUSH1 0x4 ADD PUSH2 0x26DB JUMP JUMPDEST PUSH1 0x0 PUSH1 0x40 MLOAD DUP1 DUP4 SUB DUP2 PUSH1 0x0 DUP8 DUP1 EXTCODESIZE ISZERO DUP1 ISZERO PUSH2 0x1478 JUMPI PUSH1 0x0 DUP1 REVERT JUMPDEST POP GAS CALL ISZERO DUP1 ISZERO PUSH2 0x148C JUMPI RETURNDATASIZE PUSH1 0x0 DUP1 RETURNDATACOPY RETURNDATASIZE PUSH1 0x0 REVERT JUMPDEST POP POP POP POP PUSH1 0x0 DUP1 MLOAD PUSH1 0x20 PUSH2 0x2EFA DUP4 CODECOPY DUP2 MLOAD SWAP2 MSTORE DUP8 PUSH1 0x40 MLOAD PUSH2 0x14AD SWAP2 SWAP1 PUSH2 0x26DB JUMP JUMPDEST PUSH1 0x40 MLOAD DUP1 SWAP2 SUB SWAP1 LOG1 PUSH2 0x1092 JUMP JUMPDEST CALLER PUSH1 0x0 SWAP1 DUP2 MSTORE PUSH1 0x4 PUSH1 0x20 SWAP1 DUP2 MSTORE PUSH1 0x40 DUP1 DUP4 KECCAK256 PUSH1 0x1 PUSH1 0x1 PUSH1 0xA0 SHL SUB DUP12 AND DUP5 MSTORE SWAP1 SWAP2 MSTORE SWAP1 KECCAK256 SLOAD PUSH1 0xFF AND PUSH2 0x1636 JUMPI CALLER PUSH1 0x0 SWAP1 DUP2 MSTORE PUSH1 0x4 PUSH1 0x20 SWAP1 DUP2 MSTORE PUSH1 0x40 DUP1 DUP4 KECCAK256 PUSH1 0x1 PUSH1 0x1 PUSH1 0xA0 SHL SUB DUP12 AND DUP5 MSTORE DUP3 MSTORE DUP1 DUP4 KECCAK256 DUP1 SLOAD PUSH1 0xFF NOT AND PUSH1 0x1 SWAP1 DUP2 OR SWAP1 SWAP2 SSTORE PUSH1 0x5 SWAP1 SWAP3 MSTORE DUP3 KECCAK256 DUP1 SLOAD SWAP2 SWAP3 SWAP1 SWAP2 PUSH2 0x152E SWAP1 DUP5 SWAP1 PUSH2 0x2DB6 JUMP JUMPDEST SWAP1 SWAP2 SSTORE POP PUSH2 0x153F SWAP1 POP PUSH1 0x2 DUP3 PUSH2 0x2DCE JUMP JUMPDEST PUSH1 0x1 PUSH1 0x1 PUSH1 0xA0 SHL SUB DUP9 AND PUSH1 0x0 SWAP1 DUP2 MSTORE PUSH1 0x5 PUSH1 0x20 MSTORE PUSH1 0x40 SWAP1 KECCAK256 SLOAD LT PUSH2 0x160A JUMPI PUSH1 0x0 SLOAD PUSH1 0x40 MLOAD PUSH4 0xBDFD9877 PUSH1 0xE0 SHL DUP2 MSTORE PUSH1 0x1 PUSH1 0x1 PUSH1 0xA0 SHL SUB SWAP1 SWAP2 AND SWAP1 PUSH4 0xBDFD9877 SWAP1 PUSH2 0x158D SWAP1 DUP11 SWAP1 PUSH1 0x4 ADD PUSH2 0x26DB JUMP JUMPDEST PUSH1 0x0 PUSH1 0x40 MLOAD DUP1 DUP4 SUB DUP2 PUSH1 0x0 DUP8 DUP1 EXTCODESIZE ISZERO DUP1 ISZERO PUSH2 0x15A7 JUMPI PUSH1 0x0 DUP1 REVERT JUMPDEST POP GAS CALL ISZERO DUP1 ISZERO PUSH2 0x15BB JUMPI RETURNDATASIZE PUSH1 0x0 DUP1 RETURNDATACOPY RETURNDATASIZE PUSH1 0x0 REVERT JUMPDEST POP POP POP PUSH1 0x1 PUSH1 0x1 PUSH1 0xA0 SHL SUB DUP9 AND PUSH1 0x0 SWAP1 DUP2 MSTORE PUSH1 0x1 PUSH1 0x20 MSTORE PUSH1 0x40 SWAP1 DUP2 SWAP1 KECCAK256 DUP1 SLOAD PUSH1 0xFF NOT AND SWAP1 SSTORE MLOAD PUSH1 0x0 DUP1 MLOAD PUSH1 0x20 PUSH2 0x2EFA DUP4 CODECOPY DUP2 MLOAD SWAP2 MSTORE SWAP2 POP PUSH2 0x15FD SWAP1 DUP10 SWAP1 PUSH2 0x26DB JUMP JUMPDEST PUSH1 0x40 MLOAD DUP1 SWAP2 SUB SWAP1 LOG1 PUSH2 0x1631 JUMP JUMPDEST PUSH1 0x1 PUSH1 0x1 PUSH1 0xA0 SHL SUB DUP8 AND PUSH1 0x0 SWAP1 DUP2 MSTORE PUSH1 0x1 PUSH1 0x20 DUP2 SWAP1 MSTORE PUSH1 0x40 SWAP1 SWAP2 KECCAK256 DUP1 SLOAD PUSH1 0xFF NOT AND SWAP1 SWAP2 OR SWAP1 SSTORE JUMPDEST PUSH2 0x1092 JUMP JUMPDEST PUSH1 0x1 PUSH1 0x1 PUSH1 0xA0 SHL SUB DUP8 AND PUSH1 0x0 SWAP1 DUP2 MSTORE PUSH1 0x1 PUSH1 0x20 DUP2 SWAP1 MSTORE PUSH1 0x40 SWAP1 SWAP2 KECCAK256 DUP1 SLOAD PUSH1 0xFF NOT AND SWAP1 SWAP2 OR SWAP1 SSTORE POP POP POP POP POP POP POP JUMP JUMPDEST CALLER PUSH1 0x0 SWAP1 DUP2 MSTORE PUSH1 0xA PUSH1 0x20 MSTORE PUSH1 0x40 SWAP1 KECCAK256 PUSH1 0x1 ADD SLOAD PUSH1 0xFF DUP7 DUP2 AND SWAP2 AND EQ DUP1 PUSH2 0x16A7 JUMPI POP CALLER PUSH1 0x0 SWAP1 DUP2 MSTORE PUSH1 0xA PUSH1 0x20 MSTORE PUSH1 0x40 SWAP1 KECCAK256 PUSH1 0x1 ADD SLOAD PUSH1 0xFF DUP7 DUP2 AND PUSH2 0x100 SWAP1 SWAP3 DIV AND EQ JUMPDEST DUP1 PUSH2 0x16CF JUMPI POP CALLER PUSH1 0x0 SWAP1 DUP2 MSTORE PUSH1 0xA PUSH1 0x20 MSTORE PUSH1 0x40 SWAP1 KECCAK256 PUSH1 0x1 ADD SLOAD PUSH1 0xFF DUP7 DUP2 AND PUSH3 0x10000 SWAP1 SWAP3 DIV AND EQ JUMPDEST PUSH2 0x16EB JUMPI PUSH1 0x40 MLOAD PUSH3 0x461BCD PUSH1 0xE5 SHL DUP2 MSTORE PUSH1 0x4 ADD PUSH2 0x629 SWAP1 PUSH2 0x2C19 JUMP JUMPDEST PUSH1 0x0 DUP6 DUP6 DUP6 DUP6 PUSH1 0x40 MLOAD PUSH1 0x20 ADD PUSH2 0x1704 SWAP5 SWAP4 SWAP3 SWAP2 SWAP1 PUSH2 0x268C JUMP JUMPDEST PUSH1 0x40 DUP1 MLOAD DUP1 DUP4 SUB PUSH1 0x1F NOT ADD DUP2 MSTORE SWAP2 DUP2 MSTORE DUP2 MLOAD PUSH1 0x20 SWAP3 DUP4 ADD KECCAK256 PUSH1 0x0 DUP2 DUP2 MSTORE PUSH1 0xC SWAP1 SWAP4 MSTORE SWAP2 KECCAK256 SLOAD SWAP1 SWAP2 POP PUSH1 0x1 PUSH1 0xA0 SHL SWAP1 DIV PUSH1 0xFF AND PUSH2 0x1752 JUMPI PUSH1 0x40 MLOAD PUSH3 0x461BCD PUSH1 0xE5 SHL DUP2 MSTORE PUSH1 0x4 ADD PUSH2 0x629 SWAP1 PUSH2 0x28CC JUMP JUMPDEST PUSH1 0x0 DUP2 DUP2 MSTORE PUSH1 0xB PUSH1 0x20 SWAP1 DUP2 MSTORE PUSH1 0x40 DUP1 DUP4 KECCAK256 PUSH1 0xFF DUP7 AND DUP5 MSTORE DUP3 MSTORE DUP1 DUP4 KECCAK256 DUP1 SLOAD PUSH1 0x1 DUP2 ADD DUP3 SSTORE SWAP1 DUP5 MSTORE SWAP2 SWAP1 SWAP3 KECCAK256 ADD DUP1 SLOAD PUSH1 0x1 PUSH1 0x1 PUSH1 0xA0 SHL SUB NOT AND CALLER OR SWAP1 SSTORE MLOAD PUSH32 0x43C853095C2752648493C88B4BAAC4D580D2594FFB00C6F1D4242D844514F783 SWAP1 PUSH2 0x17C2 SWAP1 DUP8 SWAP1 DUP8 SWAP1 DUP8 SWAP1 DUP8 SWAP1 PUSH2 0x279E JUMP JUMPDEST PUSH1 0x40 MLOAD DUP1 SWAP2 SUB SWAP1 LOG1 PUSH1 0x0 DUP2 DUP2 MSTORE PUSH1 0xB PUSH1 0x20 SWAP1 DUP2 MSTORE PUSH1 0x40 DUP1 DUP4 KECCAK256 PUSH1 0xFF DUP7 AND DUP5 MSTORE SWAP1 SWAP2 MSTORE SWAP1 KECCAK256 SLOAD PUSH1 0x3 GT PUSH2 0x6BA JUMPI PUSH32 0xE23F5229DE535C091E3B7BEC2665F5D698192D3B31393066E8987B7A05076B6C DUP6 DUP6 DUP6 DUP6 PUSH1 0x40 MLOAD PUSH2 0x1823 SWAP5 SWAP4 SWAP3 SWAP2 SWAP1 PUSH2 0x279E JUMP JUMPDEST PUSH1 0x40 MLOAD DUP1 SWAP2 SUB SWAP1 LOG1 PUSH2 0x6BA DUP6 DUP6 DUP6 DUP6 PUSH2 0x1A88 JUMP JUMPDEST PUSH1 0x0 DUP1 PUSH1 0x0 SWAP1 SLOAD SWAP1 PUSH2 0x100 EXP SWAP1 DIV PUSH1 0x1 PUSH1 0x1 PUSH1 0xA0 SHL SUB AND PUSH1 0x1 PUSH1 0x1 PUSH1 0xA0 SHL SUB AND PUSH4 0xCD905DFF PUSH1 0x40 MLOAD DUP2 PUSH4 0xFFFFFFFF AND PUSH1 0xE0 SHL DUP2 MSTORE PUSH1 0x4 ADD PUSH1 0x20 PUSH1 0x40 MLOAD DUP1 DUP4 SUB DUP2 DUP7 DUP1 EXTCODESIZE ISZERO DUP1 ISZERO PUSH2 0x1886 JUMPI PUSH1 0x0 DUP1 REVERT JUMPDEST POP GAS STATICCALL ISZERO DUP1 ISZERO PUSH2 0x189A JUMPI RETURNDATASIZE PUSH1 0x0 DUP1 RETURNDATACOPY RETURNDATASIZE PUSH1 0x0 REVERT JUMPDEST POP POP POP POP PUSH1 0x40 MLOAD RETURNDATASIZE PUSH1 0x1F NOT PUSH1 0x1F DUP3 ADD AND DUP3 ADD DUP1 PUSH1 0x40 MSTORE POP DUP2 ADD SWAP1 PUSH2 0x18BE SWAP2 SWAP1 PUSH2 0x24FB JUMP JUMPDEST SWAP1 POP SWAP1 JUMP JUMPDEST PUSH1 0x0 PUSH2 0x18CD PUSH2 0x1837 JUMP JUMPDEST SWAP1 POP PUSH1 0x1 DUP2 ISZERO ISZERO EQ PUSH2 0x18F1 JUMPI PUSH1 0x40 MLOAD PUSH3 0x461BCD PUSH1 0xE5 SHL DUP2 MSTORE PUSH1 0x4 ADD PUSH2 0x629 SWAP1 PUSH2 0x2B66 JUMP JUMPDEST CALLER PUSH1 0x0 PUSH2 0x18FD DUP3 PUSH2 0x12C0 JUMP JUMPDEST SWAP1 POP PUSH1 0x1 DUP2 ISZERO ISZERO EQ PUSH2 0x1921 JUMPI PUSH1 0x40 MLOAD PUSH3 0x461BCD PUSH1 0xE5 SHL DUP2 MSTORE PUSH1 0x4 ADD PUSH2 0x629 SWAP1 PUSH2 0x2CDE JUMP JUMPDEST PUSH2 0x192A CALLER PUSH2 0x1B00 JUMP JUMPDEST ISZERO PUSH2 0x1947 JUMPI PUSH1 0x40 MLOAD PUSH3 0x461BCD PUSH1 0xE5 SHL DUP2 MSTORE PUSH1 0x4 ADD PUSH2 0x629 SWAP1 PUSH2 0x2AC1 JUMP JUMPDEST PUSH8 0x8AC7230489E80000 CALLVALUE LT ISZERO PUSH2 0x196F JUMPI PUSH1 0x40 MLOAD PUSH3 0x461BCD PUSH1 0xE5 SHL DUP2 MSTORE PUSH1 0x4 ADD PUSH2 0x629 SWAP1 PUSH2 0x2C93 JUMP JUMPDEST PUSH1 0x0 DUP1 SLOAD PUSH1 0x1 PUSH1 0x1 PUSH1 0xA0 SHL SUB AND SWAP1 PUSH2 0x198F PUSH8 0x8AC7230489E80000 CALLVALUE PUSH2 0x2DE2 JUMP JUMPDEST SWAP1 POP DUP1 ISZERO PUSH2 0x19B8 JUMPI PUSH2 0x19A9 DUP3 PUSH8 0x8AC7230489E80000 PUSH2 0x9C6 JUMP JUMPDEST PUSH2 0x19B3 CALLER DUP3 PUSH2 0x9C6 JUMP JUMPDEST PUSH2 0x19CA JUMP JUMPDEST PUSH2 0x19CA DUP3 PUSH8 0x8AC7230489E80000 PUSH2 0x9C6 JUMP JUMPDEST PUSH1 0x0 SLOAD PUSH1 0x40 MLOAD PUSH4 0x7976D423 PUSH1 0xE1 SHL DUP2 MSTORE PUSH1 0x1 PUSH1 0x1 PUSH1 0xA0 SHL SUB SWAP1 SWAP2 AND SWAP1 PUSH4 0xF2EDA846 SWAP1 PUSH2 0x19FA SWAP1 CALLER SWAP1 PUSH1 0x4 ADD PUSH2 0x26DB JUMP JUMPDEST PUSH1 0x0 PUSH1 0x40 MLOAD DUP1 DUP4 SUB DUP2 PUSH1 0x0 DUP8 DUP1 EXTCODESIZE ISZERO DUP1 ISZERO PUSH2 0x1A14 JUMPI PUSH1 0x0 DUP1 REVERT JUMPDEST POP GAS CALL ISZERO DUP1 ISZERO PUSH2 0x1A28 JUMPI RETURNDATASIZE PUSH1 0x0 DUP1 RETURNDATACOPY RETURNDATASIZE PUSH1 0x0 REVERT JUMPDEST POP POP POP POP PUSH32 0x206CC1C860F752D981F7DE81003368154D34B6ED91C6F5EA169E9EB5F1626F8B CALLER PUSH1 0x40 MLOAD PUSH2 0x1A5B SWAP2 SWAP1 PUSH2 0x26DB JUMP JUMPDEST PUSH1 0x40 MLOAD DUP1 SWAP2 SUB SWAP1 LOG1 POP POP POP POP POP JUMP JUMPDEST PUSH1 0x1 PUSH1 0x1 PUSH1 0xA0 SHL SUB AND PUSH1 0x0 SWAP1 DUP2 MSTORE PUSH1 0x1 PUSH1 0x20 MSTORE PUSH1 0x40 SWAP1 KECCAK256 SLOAD PUSH1 0xFF AND SWAP1 JUMP JUMPDEST PUSH1 0xFF DUP2 AND PUSH1 0x14 EQ ISZERO PUSH2 0x891 JUMPI PUSH1 0x0 SLOAD PUSH1 0x40 MLOAD PUSH4 0xC8820A7 PUSH1 0xE4 SHL DUP2 MSTORE PUSH1 0x1 PUSH1 0x1 PUSH1 0xA0 SHL SUB SWAP1 SWAP2 AND SWAP1 PUSH4 0xC8820A70 SWAP1 PUSH2 0x1AC8 SWAP1 DUP8 SWAP1 DUP8 SWAP1 DUP8 SWAP1 PUSH1 0x4 ADD PUSH2 0x272C JUMP JUMPDEST PUSH1 0x0 PUSH1 0x40 MLOAD DUP1 DUP4 SUB DUP2 PUSH1 0x0 DUP8 DUP1 EXTCODESIZE ISZERO DUP1 ISZERO PUSH2 0x1AE2 JUMPI PUSH1 0x0 DUP1 REVERT JUMPDEST POP GAS CALL ISZERO DUP1 ISZERO PUSH2 0x1AF6 JUMPI RETURNDATASIZE PUSH1 0x0 DUP1 RETURNDATACOPY RETURNDATASIZE PUSH1 0x0 REVERT JUMPDEST POP POP POP POP POP POP POP POP JUMP JUMPDEST PUSH1 0x0 DUP1 SLOAD PUSH1 0x40 MLOAD PUSH4 0x76AA84D3 PUSH1 0xE1 SHL DUP2 MSTORE PUSH1 0x1 PUSH1 0x1 PUSH1 0xA0 SHL SUB SWAP1 SWAP2 AND SWAP1 PUSH4 0xED5509A6 SWAP1 PUSH2 0x6F2 SWAP1 DUP6 SWAP1 PUSH1 0x4 ADD PUSH2 0x26DB JUMP JUMPDEST PUSH1 0x0 PUSH2 0x1B3C CALLER PUSH2 0x1E80 JUMP JUMPDEST SWAP1 POP PUSH1 0x0 DUP2 DUP6 DUP6 DUP6 PUSH1 0x40 MLOAD PUSH1 0x20 ADD PUSH2 0x1B57 SWAP5 SWAP4 SWAP3 SWAP2 SWAP1 PUSH2 0x268C JUMP JUMPDEST PUSH1 0x40 DUP1 MLOAD PUSH1 0x1F NOT DUP2 DUP5 SUB ADD DUP2 MSTORE DUP3 DUP3 MSTORE DUP1 MLOAD PUSH1 0x20 SWAP2 DUP3 ADD KECCAK256 DUP4 DUP4 ADD DUP4 MSTORE CALLER DUP5 MSTORE PUSH1 0x1 DUP5 DUP4 ADD SWAP1 DUP2 MSTORE PUSH1 0x0 DUP3 DUP2 MSTORE PUSH1 0xC SWAP1 SWAP4 MSTORE SWAP2 DUP4 SWAP1 KECCAK256 SWAP4 MLOAD DUP5 SLOAD SWAP3 MLOAD ISZERO ISZERO PUSH1 0x1 PUSH1 0xA0 SHL MUL PUSH1 0xFF PUSH1 0xA0 SHL NOT PUSH1 0x1 PUSH1 0x1 PUSH1 0xA0 SHL SUB SWAP3 SWAP1 SWAP3 AND PUSH1 0x1 PUSH1 0x1 PUSH1 0xA0 SHL SUB NOT SWAP1 SWAP5 AND SWAP4 SWAP1 SWAP4 OR AND SWAP2 SWAP1 SWAP2 OR SWAP1 SWAP3 SSTORE MLOAD SWAP1 SWAP2 POP PUSH32 0x3ED01F2C3FC24C6B329D931E35B03E390D23497D22B3F90E15B600343E93DF11 SWAP1 PUSH2 0x1A5B SWAP1 DUP5 SWAP1 DUP9 SWAP1 DUP9 SWAP1 DUP9 SWAP1 PUSH2 0x2D13 JUMP JUMPDEST PUSH1 0x0 SLOAD PUSH1 0x40 MLOAD PUSH4 0xBDFD9877 PUSH1 0xE0 SHL DUP2 MSTORE PUSH1 0x1 PUSH1 0x1 PUSH1 0xA0 SHL SUB SWAP1 SWAP2 AND SWAP1 PUSH4 0xBDFD9877 SWAP1 PUSH2 0x1C2C SWAP1 DUP5 SWAP1 PUSH1 0x4 ADD PUSH2 0x26DB JUMP JUMPDEST PUSH1 0x0 PUSH1 0x40 MLOAD DUP1 DUP4 SUB DUP2 PUSH1 0x0 DUP8 DUP1 EXTCODESIZE ISZERO DUP1 ISZERO PUSH2 0x1C46 JUMPI PUSH1 0x0 DUP1 REVERT JUMPDEST POP GAS CALL ISZERO DUP1 ISZERO PUSH2 0x1C5A JUMPI RETURNDATASIZE PUSH1 0x0 DUP1 RETURNDATACOPY RETURNDATASIZE PUSH1 0x0 REVERT JUMPDEST POP POP POP POP PUSH1 0x0 DUP1 MLOAD PUSH1 0x20 PUSH2 0x2EFA DUP4 CODECOPY DUP2 MLOAD SWAP2 MSTORE DUP2 PUSH1 0x40 MLOAD PUSH2 0x1C7B SWAP2 SWAP1 PUSH2 0x26DB JUMP JUMPDEST PUSH1 0x40 MLOAD DUP1 SWAP2 SUB SWAP1 LOG1 POP JUMP JUMPDEST PUSH1 0x0 SLOAD PUSH1 0x40 MLOAD PUSH4 0x253055A5 PUSH1 0xE2 SHL DUP2 MSTORE PUSH1 0x1 PUSH1 0x1 PUSH1 0xA0 SHL SUB SWAP1 SWAP2 AND SWAP1 PUSH4 0x94C15694 SWAP1 PUSH2 0x1CB6 SWAP1 DUP5 SWAP1 PUSH1 0x4 ADD PUSH2 0x26DB JUMP JUMPDEST PUSH1 0x0 PUSH1 0x40 MLOAD DUP1 DUP4 SUB DUP2 PUSH1 0x0 DUP8 DUP1 EXTCODESIZE ISZERO DUP1 ISZERO PUSH2 0x1CD0 JUMPI PUSH1 0x0 DUP1 REVERT JUMPDEST POP GAS CALL ISZERO DUP1 ISZERO PUSH2 0x1CE4 JUMPI RETURNDATASIZE PUSH1 0x0 DUP1 RETURNDATACOPY RETURNDATASIZE PUSH1 0x0 REVERT JUMPDEST POP POP POP POP PUSH32 0xA83117346CCA49BD2C97ACD5B237A40A23CEA37CDFCED29B1A65142BFE2C5BAF DUP2 PUSH1 0x40 MLOAD PUSH2 0x1C7B SWAP2 SWAP1 PUSH2 0x26DB JUMP JUMPDEST PUSH1 0x0 DUP1 SLOAD PUSH1 0x40 MLOAD PUSH4 0xF302FA7 PUSH1 0xE2 SHL DUP2 MSTORE PUSH1 0x1 PUSH1 0x1 PUSH1 0xA0 SHL SUB SWAP1 SWAP2 AND SWAP1 PUSH4 0x3CC0BE9C SWAP1 PUSH2 0x1D4C SWAP1 CALLER SWAP1 DUP8 SWAP1 DUP8 SWAP1 PUSH1 0x4 ADD PUSH2 0x272C JUMP JUMPDEST PUSH1 0x20 PUSH1 0x40 MLOAD DUP1 DUP4 SUB DUP2 PUSH1 0x0 DUP8 DUP1 EXTCODESIZE ISZERO DUP1 ISZERO PUSH2 0x1D66 JUMPI PUSH1 0x0 DUP1 REVERT JUMPDEST POP GAS CALL ISZERO DUP1 ISZERO PUSH2 0x1D7A JUMPI RETURNDATASIZE PUSH1 0x0 DUP1 RETURNDATACOPY RETURNDATASIZE PUSH1 0x0 REVERT JUMPDEST POP POP POP POP PUSH1 0x40 MLOAD RETURNDATASIZE PUSH1 0x1F NOT PUSH1 0x1F DUP3 ADD AND DUP3 ADD DUP1 PUSH1 0x40 MSTORE POP DUP2 ADD SWAP1 PUSH2 0x1D9E SWAP2 SWAP1 PUSH2 0x252F JUMP JUMPDEST SWAP1 POP PUSH32 0x240F434FA78AFDE6C6A83FF9B95D095DEB69BF0267F51FAA56A4FC6664E72854 CALLER DUP5 DUP5 PUSH1 0x40 MLOAD PUSH2 0x1DD3 SWAP4 SWAP3 SWAP2 SWAP1 PUSH2 0x272C JUMP JUMPDEST PUSH1 0x40 MLOAD DUP1 SWAP2 SUB SWAP1 LOG1 POP POP POP JUMP JUMPDEST PUSH2 0x1DE8 PUSH2 0x2063 JUMP JUMPDEST PUSH2 0x1DF0 PUSH2 0x2063 JUMP JUMPDEST PUSH2 0x1DF9 DUP4 PUSH2 0x1E80 JUMP JUMPDEST PUSH1 0xFF AND DUP1 DUP3 MSTORE PUSH1 0x20 DUP3 ADD MSTORE JUMPDEST DUP1 MLOAD PUSH1 0x20 DUP3 ADD MLOAD PUSH1 0xFF SWAP1 DUP2 AND SWAP2 AND EQ ISZERO PUSH2 0x1E2F JUMPI PUSH2 0x1E22 DUP4 PUSH2 0x1E80 JUMP JUMPDEST PUSH1 0xFF AND PUSH1 0x20 DUP3 ADD MSTORE PUSH2 0x1E05 JUMP JUMPDEST PUSH1 0x20 DUP2 ADD MLOAD PUSH1 0xFF AND PUSH1 0x40 DUP3 ADD MSTORE JUMPDEST DUP1 MLOAD PUSH1 0x40 DUP3 ADD MLOAD PUSH1 0xFF SWAP1 DUP2 AND SWAP2 AND EQ DUP1 PUSH2 0x1E65 JUMPI POP PUSH1 0x20 DUP2 ADD MLOAD PUSH1 0x40 DUP3 ADD MLOAD PUSH1 0xFF SWAP1 DUP2 AND SWAP2 AND EQ JUMPDEST ISZERO PUSH2 0x742 JUMPI PUSH2 0x1E73 DUP4 PUSH2 0x1E80 JUMP JUMPDEST PUSH1 0xFF AND PUSH1 0x40 DUP3 ADD MSTORE PUSH2 0x1E3D JUMP JUMPDEST PUSH1 0x9 DUP1 SLOAD PUSH1 0x0 SWAP2 PUSH1 0xA SWAP2 DUP4 SWAP2 DUP4 SWAP2 PUSH1 0xFF AND SWAP1 DUP4 PUSH2 0x1E9C DUP4 PUSH2 0x2E60 JUMP JUMPDEST SWAP2 SWAP1 PUSH2 0x100 EXP DUP2 SLOAD DUP2 PUSH1 0xFF MUL NOT AND SWAP1 DUP4 PUSH1 0xFF AND MUL OR SWAP1 SSTORE POP PUSH1 0xFF AND NUMBER PUSH2 0x1EC2 SWAP2 SWAP1 PUSH2 0x2DE2 JUMP JUMPDEST BLOCKHASH DUP6 PUSH1 0x40 MLOAD PUSH1 0x20 ADD PUSH2 0x1ED5 SWAP3 SWAP2 SWAP1 PUSH2 0x2669 JUMP JUMPDEST PUSH1 0x40 MLOAD PUSH1 0x20 DUP2 DUP4 SUB SUB DUP2 MSTORE SWAP1 PUSH1 0x40 MSTORE DUP1 MLOAD SWAP1 PUSH1 0x20 ADD KECCAK256 PUSH1 0x0 SHR PUSH2 0x1EF8 SWAP2 SWAP1 PUSH2 0x2E80 JUMP JUMPDEST PUSH1 0x9 SLOAD SWAP1 SWAP2 POP PUSH1 0xFA PUSH1 0xFF SWAP1 SWAP2 AND GT ISZERO PUSH2 0x1F16 JUMPI PUSH1 0x9 DUP1 SLOAD PUSH1 0xFF NOT AND SWAP1 SSTORE JUMPDEST SWAP4 SWAP3 POP POP POP JUMP JUMPDEST POP DUP1 SLOAD PUSH2 0x1F29 SWAP1 PUSH2 0x2E25 JUMP JUMPDEST PUSH1 0x0 DUP3 SSTORE DUP1 PUSH1 0x1F LT PUSH2 0x1F3B JUMPI POP PUSH2 0x1F59 JUMP JUMPDEST PUSH1 0x1F ADD PUSH1 0x20 SWAP1 DIV SWAP1 PUSH1 0x0 MSTORE PUSH1 0x20 PUSH1 0x0 KECCAK256 SWAP1 DUP2 ADD SWAP1 PUSH2 0x1F59 SWAP2 SWAP1 PUSH2 0x2081 JUMP JUMPDEST POP JUMP JUMPDEST PUSH1 0x1 DUP4 ADD SWAP2 DUP4 SWAP1 DUP3 ISZERO PUSH2 0x1FDF JUMPI SWAP2 PUSH1 0x20 MUL DUP3 ADD PUSH1 0x0 JUMPDEST DUP4 DUP3 GT ISZERO PUSH2 0x1FB0 JUMPI DUP4 MLOAD DUP4 DUP3 PUSH2 0x100 EXP DUP2 SLOAD DUP2 PUSH1 0xFF MUL NOT AND SWAP1 DUP4 PUSH1 0xFF AND MUL OR SWAP1 SSTORE POP SWAP3 PUSH1 0x20 ADD SWAP3 PUSH1 0x1 ADD PUSH1 0x20 DUP2 PUSH1 0x0 ADD DIV SWAP3 DUP4 ADD SWAP3 PUSH1 0x1 SUB MUL PUSH2 0x1F72 JUMP JUMPDEST DUP1 ISZERO PUSH2 0x1FDD JUMPI DUP3 DUP2 PUSH2 0x100 EXP DUP2 SLOAD SWAP1 PUSH1 0xFF MUL NOT AND SWAP1 SSTORE PUSH1 0x1 ADD PUSH1 0x20 DUP2 PUSH1 0x0 ADD DIV SWAP3 DUP4 ADD SWAP3 PUSH1 0x1 SUB MUL PUSH2 0x1FB0 JUMP JUMPDEST POP JUMPDEST POP PUSH2 0x1FEB SWAP3 SWAP2 POP PUSH2 0x2081 JUMP JUMPDEST POP SWAP1 JUMP JUMPDEST DUP3 DUP1 SLOAD PUSH2 0x1FFB SWAP1 PUSH2 0x2E25 JUMP JUMPDEST SWAP1 PUSH1 0x0 MSTORE PUSH1 0x20 PUSH1 0x0 KECCAK256 SWAP1 PUSH1 0x1F ADD PUSH1 0x20 SWAP1 DIV DUP2 ADD SWAP3 DUP3 PUSH2 0x201D JUMPI PUSH1 0x0 DUP6 SSTORE PUSH2 0x1FDF JUMP JUMPDEST DUP3 PUSH1 0x1F LT PUSH2 0x2036 JUMPI DUP1 MLOAD PUSH1 0xFF NOT AND DUP4 DUP1 ADD OR DUP6 SSTORE PUSH2 0x1FDF JUMP JUMPDEST DUP3 DUP1 ADD PUSH1 0x1 ADD DUP6 SSTORE DUP3 ISZERO PUSH2 0x1FDF JUMPI SWAP2 DUP3 ADD JUMPDEST DUP3 DUP2 GT ISZERO PUSH2 0x1FDF JUMPI DUP3 MLOAD DUP3 SSTORE SWAP2 PUSH1 0x20 ADD SWAP2 SWAP1 PUSH1 0x1 ADD SWAP1 PUSH2 0x2048 JUMP JUMPDEST PUSH1 0x40 MLOAD DUP1 PUSH1 0x60 ADD PUSH1 0x40 MSTORE DUP1 PUSH1 0x3 SWAP1 PUSH1 0x20 DUP3 MUL DUP1 CALLDATASIZE DUP4 CALLDATACOPY POP SWAP2 SWAP3 SWAP2 POP POP JUMP JUMPDEST JUMPDEST DUP1 DUP3 GT ISZERO PUSH2 0x1FEB JUMPI PUSH1 0x0 DUP2 SSTORE PUSH1 0x1 ADD PUSH2 0x2082 JUMP JUMPDEST PUSH1 0x0 DUP3 PUSH1 0x1F DUP4 ADD SLT PUSH2 0x20A6 JUMPI DUP1 DUP2 REVERT JUMPDEST DUP2 CALLDATALOAD PUSH1 0x20 PUSH2 0x20BB PUSH2 0x20B6 DUP4 PUSH2 0x2D6A JUMP JUMPDEST PUSH2 0x2D40 JUMP JUMPDEST DUP3 DUP2 MSTORE DUP2 DUP2 ADD SWAP1 DUP6 DUP4 ADD DUP4 DUP6 MUL DUP8 ADD DUP5 ADD DUP9 LT ISZERO PUSH2 0x20D7 JUMPI DUP6 DUP7 REVERT JUMPDEST DUP6 JUMPDEST DUP6 DUP2 LT ISZERO PUSH2 0x20FE JUMPI DUP2 CALLDATALOAD PUSH2 0x20EC DUP2 PUSH2 0x2ED6 JUMP JUMPDEST DUP5 MSTORE SWAP3 DUP5 ADD SWAP3 SWAP1 DUP5 ADD SWAP1 PUSH1 0x1 ADD PUSH2 0x20D9 JUMP JUMPDEST POP SWAP1 SWAP8 SWAP7 POP POP POP POP POP POP POP JUMP JUMPDEST PUSH1 0x0 DUP3 PUSH1 0x1F DUP4 ADD SLT PUSH2 0x211B JUMPI DUP1 DUP2 REVERT JUMPDEST DUP2 CALLDATALOAD PUSH1 0x20 PUSH2 0x212B PUSH2 0x20B6 DUP4 PUSH2 0x2D6A JUMP JUMPDEST DUP3 DUP2 MSTORE DUP2 DUP2 ADD SWAP1 DUP6 DUP4 ADD DUP4 DUP6 MUL DUP8 ADD DUP5 ADD DUP9 LT ISZERO PUSH2 0x2147 JUMPI DUP6 DUP7 REVERT JUMPDEST DUP6 JUMPDEST DUP6 DUP2 LT ISZERO PUSH2 0x20FE JUMPI DUP2 CALLDATALOAD DUP5 MSTORE SWAP3 DUP5 ADD SWAP3 SWAP1 DUP5 ADD SWAP1 PUSH1 0x1 ADD PUSH2 0x2149 JUMP JUMPDEST PUSH1 0x0 DUP3 PUSH1 0x1F DUP4 ADD SLT PUSH2 0x2175 JUMPI DUP1 DUP2 REVERT JUMPDEST DUP2 CALLDATALOAD PUSH2 0x2183 PUSH2 0x20B6 DUP3 PUSH2 0x2D8E JUMP JUMPDEST DUP2 DUP2 MSTORE DUP5 PUSH1 0x20 DUP4 DUP7 ADD ADD GT ISZERO PUSH2 0x2197 JUMPI DUP3 DUP4 REVERT JUMPDEST DUP2 PUSH1 0x20 DUP6 ADD PUSH1 0x20 DUP4 ADD CALLDATACOPY SWAP1 DUP2 ADD PUSH1 0x20 ADD SWAP2 SWAP1 SWAP2 MSTORE SWAP3 SWAP2 POP POP JUMP JUMPDEST DUP1 CALLDATALOAD PUSH1 0xFF DUP2 AND DUP2 EQ PUSH2 0x745 JUMPI PUSH1 0x0 DUP1 REVERT JUMPDEST PUSH1 0x0 PUSH1 0x20 DUP3 DUP5 SUB SLT ISZERO PUSH2 0x21D3 JUMPI DUP1 DUP2 REVERT JUMPDEST DUP2 CALLDATALOAD PUSH2 0x1F16 DUP2 PUSH2 0x2ED6 JUMP JUMPDEST PUSH1 0x0 DUP1 PUSH1 0x40 DUP4 DUP6 SUB SLT ISZERO PUSH2 0x21F0 JUMPI DUP1 DUP2 REVERT JUMPDEST DUP3 CALLDATALOAD PUSH2 0x21FB DUP2 PUSH2 0x2ED6 JUMP JUMPDEST SWAP5 PUSH1 0x20 SWAP4 SWAP1 SWAP4 ADD CALLDATALOAD SWAP4 POP POP POP JUMP JUMPDEST PUSH1 0x0 DUP1 PUSH1 0x0 PUSH1 0x60 DUP5 DUP7 SUB SLT ISZERO PUSH2 0x221D JUMPI DUP1 DUP2 REVERT JUMPDEST DUP4 CALLDATALOAD PUSH2 0x2228 DUP2 PUSH2 0x2ED6 JUMP JUMPDEST SWAP3 POP PUSH1 0x20 DUP5 ADD CALLDATALOAD PUSH8 0xFFFFFFFFFFFFFFFF DUP2 GT ISZERO PUSH2 0x2243 JUMPI DUP2 DUP3 REVERT JUMPDEST PUSH2 0x224F DUP7 DUP3 DUP8 ADD PUSH2 0x2165 JUMP JUMPDEST SWAP3 POP POP PUSH1 0x40 DUP5 ADD CALLDATALOAD SWAP1 POP SWAP3 POP SWAP3 POP SWAP3 JUMP JUMPDEST PUSH1 0x0 DUP1 PUSH1 0x0 PUSH1 0x60 DUP5 DUP7 SUB SLT ISZERO PUSH2 0x2274 JUMPI DUP1 DUP2 REVERT JUMPDEST DUP4 MLOAD PUSH2 0x227F DUP2 PUSH2 0x2ED6 JUMP JUMPDEST PUSH1 0x20 DUP6 ADD MLOAD SWAP1 SWAP4 POP PUSH8 0xFFFFFFFFFFFFFFFF DUP2 GT ISZERO PUSH2 0x229B JUMPI DUP2 DUP3 REVERT JUMPDEST DUP5 ADD PUSH1 0x1F DUP2 ADD DUP7 SGT PUSH2 0x22AB JUMPI DUP2 DUP3 REVERT JUMPDEST DUP1 MLOAD PUSH2 0x22B9 PUSH2 0x20B6 DUP3 PUSH2 0x2D8E JUMP JUMPDEST DUP2 DUP2 MSTORE DUP8 PUSH1 0x20 DUP4 DUP6 ADD ADD GT ISZERO PUSH2 0x22CD JUMPI DUP4 DUP5 REVERT JUMPDEST PUSH2 0x22DE DUP3 PUSH1 0x20 DUP4 ADD PUSH1 0x20 DUP7 ADD PUSH2 0x2DF9 JUMP JUMPDEST DUP1 SWAP5 POP POP POP POP PUSH1 0x40 DUP5 ADD MLOAD SWAP1 POP SWAP3 POP SWAP3 POP SWAP3 JUMP JUMPDEST PUSH1 0x0 DUP1 PUSH1 0x0 DUP1 PUSH1 0x80 DUP6 DUP8 SUB SLT ISZERO PUSH2 0x2307 JUMPI DUP2 DUP3 REVERT JUMPDEST DUP5 CALLDATALOAD PUSH2 0x2312 DUP2 PUSH2 0x2ED6 JUMP JUMPDEST SWAP4 POP PUSH1 0x20 DUP6 ADD CALLDATALOAD PUSH8 0xFFFFFFFFFFFFFFFF DUP2 GT ISZERO PUSH2 0x232D JUMPI DUP3 DUP4 REVERT JUMPDEST PUSH2 0x2339 DUP8 DUP3 DUP9 ADD PUSH2 0x2165 JUMP JUMPDEST SWAP4 POP POP PUSH1 0x40 DUP6 ADD CALLDATALOAD SWAP2 POP PUSH2 0x234F PUSH1 0x60 DUP7 ADD PUSH2 0x21B1 JUMP JUMPDEST SWAP1 POP SWAP3 SWAP6 SWAP2 SWAP5 POP SWAP3 POP JUMP JUMPDEST PUSH1 0x0 DUP1 PUSH1 0x0 DUP1 PUSH1 0x80 DUP6 DUP8 SUB SLT ISZERO PUSH2 0x236F JUMPI DUP2 DUP3 REVERT JUMPDEST DUP5 CALLDATALOAD PUSH8 0xFFFFFFFFFFFFFFFF DUP1 DUP3 GT ISZERO PUSH2 0x2386 JUMPI DUP4 DUP5 REVERT JUMPDEST PUSH2 0x2392 DUP9 DUP4 DUP10 ADD PUSH2 0x2096 JUMP JUMPDEST SWAP6 POP PUSH1 0x20 SWAP2 POP DUP2 DUP8 ADD CALLDATALOAD DUP2 DUP2 GT ISZERO PUSH2 0x23A8 JUMPI DUP5 DUP6 REVERT JUMPDEST PUSH2 0x23B4 DUP10 DUP3 DUP11 ADD PUSH2 0x2096 JUMP JUMPDEST SWAP6 POP POP PUSH1 0x40 DUP8 ADD CALLDATALOAD DUP2 DUP2 GT ISZERO PUSH2 0x23C8 JUMPI DUP5 DUP6 REVERT JUMPDEST DUP8 ADD PUSH1 0x1F DUP2 ADD DUP10 SGT PUSH2 0x23D8 JUMPI DUP5 DUP6 REVERT JUMPDEST DUP1 CALLDATALOAD PUSH2 0x23E6 PUSH2 0x20B6 DUP3 PUSH2 0x2D6A JUMP JUMPDEST DUP2 DUP2 MSTORE DUP5 DUP2 ADD SWAP1 DUP4 DUP7 ADD DUP9 JUMPDEST DUP5 DUP2 LT ISZERO PUSH2 0x241B JUMPI PUSH2 0x2409 DUP15 DUP10 DUP5 CALLDATALOAD DUP10 ADD ADD PUSH2 0x2165 JUMP JUMPDEST DUP5 MSTORE SWAP3 DUP8 ADD SWAP3 SWAP1 DUP8 ADD SWAP1 PUSH1 0x1 ADD PUSH2 0x23F2 JUMP JUMPDEST POP SWAP1 SWAP8 POP POP POP POP PUSH1 0x60 DUP9 ADD CALLDATALOAD SWAP3 POP POP DUP1 DUP3 GT ISZERO PUSH2 0x2436 JUMPI DUP3 DUP4 REVERT JUMPDEST POP PUSH2 0x2443 DUP8 DUP3 DUP9 ADD PUSH2 0x210B JUMP JUMPDEST SWAP2 POP POP SWAP3 SWAP6 SWAP2 SWAP5 POP SWAP3 POP JUMP JUMPDEST PUSH1 0x0 PUSH1 0x20 DUP1 DUP4 DUP6 SUB SLT ISZERO PUSH2 0x2461 JUMPI DUP2 DUP3 REVERT JUMPDEST DUP3 MLOAD PUSH8 0xFFFFFFFFFFFFFFFF DUP2 GT ISZERO PUSH2 0x2477 JUMPI DUP3 DUP4 REVERT JUMPDEST DUP4 ADD PUSH1 0x1F DUP2 ADD DUP6 SGT PUSH2 0x2487 JUMPI DUP3 DUP4 REVERT JUMPDEST DUP1 MLOAD PUSH2 0x2495 PUSH2 0x20B6 DUP3 PUSH2 0x2D6A JUMP JUMPDEST DUP2 DUP2 MSTORE DUP4 DUP2 ADD SWAP1 DUP4 DUP6 ADD DUP6 DUP5 MUL DUP6 ADD DUP7 ADD DUP10 LT ISZERO PUSH2 0x24B1 JUMPI DUP7 DUP8 REVERT JUMPDEST DUP7 SWAP5 POP JUMPDEST DUP4 DUP6 LT ISZERO PUSH2 0x24D3 JUMPI DUP1 MLOAD DUP4 MSTORE PUSH1 0x1 SWAP5 SWAP1 SWAP5 ADD SWAP4 SWAP2 DUP6 ADD SWAP2 DUP6 ADD PUSH2 0x24B5 JUMP JUMPDEST POP SWAP8 SWAP7 POP POP POP POP POP POP POP JUMP JUMPDEST PUSH1 0x0 PUSH1 0x20 DUP3 DUP5 SUB SLT ISZERO PUSH2 0x24F0 JUMPI DUP1 DUP2 REVERT JUMPDEST DUP2 CALLDATALOAD PUSH2 0x1F16 DUP2 PUSH2 0x2EEB JUMP JUMPDEST PUSH1 0x0 PUSH1 0x20 DUP3 DUP5 SUB SLT ISZERO PUSH2 0x250C JUMPI DUP1 DUP2 REVERT JUMPDEST DUP2 MLOAD PUSH2 0x1F16 DUP2 PUSH2 0x2EEB JUMP JUMPDEST PUSH1 0x0 PUSH1 0x20 DUP3 DUP5 SUB SLT ISZERO PUSH2 0x2528 JUMPI DUP1 DUP2 REVERT JUMPDEST POP CALLDATALOAD SWAP2 SWAP1 POP JUMP JUMPDEST PUSH1 0x0 PUSH1 0x20 DUP3 DUP5 SUB SLT ISZERO PUSH2 0x2540 JUMPI DUP1 DUP2 REVERT JUMPDEST POP MLOAD SWAP2 SWAP1 POP JUMP JUMPDEST PUSH1 0x0 DUP1 PUSH1 0x40 DUP4 DUP6 SUB SLT ISZERO PUSH2 0x2559 JUMPI DUP2 DUP3 REVERT JUMPDEST DUP3 CALLDATALOAD PUSH8 0xFFFFFFFFFFFFFFFF DUP2 GT ISZERO PUSH2 0x256F JUMPI DUP3 DUP4 REVERT JUMPDEST PUSH2 0x257B DUP6 DUP3 DUP7 ADD PUSH2 0x2165 JUMP JUMPDEST SWAP6 PUSH1 0x20 SWAP5 SWAP1 SWAP5 ADD CALLDATALOAD SWAP5 POP POP POP POP JUMP JUMPDEST PUSH1 0x0 DUP1 PUSH1 0x0 DUP1 PUSH1 0x0 PUSH1 0xA0 DUP7 DUP9 SUB SLT ISZERO PUSH2 0x25A1 JUMPI DUP3 DUP4 REVERT JUMPDEST PUSH2 0x25AA DUP7 PUSH2 0x21B1 JUMP JUMPDEST SWAP5 POP PUSH1 0x20 DUP7 ADD CALLDATALOAD PUSH2 0x25BA DUP2 PUSH2 0x2ED6 JUMP JUMPDEST SWAP4 POP PUSH1 0x40 DUP7 ADD CALLDATALOAD PUSH8 0xFFFFFFFFFFFFFFFF DUP2 GT ISZERO PUSH2 0x25D5 JUMPI DUP4 DUP5 REVERT JUMPDEST PUSH2 0x25E1 DUP9 DUP3 DUP10 ADD PUSH2 0x2165 JUMP JUMPDEST SWAP4 POP POP PUSH1 0x60 DUP7 ADD CALLDATALOAD SWAP2 POP PUSH2 0x25F7 PUSH1 0x80 DUP8 ADD PUSH2 0x21B1 JUMP JUMPDEST SWAP1 POP SWAP3 SWAP6 POP SWAP3 SWAP6 SWAP1 SWAP4 POP JUMP JUMPDEST PUSH1 0x0 DUP2 MLOAD DUP1 DUP5 MSTORE PUSH1 0x20 DUP1 DUP6 ADD SWAP5 POP DUP1 DUP5 ADD DUP4 JUMPDEST DUP4 DUP2 LT ISZERO PUSH2 0x2632 JUMPI DUP2 MLOAD DUP8 MSTORE SWAP6 DUP3 ADD SWAP6 SWAP1 DUP3 ADD SWAP1 PUSH1 0x1 ADD PUSH2 0x2616 JUMP JUMPDEST POP SWAP5 SWAP6 SWAP5 POP POP POP POP POP JUMP JUMPDEST PUSH1 0x0 DUP2 MLOAD DUP1 DUP5 MSTORE PUSH2 0x2655 DUP2 PUSH1 0x20 DUP7 ADD PUSH1 0x20 DUP7 ADD PUSH2 0x2DF9 JUMP JUMPDEST PUSH1 0x1F ADD PUSH1 0x1F NOT AND SWAP3 SWAP1 SWAP3 ADD PUSH1 0x20 ADD SWAP3 SWAP2 POP POP JUMP JUMPDEST SWAP2 DUP3 MSTORE PUSH1 0x60 SHL PUSH12 0xFFFFFFFFFFFFFFFFFFFFFFFF NOT AND PUSH1 0x20 DUP3 ADD MSTORE PUSH1 0x34 ADD SWAP1 JUMP JUMPDEST SWAP1 JUMP JUMPDEST PUSH1 0x0 PUSH1 0xFF PUSH1 0xF8 SHL DUP7 PUSH1 0xF8 SHL AND DUP3 MSTORE PUSH12 0xFFFFFFFFFFFFFFFFFFFFFFFF NOT DUP6 PUSH1 0x60 SHL AND PUSH1 0x1 DUP4 ADD MSTORE DUP4 MLOAD PUSH2 0x26C5 DUP2 PUSH1 0x15 DUP6 ADD PUSH1 0x20 DUP9 ADD PUSH2 0x2DF9 JUMP JUMPDEST PUSH1 0x15 SWAP3 ADD SWAP2 DUP3 ADD SWAP3 SWAP1 SWAP3 MSTORE PUSH1 0x35 ADD SWAP5 SWAP4 POP POP POP POP JUMP JUMPDEST PUSH1 0x1 PUSH1 0x1 PUSH1 0xA0 SHL SUB SWAP2 SWAP1 SWAP2 AND DUP2 MSTORE PUSH1 0x20 ADD SWAP1 JUMP JUMPDEST PUSH1 0x1 PUSH1 0x1 PUSH1 0xA0 SHL SUB DUP6 DUP2 AND DUP3 MSTORE DUP5 AND PUSH1 0x20 DUP3 ADD MSTORE PUSH1 0x80 PUSH1 0x40 DUP3 ADD DUP2 SWAP1 MSTORE PUSH1 0x0 SWAP1 PUSH2 0x271B SWAP1 DUP4 ADD DUP6 PUSH2 0x263D JUMP JUMPDEST SWAP1 POP DUP3 PUSH1 0x60 DUP4 ADD MSTORE SWAP6 SWAP5 POP POP POP POP POP JUMP JUMPDEST PUSH1 0x1 PUSH1 0x1 PUSH1 0xA0 SHL SUB DUP5 AND DUP2 MSTORE PUSH1 0x60 PUSH1 0x20 DUP3 ADD DUP2 SWAP1 MSTORE PUSH1 0x0 SWAP1 PUSH2 0x2750 SWAP1 DUP4 ADD DUP6 PUSH2 0x263D JUMP JUMPDEST SWAP1 POP DUP3 PUSH1 0x40 DUP4 ADD MSTORE SWAP5 SWAP4 POP POP POP POP JUMP JUMPDEST PUSH1 0x0 PUSH1 0x1 DUP1 PUSH1 0xA0 SHL SUB DUP1 DUP9 AND DUP4 MSTORE PUSH1 0xA0 PUSH1 0x20 DUP5 ADD MSTORE PUSH2 0x2782 PUSH1 0xA0 DUP5 ADD DUP9 PUSH2 0x263D JUMP JUMPDEST PUSH1 0x40 DUP5 ADD SWAP7 SWAP1 SWAP7 MSTORE SWAP4 SWAP1 SWAP4 AND PUSH1 0x60 DUP3 ADD MSTORE PUSH1 0x80 ADD MSTORE POP SWAP3 SWAP2 POP POP JUMP JUMPDEST PUSH1 0x1 PUSH1 0x1 PUSH1 0xA0 SHL SUB DUP6 AND DUP2 MSTORE PUSH1 0x80 PUSH1 0x20 DUP3 ADD DUP2 SWAP1 MSTORE PUSH1 0x0 SWAP1 PUSH2 0x27C2 SWAP1 DUP4 ADD DUP7 PUSH2 0x263D JUMP JUMPDEST SWAP1 POP DUP4 PUSH1 0x40 DUP4 ADD MSTORE PUSH1 0xFF DUP4 AND PUSH1 0x60 DUP4 ADD MSTORE SWAP6 SWAP5 POP POP POP POP POP JUMP JUMPDEST PUSH1 0x60 DUP1 DUP3 MSTORE DUP5 MLOAD SWAP1 DUP3 ADD DUP2 SWAP1 MSTORE PUSH1 0x0 SWAP1 PUSH1 0x20 SWAP1 PUSH1 0x80 DUP5 ADD SWAP1 DUP3 DUP9 ADD DUP5 JUMPDEST DUP3 DUP2 LT ISZERO PUSH2 0x281E JUMPI DUP2 MLOAD PUSH1 0x1 PUSH1 0x1 PUSH1 0xA0 SHL SUB AND DUP5 MSTORE SWAP3 DUP5 ADD SWAP3 SWAP1 DUP5 ADD SWAP1 PUSH1 0x1 ADD PUSH2 0x27F9 JUMP JUMPDEST POP POP POP DUP4 DUP2 SUB DUP3 DUP6 ADD MSTORE DUP6 MLOAD DUP1 DUP3 MSTORE DUP3 DUP3 ADD SWAP1 DUP1 DUP5 MUL DUP4 ADD DUP5 ADD DUP9 DUP6 ADD DUP7 JUMPDEST DUP4 DUP2 LT ISZERO PUSH2 0x286B JUMPI PUSH1 0x1F NOT DUP7 DUP5 SUB ADD DUP6 MSTORE PUSH2 0x2859 DUP4 DUP4 MLOAD PUSH2 0x263D JUMP JUMPDEST SWAP5 DUP8 ADD SWAP5 SWAP3 POP SWAP1 DUP7 ADD SWAP1 PUSH1 0x1 ADD PUSH2 0x283D JUMP JUMPDEST POP POP DUP7 DUP2 SUB PUSH1 0x40 DUP9 ADD MSTORE PUSH2 0x287F DUP2 DUP10 PUSH2 0x2603 JUMP JUMPDEST SWAP11 SWAP10 POP POP POP POP POP POP POP POP POP POP JUMP JUMPDEST PUSH1 0x60 DUP2 ADD DUP2 DUP4 PUSH1 0x0 JUMPDEST PUSH1 0x3 DUP2 LT ISZERO PUSH2 0x9BD JUMPI DUP2 MLOAD PUSH1 0xFF AND DUP4 MSTORE PUSH1 0x20 SWAP3 DUP4 ADD SWAP3 SWAP1 SWAP2 ADD SWAP1 PUSH1 0x1 ADD PUSH2 0x2896 JUMP JUMPDEST SWAP1 ISZERO ISZERO DUP2 MSTORE PUSH1 0x20 ADD SWAP1 JUMP JUMPDEST SWAP1 DUP2 MSTORE PUSH1 0x20 ADD SWAP1 JUMP JUMPDEST PUSH1 0x20 DUP1 DUP3 MSTORE PUSH1 0x2F SWAP1 DUP3 ADD MSTORE PUSH32 0x466C69676874206F722074696D657374616D7020646F206E6F74206D61746368 PUSH1 0x40 DUP3 ADD MSTORE PUSH15 0x81BDC9858DB19481C995C5D595CDD PUSH1 0x8A SHL PUSH1 0x60 DUP3 ADD MSTORE PUSH1 0x80 ADD SWAP1 JUMP JUMPDEST PUSH1 0x20 DUP1 DUP3 MSTORE PUSH1 0x39 SWAP1 DUP3 ADD MSTORE PUSH32 0x416E20616464726573732063616E206E6F7420626520646F75626C6564207570 PUSH1 0x40 DUP3 ADD MSTORE PUSH32 0x206173206169726C696E6520616E642070617373656E67657200000000000000 PUSH1 0x60 DUP3 ADD MSTORE PUSH1 0x80 ADD SWAP1 JUMP JUMPDEST PUSH1 0x20 DUP1 DUP3 MSTORE PUSH1 0x14 SWAP1 DUP3 ADD MSTORE PUSH20 0x2330B4B632B2103A379039B2B7321022BA3432B9 PUSH1 0x61 SHL PUSH1 0x40 DUP3 ADD MSTORE PUSH1 0x60 ADD SWAP1 JUMP JUMPDEST PUSH1 0x20 DUP1 DUP3 MSTORE PUSH1 0x2E SWAP1 DUP3 ADD MSTORE PUSH32 0x496E737572616E636520436F6E747269627574696F6E73206D6179206E6F7420 PUSH1 0x40 DUP3 ADD MSTORE PUSH14 0x32BC31B2B2B210189032BA3432B9 PUSH1 0x91 SHL PUSH1 0x60 DUP3 ADD MSTORE PUSH1 0x80 ADD SWAP1 JUMP JUMPDEST PUSH1 0x20 DUP1 DUP3 MSTORE PUSH1 0x19 SWAP1 DUP3 ADD MSTORE PUSH32 0x43616C6C6572206973206E6F7420612070617373656E67657200000000000000 PUSH1 0x40 DUP3 ADD MSTORE PUSH1 0x60 ADD SWAP1 JUMP JUMPDEST PUSH1 0x20 DUP1 DUP3 MSTORE PUSH1 0x6A SWAP1 DUP3 ADD MSTORE PUSH32 0x4D75737420626520612066756E646564206169726C696E6520746F207375626D PUSH1 0x40 DUP3 ADD MSTORE PUSH32 0x697420616E6F74686572206169726C696E65207768656E20746F74616C206169 PUSH1 0x60 DUP3 ADD MSTORE PUSH32 0x726C696E6573206172652062656C6F7720746865206D696E696D756D20666F72 PUSH1 0x80 DUP3 ADD MSTORE PUSH10 0x20636F6E73656E737573 PUSH1 0xB0 SHL PUSH1 0xA0 DUP3 ADD MSTORE PUSH1 0xC0 ADD SWAP1 JUMP JUMPDEST PUSH1 0x20 DUP1 DUP3 MSTORE PUSH1 0x1A SWAP1 DUP3 ADD MSTORE PUSH32 0x4169726C696E6520697320616C72656164792066756E64656421000000000000 PUSH1 0x40 DUP3 ADD MSTORE PUSH1 0x60 ADD SWAP1 JUMP JUMPDEST PUSH1 0x20 DUP1 DUP3 MSTORE PUSH1 0x1B SWAP1 DUP3 ADD MSTORE PUSH32 0x4E6F74207265676973746572656420617320616E206F7261636C650000000000 PUSH1 0x40 DUP3 ADD MSTORE PUSH1 0x60 ADD SWAP1 JUMP JUMPDEST PUSH1 0x20 DUP1 DUP3 MSTORE PUSH1 0x19 SWAP1 DUP3 ADD MSTORE PUSH32 0x4164647265737320616C72656164792061206169726C696E6500000000000000 PUSH1 0x40 DUP3 ADD MSTORE PUSH1 0x60 ADD SWAP1 JUMP JUMPDEST PUSH1 0x20 DUP1 DUP3 MSTORE PUSH1 0x25 SWAP1 DUP3 ADD MSTORE PUSH32 0x436F6E74726163742069732063757272656E746C79206E6F74206F7065726174 PUSH1 0x40 DUP3 ADD MSTORE PUSH5 0x1A5BDB985B PUSH1 0xDA SHL PUSH1 0x60 DUP3 ADD MSTORE PUSH1 0x80 ADD SWAP1 JUMP JUMPDEST PUSH1 0x20 DUP1 DUP3 MSTORE PUSH1 0x1C SWAP1 DUP3 ADD MSTORE PUSH32 0x43616C6C6572206973206E6F7420636F6E7472616374206F776E657200000000 PUSH1 0x40 DUP3 ADD MSTORE PUSH1 0x60 ADD SWAP1 JUMP JUMPDEST PUSH1 0x20 DUP1 DUP3 MSTORE PUSH1 0x1C SWAP1 DUP3 ADD MSTORE PUSH32 0x526567697374726174696F6E2066656520697320726571756972656400000000 PUSH1 0x40 DUP3 ADD MSTORE PUSH1 0x60 ADD SWAP1 JUMP JUMPDEST PUSH1 0x20 DUP1 DUP3 MSTORE PUSH1 0x23 SWAP1 DUP3 ADD MSTORE PUSH32 0x496E64657820646F6573206E6F74206D61746368206F7261636C652072657175 PUSH1 0x40 DUP3 ADD MSTORE PUSH3 0x195CDD PUSH1 0xEA SHL PUSH1 0x60 DUP3 ADD MSTORE PUSH1 0x80 ADD SWAP1 JUMP JUMPDEST PUSH1 0x20 DUP1 DUP3 MSTORE PUSH1 0x1B SWAP1 DUP3 ADD MSTORE PUSH32 0x4164647265737320616C726561647920612050617373656E6765720000000000 PUSH1 0x40 DUP3 ADD MSTORE PUSH1 0x60 ADD SWAP1 JUMP JUMPDEST PUSH1 0x20 DUP1 DUP3 MSTORE PUSH1 0x2B SWAP1 DUP3 ADD MSTORE PUSH32 0x537570706C69656420657468657220646F65736E2774206D6565742074686520 PUSH1 0x40 DUP3 ADD MSTORE PUSH11 0x66756E64696E6720666565 PUSH1 0xA8 SHL PUSH1 0x60 DUP3 ADD MSTORE PUSH1 0x80 ADD SWAP1 JUMP JUMPDEST PUSH1 0x20 DUP1 DUP3 MSTORE DUP2 DUP2 ADD MSTORE PUSH32 0x41646472657373206E6F7420612072656769737465726564206169726C696E65 PUSH1 0x40 DUP3 ADD MSTORE PUSH1 0x60 ADD SWAP1 JUMP JUMPDEST PUSH1 0xFF DUP6 AND DUP2 MSTORE PUSH1 0x1 PUSH1 0x1 PUSH1 0xA0 SHL SUB DUP5 AND PUSH1 0x20 DUP3 ADD MSTORE PUSH1 0x80 PUSH1 0x40 DUP3 ADD DUP2 SWAP1 MSTORE PUSH1 0x0 SWAP1 PUSH2 0x271B SWAP1 DUP4 ADD DUP6 PUSH2 0x263D JUMP JUMPDEST PUSH1 0x40 MLOAD DUP2 DUP2 ADD PUSH8 0xFFFFFFFFFFFFFFFF DUP2 GT DUP3 DUP3 LT OR ISZERO PUSH2 0x2D62 JUMPI PUSH2 0x2D62 PUSH2 0x2EC0 JUMP JUMPDEST PUSH1 0x40 MSTORE SWAP2 SWAP1 POP JUMP JUMPDEST PUSH1 0x0 PUSH8 0xFFFFFFFFFFFFFFFF DUP3 GT ISZERO PUSH2 0x2D84 JUMPI PUSH2 0x2D84 PUSH2 0x2EC0 JUMP JUMPDEST POP PUSH1 0x20 SWAP1 DUP2 MUL ADD SWAP1 JUMP JUMPDEST PUSH1 0x0 PUSH8 0xFFFFFFFFFFFFFFFF DUP3 GT ISZERO PUSH2 0x2DA8 JUMPI PUSH2 0x2DA8 PUSH2 0x2EC0 JUMP JUMPDEST POP PUSH1 0x1F ADD PUSH1 0x1F NOT AND PUSH1 0x20 ADD SWAP1 JUMP JUMPDEST PUSH1 0x0 DUP3 NOT DUP3 GT ISZERO PUSH2 0x2DC9 JUMPI PUSH2 0x2DC9 PUSH2 0x2E94 JUMP JUMPDEST POP ADD SWAP1 JUMP JUMPDEST PUSH1 0x0 DUP3 PUSH2 0x2DDD JUMPI PUSH2 0x2DDD PUSH2 0x2EAA JUMP JUMPDEST POP DIV SWAP1 JUMP JUMPDEST PUSH1 0x0 DUP3 DUP3 LT ISZERO PUSH2 0x2DF4 JUMPI PUSH2 0x2DF4 PUSH2 0x2E94 JUMP JUMPDEST POP SUB SWAP1 JUMP JUMPDEST PUSH1 0x0 JUMPDEST DUP4 DUP2 LT ISZERO PUSH2 0x2E14 JUMPI DUP2 DUP2 ADD MLOAD DUP4 DUP3 ADD MSTORE PUSH1 0x20 ADD PUSH2 0x2DFC JUMP JUMPDEST DUP4 DUP2 GT ISZERO PUSH2 0x891 JUMPI POP POP PUSH1 0x0 SWAP2 ADD MSTORE JUMP JUMPDEST PUSH1 0x2 DUP2 DIV PUSH1 0x1 DUP3 AND DUP1 PUSH2 0x2E39 JUMPI PUSH1 0x7F DUP3 AND SWAP2 POP JUMPDEST PUSH1 0x20 DUP3 LT DUP2 EQ ISZERO PUSH2 0x2E5A JUMPI PUSH4 0x4E487B71 PUSH1 0xE0 SHL PUSH1 0x0 MSTORE PUSH1 0x22 PUSH1 0x4 MSTORE PUSH1 0x24 PUSH1 0x0 REVERT JUMPDEST POP SWAP2 SWAP1 POP JUMP JUMPDEST PUSH1 0x0 PUSH1 0xFF DUP3 AND PUSH1 0xFF DUP2 EQ ISZERO PUSH2 0x2E77 JUMPI PUSH2 0x2E77 PUSH2 0x2E94 JUMP JUMPDEST PUSH1 0x1 ADD SWAP3 SWAP2 POP POP JUMP JUMPDEST PUSH1 0x0 DUP3 PUSH2 0x2E8F JUMPI PUSH2 0x2E8F PUSH2 0x2EAA JUMP JUMPDEST POP MOD SWAP1 JUMP JUMPDEST PUSH4 0x4E487B71 PUSH1 0xE0 SHL PUSH1 0x0 MSTORE PUSH1 0x11 PUSH1 0x4 MSTORE PUSH1 0x24 PUSH1 0x0 REVERT JUMPDEST PUSH4 0x4E487B71 PUSH1 0xE0 SHL PUSH1 0x0 MSTORE PUSH1 0x12 PUSH1 0x4 MSTORE PUSH1 0x24 PUSH1 0x0 REVERT JUMPDEST PUSH4 0x4E487B71 PUSH1 0xE0 SHL PUSH1 0x0 MSTORE PUSH1 0x41 PUSH1 0x4 MSTORE PUSH1 0x24 PUSH1 0x0 REVERT JUMPDEST PUSH1 0x1 PUSH1 0x1 PUSH1 0xA0 SHL SUB DUP2 AND DUP2 EQ PUSH2 0x1F59 JUMPI PUSH1 0x0 DUP1 REVERT JUMPDEST DUP1 ISZERO ISZERO DUP2 EQ PUSH2 0x1F59 JUMPI PUSH1 0x0 DUP1 REVERT INVALID 0x2E DELEGATECALL SWAP16 ADDRESS DUP8 PUSH5 0xEBE6C1149A 0xC5 SWAP12 DELEGATECALL OR DUP2 EXP LOG1 0xD6 PUSH23 0xE95227CC4638855C9EAF6C88A26469706673582212209C DUP7 0xE0 SWAP4 PUSH7 0xA9AE50316B3695 PUSH2 0x3DCD XOR 0xD4 0x28 0xCC PUSH1 0x5 0xE4 0x1E CALLDATALOAD SWAP4 0xDF DUP3 PUSH22 0xE2B1F50B64736F6C6343000800003300000000000000 "
		},
		"gasEstimates": {
			"creation": {
				"codeDepositCost": "2422200",
				"executionCost": "infinite",
				"totalCost": "infinite"
			},
			"external": {
				"REGISTRATION_FEE()": "361",
				"claimInsurancePayout()": "infinite",
				"fetchFlightStatus(address,string,uint256)": "infinite",
				"getAllFlights()": "infinite",
				"getFlightInfo(bytes32)": "infinite",
				"getMyIndexes()": "infinite",
				"isAddressAirline(address)": "infinite",
				"isAddressFundedAirline(address)": "infinite",
				"isAddressPassenger(address)": "infinite",
				"isAddressQueuedAirline(address)": "1342",
				"isOperational()": "infinite",
				"loadDefaultContractDataForUIDemo(address[],address[],string[],uint256[])": "infinite",
				"passengerBuysInsurance(address,string,uint256)": "infinite",
				"payAirlineFee()": "infinite",
				"processFlightStatus(address,string,uint256,uint8)": "infinite",
				"registerAirline(address)": "infinite",
				"registerFlight(string,uint256)": "infinite",
				"registerInitialAirline(address)": "infinite",
				"registerOracle()": "infinite",
				"registerPassenger(address)": "infinite",
				"safeTransfer(address,uint256)": "infinite",
				"setOperatingStatus(bool)": "infinite",
				"submitOracleResponse(uint8,address,string,uint256,uint8)": "infinite"
			},
			"internal": {
				"generateIndexes(address)": "infinite",
				"getFlightKey(address,string memory,uint256)": "infinite",
				"getRandomIndex(address)": "infinite",
				"registerAirlineAsContractOwner(address)": "infinite",
				"registerFlightAsContractOwner(string memory,uint256)": "infinite",
				"registerPassengerAsContractOwner(address)": "infinite"
			}
		},
		"methodIdentifiers": {
			"REGISTRATION_FEE()": "64b4f751",
			"claimInsurancePayout()": "70ebc195",
			"fetchFlightStatus(address,string,uint256)": "f83f11c0",
			"getAllFlights()": "4c67cc3b",
			"getFlightInfo(bytes32)": "24c534cc",
			"getMyIndexes()": "5f1cc0e6",
			"isAddressAirline(address)": "ae1309ec",
			"isAddressFundedAirline(address)": "ed5509a6",
			"isAddressPassenger(address)": "1c3c1400",
			"isAddressQueuedAirline(address)": "e79e9649",
			"isOperational()": "cd905dff",
			"loadDefaultContractDataForUIDemo(address[],address[],string[],uint256[])": "0cc309d0",
			"passengerBuysInsurance(address,string,uint256)": "4a946e25",
			"payAirlineFee()": "d5e96264",
			"processFlightStatus(address,string,uint256,uint8)": "e7bdde3b",
			"registerAirline(address)": "bdfd9877",
			"registerFlight(string,uint256)": "39cfc995",
			"registerInitialAirline(address)": "a7b28278",
			"registerOracle()": "339d2590",
			"registerPassenger(address)": "94c15694",
			"safeTransfer(address,uint256)": "423f6cef",
			"setOperatingStatus(bool)": "110466ed",
			"submitOracleResponse(uint8,address,string,uint256,uint8)": "c10f2700"
		}
	},
	"abi": [
		{
			"inputs": [
				{
					"internalType": "address payable",
					"name": "flightSuretyDataContract",
					"type": "address"
				}
			],
			"stateMutability": "nonpayable",
			"type": "constructor"
		},
		{
			"anonymous": false,
			"inputs": [
				{
					"indexed": false,
					"internalType": "address",
					"name": "airline",
					"type": "address"
				},
				{
					"indexed": false,
					"internalType": "string",
					"name": "flight",
					"type": "string"
				},
				{
					"indexed": false,
					"internalType": "uint256",
					"name": "timestamp",
					"type": "uint256"
				},
				{
					"indexed": false,
					"internalType": "uint8",
					"name": "status",
					"type": "uint8"
				}
			],
			"name": "FlightStatusInfo",
			"type": "event"
		},
		{
			"anonymous": false,
			"inputs": [
				{
					"indexed": false,
					"internalType": "address",
					"name": "airline",
					"type": "address"
				},
				{
					"indexed": false,
					"internalType": "string",
					"name": "flight",
					"type": "string"
				},
				{
					"indexed": false,
					"internalType": "uint256",
					"name": "timestamp",
					"type": "uint256"
				},
				{
					"indexed": false,
					"internalType": "uint8",
					"name": "status",
					"type": "uint8"
				}
			],
			"name": "OracleReport",
			"type": "event"
		},
		{
			"anonymous": false,
			"inputs": [
				{
					"indexed": false,
					"internalType": "uint8",
					"name": "index",
					"type": "uint8"
				},
				{
					"indexed": false,
					"internalType": "address",
					"name": "airline",
					"type": "address"
				},
				{
					"indexed": false,
					"internalType": "string",
					"name": "flight",
					"type": "string"
				},
				{
					"indexed": false,
					"internalType": "uint256",
					"name": "timestamp",
					"type": "uint256"
				}
			],
			"name": "OracleRequest",
			"type": "event"
		},
		{
			"anonymous": false,
			"inputs": [
				{
					"indexed": false,
					"internalType": "address",
					"name": "airline",
					"type": "address"
				}
			],
			"name": "airlineFeesPaid",
			"type": "event"
		},
		{
			"anonymous": false,
			"inputs": [
				{
					"indexed": false,
					"internalType": "address",
					"name": "airline",
					"type": "address"
				}
			],
			"name": "airlineRegistered",
			"type": "event"
		},
		{
			"anonymous": false,
			"inputs": [
				{
					"indexed": false,
					"internalType": "address",
					"name": "airline",
					"type": "address"
				},
				{
					"indexed": false,
					"internalType": "string",
					"name": "flightName",
					"type": "string"
				},
				{
					"indexed": false,
					"internalType": "uint256",
					"name": "timestamp",
					"type": "uint256"
				}
			],
			"name": "flightRegistered",
			"type": "event"
		},
		{
			"anonymous": false,
			"inputs": [
				{
					"indexed": false,
					"internalType": "address",
					"name": "passengerAddress",
					"type": "address"
				},
				{
					"indexed": false,
					"internalType": "address",
					"name": "flightAddress",
					"type": "address"
				},
				{
					"indexed": false,
					"internalType": "string",
					"name": "flightName",
					"type": "string"
				},
				{
					"indexed": false,
					"internalType": "uint256",
					"name": "insuranceAmount",
					"type": "uint256"
				}
			],
			"name": "passengerBoughtInsurance",
			"type": "event"
		},
		{
			"anonymous": false,
			"inputs": [
				{
					"indexed": false,
					"internalType": "address",
					"name": "passenger",
					"type": "address"
				}
			],
			"name": "passengerRegistered",
			"type": "event"
		},
		{
			"inputs": [],
			"name": "REGISTRATION_FEE",
			"outputs": [
				{
					"internalType": "uint256",
					"name": "",
					"type": "uint256"
				}
			],
			"stateMutability": "view",
			"type": "function"
		},
		{
			"inputs": [],
			"name": "claimInsurancePayout",
			"outputs": [],
			"stateMutability": "payable",
			"type": "function"
		},
		{
			"inputs": [
				{
					"internalType": "address",
					"name": "airline",
					"type": "address"
				},
				{
					"internalType": "string",
					"name": "flight",
					"type": "string"
				},
				{
					"internalType": "uint256",
					"name": "timestamp",
					"type": "uint256"
				}
			],
			"name": "fetchFlightStatus",
			"outputs": [],
			"stateMutability": "nonpayable",
			"type": "function"
		},
		{
			"inputs": [],
			"name": "getAllFlights",
			"outputs": [
				{
					"internalType": "address[]",
					"name": "",
					"type": "address[]"
				},
				{
					"internalType": "string[]",
					"name": "",
					"type": "string[]"
				},
				{
					"internalType": "uint256[]",
					"name": "",
					"type": "uint256[]"
				}
			],
			"stateMutability": "nonpayable",
			"type": "function"
		},
		{
			"inputs": [
				{
					"internalType": "bytes32",
					"name": "flightKey",
					"type": "bytes32"
				}
			],
			"name": "getFlightInfo",
			"outputs": [
				{
					"internalType": "address",
					"name": "",
					"type": "address"
				},
				{
					"internalType": "string",
					"name": "",
					"type": "string"
				},
				{
					"internalType": "uint256",
					"name": "",
					"type": "uint256"
				}
			],
			"stateMutability": "view",
			"type": "function"
		},
		{
			"inputs": [],
			"name": "getMyIndexes",
			"outputs": [
				{
					"internalType": "uint8[3]",
					"name": "",
					"type": "uint8[3]"
				}
			],
			"stateMutability": "view",
			"type": "function"
		},
		{
			"inputs": [
				{
					"internalType": "address",
					"name": "inputAddress",
					"type": "address"
				}
			],
			"name": "isAddressAirline",
			"outputs": [
				{
					"internalType": "bool",
					"name": "",
					"type": "bool"
				}
			],
			"stateMutability": "view",
			"type": "function"
		},
		{
			"inputs": [
				{
					"internalType": "address",
					"name": "inputAddress",
					"type": "address"
				}
			],
			"name": "isAddressFundedAirline",
			"outputs": [
				{
					"internalType": "bool",
					"name": "",
					"type": "bool"
				}
			],
			"stateMutability": "view",
			"type": "function"
		},
		{
			"inputs": [
				{
					"internalType": "address",
					"name": "inputAddress",
					"type": "address"
				}
			],
			"name": "isAddressPassenger",
			"outputs": [
				{
					"internalType": "bool",
					"name": "",
					"type": "bool"
				}
			],
			"stateMutability": "view",
			"type": "function"
		},
		{
			"inputs": [
				{
					"internalType": "address",
					"name": "inputAddress",
					"type": "address"
				}
			],
			"name": "isAddressQueuedAirline",
			"outputs": [
				{
					"internalType": "bool",
					"name": "",
					"type": "bool"
				}
			],
			"stateMutability": "view",
			"type": "function"
		},
		{
			"inputs": [],
			"name": "isOperational",
			"outputs": [
				{
					"internalType": "bool",
					"name": "",
					"type": "bool"
				}
			],
			"stateMutability": "view",
			"type": "function"
		},
		{
			"inputs": [
				{
					"internalType": "address[]",
					"name": "defaultAirlines",
					"type": "address[]"
				},
				{
					"internalType": "address[]",
					"name": "defaultPassengers",
					"type": "address[]"
				},
				{
					"internalType": "string[]",
					"name": "defaultFlightNames",
					"type": "string[]"
				},
				{
					"internalType": "uint256[]",
					"name": "defaultTimeStamps",
					"type": "uint256[]"
				}
			],
			"name": "loadDefaultContractDataForUIDemo",
			"outputs": [],
			"stateMutability": "nonpayable",
			"type": "function"
		},
		{
			"inputs": [
				{
					"internalType": "address",
					"name": "airlineAddress",
					"type": "address"
				},
				{
					"internalType": "string",
					"name": "flightName",
					"type": "string"
				},
				{
					"internalType": "uint256",
					"name": "timeStamp",
					"type": "uint256"
				}
			],
			"name": "passengerBuysInsurance",
			"outputs": [],
			"stateMutability": "payable",
			"type": "function"
		},
		{
			"inputs": [],
			"name": "payAirlineFee",
			"outputs": [],
			"stateMutability": "payable",
			"type": "function"
		},
		{
			"inputs": [
				{
					"internalType": "address",
					"name": "airline",
					"type": "address"
				},
				{
					"internalType": "string",
					"name": "flight",
					"type": "string"
				},
				{
					"internalType": "uint256",
					"name": "timestamp",
					"type": "uint256"
				},
				{
					"internalType": "uint8",
					"name": "statusCode",
					"type": "uint8"
				}
			],
			"name": "processFlightStatus",
			"outputs": [],
			"stateMutability": "nonpayable",
			"type": "function"
		},
		{
			"inputs": [
				{
					"internalType": "address",
					"name": "inputAirlineAddress",
					"type": "address"
				}
			],
			"name": "registerAirline",
			"outputs": [],
			"stateMutability": "nonpayable",
			"type": "function"
		},
		{
			"inputs": [
				{
					"internalType": "string",
					"name": "flightName",
					"type": "string"
				},
				{
					"internalType": "uint256",
					"name": "timestamp",
					"type": "uint256"
				}
			],
			"name": "registerFlight",
			"outputs": [
				{
					"internalType": "bytes32",
					"name": "",
					"type": "bytes32"
				}
			],
			"stateMutability": "nonpayable",
			"type": "function"
		},
		{
			"inputs": [
				{
					"internalType": "address",
					"name": "inputAirlineAddress",
					"type": "address"
				}
			],
			"name": "registerInitialAirline",
			"outputs": [],
			"stateMutability": "nonpayable",
			"type": "function"
		},
		{
			"inputs": [],
			"name": "registerOracle",
			"outputs": [],
			"stateMutability": "payable",
			"type": "function"
		},
		{
			"inputs": [
				{
					"internalType": "address",
					"name": "inputPassengerAddress",
					"type": "address"
				}
			],
			"name": "registerPassenger",
			"outputs": [],
			"stateMutability": "nonpayable",
			"type": "function"
		},
		{
			"inputs": [
				{
					"internalType": "address payable",
					"name": "_to",
					"type": "address"
				},
				{
					"internalType": "uint256",
					"name": "_amount",
					"type": "uint256"
				}
			],
			"name": "safeTransfer",
			"outputs": [],
			"stateMutability": "payable",
			"type": "function"
		},
		{
			"inputs": [
				{
					"internalType": "bool",
					"name": "newStatus",
					"type": "bool"
				}
			],
			"name": "setOperatingStatus",
			"outputs": [],
			"stateMutability": "nonpayable",
			"type": "function"
		},
		{
			"inputs": [
				{
					"internalType": "uint8",
					"name": "index",
					"type": "uint8"
				},
				{
					"internalType": "address",
					"name": "airline",
					"type": "address"
				},
				{
					"internalType": "string",
					"name": "flight",
					"type": "string"
				},
				{
					"internalType": "uint256",
					"name": "timestamp",
					"type": "uint256"
				},
				{
					"internalType": "uint8",
					"name": "statusCode",
					"type": "uint8"
				}
			],
			"name": "submitOracleResponse",
			"outputs": [],
			"stateMutability": "nonpayable",
			"type": "function"
		},
		{
			"stateMutability": "payable",
			"type": "receive"
		}
	]
}