{
	"data": {
		"bytecode": {
			"linkReferences": {},
			"object": "60806040526000805460ff60a01b1916600160a01b17905534801561002357600080fd5b5060008054336001600160a01b0319918216811783556002805460018181019092557f405787fa12a823e0f2b7631cc41b3ba8828b3321ca811111fa75cd3aa3bb5ace01805490931682179092558252600460209081526040808420805460ff199081168517909155600590925283208054909116905560035561139e9081906100ad90396000f3fe6080604052600436106101445760003560e01c806394c15694116100b6578063cd905dff1161006f578063cd905dff1461039b578063ced3fb9c146103b0578063d7964b98146103d0578063da349e61146103f0578063ed5509a614610403578063f2eda8461461042357610153565b806394c15694146102e6578063ae1309ec14610306578063b60d428814610326578063b7aa02311461033b578063bdfd98771461035b578063c4c2cf631461037b57610153565b806324c534cc1161010857806324c534cc14610211578063341a6ce6146102405780633cc0be9c14610262578063442890d5146102825780637ab21cdc146102a457806390e6247d146102c657610153565b8063110466ed1461015b57806313a155ea1461017b578063153e66e61461019b5780631c3c1400146101bb5780631de327e4146101f157610153565b3661015357610151610443565b005b610151610443565b34801561016757600080fd5b50610151610176366004611071565b610477565b34801561018757600080fd5b50610151610196366004610ee5565b6104bf565b3480156101a757600080fd5b506101516101b6366004610f7a565b610510565b3480156101c757600080fd5b506101db6101d6366004610ee5565b6105bb565b6040516101e89190611184565b60405180910390f35b3480156101fd57600080fd5b506101db61020c366004610f06565b610608565b34801561021d57600080fd5b5061023161022c36600461108b565b610664565b6040516101e8939291906110f6565b34801561024c57600080fd5b50610255610762565b6040516101e89190611140565b34801561026e57600080fd5b5061015161027d366004610fb5565b6107ba565b34801561028e57600080fd5b506102976108d2565b6040516101e891906110e2565b3480156102b057600080fd5b506102b96108e1565b6040516101e891906112a0565b3480156102d257600080fd5b506101516102e1366004610f38565b610912565b3480156102f257600080fd5b50610151610301366004610ee5565b610978565b34801561031257600080fd5b506101db610321366004610ee5565b610a08565b34801561033257600080fd5b50610151610443565b34801561034757600080fd5b50610151610356366004610ee5565b610a51565b34801561036757600080fd5b50610151610376366004610ee5565b610a9c565b34801561038757600080fd5b506101db610396366004610ee5565b610b63565b3480156103a757600080fd5b506101db610b81565b3480156103bc57600080fd5b506101db6103cb366004610ee5565b610b91565b3480156103dc57600080fd5b506102b96103eb366004610f06565b610bda565b6101516103fe366004610f06565b610c33565b34801561040f57600080fd5b506101db61041e366004610ee5565b610d19565b34801561042f57600080fd5b5061015161043e366004610ee5565b610da2565b600054600160a01b900460ff166104755760405162461bcd60e51b815260040161046c90611224565b60405180910390fd5b565b6000546001600160a01b031633146104a15760405162461bcd60e51b815260040161046c90611269565b60008054911515600160a01b0260ff60a01b19909216919091179055565b6000546001600160a01b031633146104e95760405162461bcd60e51b815260040161046c90611269565b6001600160a01b03166000908152600160208190526040909120805460ff19169091179055565b600054600160a01b900460ff166105395760405162461bcd60e51b815260040161046c90611224565b6001600160a01b038084166000908152600b60209081526040808320938616835292905290812082905561056e6002836112cd565b905061057a81836112a9565b6001600160a01b039485166000908152600b60209081526040808320969097168252949094529390922060018101939093555050600201805460ff19169055565b60008054600160a01b900460ff166105e55760405162461bcd60e51b815260040161046c90611224565b506001600160a01b03811660009081526007602052604090205460ff165b919050565b60008054600160a01b900460ff166106325760405162461bcd60e51b815260040161046c90611224565b506001600160a01b039182166000908152600b6020908152604080832093909416825291909152206002015460ff1690565b600080546060908290600160a01b900460ff166106935760405162461bcd60e51b815260040161046c90611224565b6000848152600a60205260408120805460019091018054620100009092046001600160a01b031692916106c59061131d565b80601f01602080910402602001604051908101604052809291908181526020018280546106f19061131d565b801561073e5780601f106107135761010080835404028352916020019161073e565b820191906000526020600020905b81548152906001019060200180831161072157829003601f168201915b50505060009889525050600a60205260409096206002015491969194509092505050565b606060098054806020026020016040519081016040528092919081815260200182805480156107b057602002820191906000526020600020905b81548152602001906001019080831161079c575b5050505050905090565b600054600160a01b900460ff166107e35760405162461bcd60e51b815260040161046c90611224565b60006107f0848484610def565b6009805460018082019092557f6e1540171b6c0c960b71a7020d9f60077f6af931a8bbf590da0223dacf75c7af018290556040805160a081018252828152600060208083018281526001600160a01b038b8116858701908152606086018c8152608087018c9052898652600a855296909420855181549351955160ff199094169015151761ff00191661010060ff909616959095029490941762010000600160b01b03191662010000929091169190910217825592518051959650919490936108be93908501920190610e25565b506080820151816002015590505050505050565b6000546001600160a01b031690565b60008054600160a01b900460ff1661090b5760405162461bcd60e51b815260040161046c90611224565b5060035490565b600054600160a01b900460ff1661093b5760405162461bcd60e51b815260040161046c90611224565b6001600160a01b039283166000908152600b6020908152604080832094909516825292909252919020600201805460ff1916911515919091179055565b600054600160a01b900460ff166109a15760405162461bcd60e51b815260040161046c90611224565b6006805460018181019092557ff652222313e28459528d920b65115c16c04f3efc82aaedc97be59f3f377c0d3f0180546001600160a01b039093166001600160a01b031990931683179055600091825260076020526040909120805460ff19169091179055565b60008054600160a01b900460ff16610a325760405162461bcd60e51b815260040161046c90611224565b506001600160a01b031660009081526004602052604090205460ff1690565b6000546001600160a01b03163314610a7b5760405162461bcd60e51b815260040161046c90611269565b6001600160a01b03166000908152600160205260409020805460ff19169055565b600054600160a01b900460ff16610ac55760405162461bcd60e51b815260040161046c90611224565b6002805460018082019092557f405787fa12a823e0f2b7631cc41b3ba8828b3321ca811111fa75cd3aa3bb5ace0180546001600160a01b0319166001600160a01b0384169081179091556000908152600460209081526040808320805460ff1990811686179091556005835281842080548216905591849052822080549091168317905560038054909190610b5b9084906112a9565b909155505050565b6001600160a01b031660009081526001602052604090205460ff1690565b600054600160a01b900460ff1690565b60008054600160a01b900460ff16610bbb5760405162461bcd60e51b815260040161046c90611224565b506001600160a01b031660009081526001602052604090205460ff1690565b60008054600160a01b900460ff16610c045760405162461bcd60e51b815260040161046c90611224565b506001600160a01b039182166000908152600b6020908152604080832093909416825291909152206001015490565b600054600160a01b900460ff16610c5c5760405162461bcd60e51b815260040161046c90611224565b6001600160a01b038083166000908152600b602090815260408083209385168352929052206002015460ff161515600114610ca95760405162461bcd60e51b815260040161046c906111ed565b6001600160a01b038281166000818152600b602090815260408083209486168352939052828120600181018054908390556002909101805460ff1916905592518592916108fc851502918591818181858888f19350505050158015610d12573d6000803e3d6000fd5b5050505050565b60008054600160a01b900460ff16610d435760405162461bcd60e51b815260040161046c90611224565b6001600160a01b038216600090815260046020526040902054829060ff16610d7d5760405162461bcd60e51b815260040161046c9061118f565b6001600160a01b03831660009081526005602052604090205460ff1691505b50919050565b600054600160a01b900460ff16610dcb5760405162461bcd60e51b815260040161046c90611224565b6001600160a01b03166000908152600560205260409020805460ff19166001179055565b6000838383604051602001610e06939291906110a3565b6040516020818303038152906040528051906020012090509392505050565b828054610e319061131d565b90600052602060002090601f016020900481019282610e535760008555610e99565b82601f10610e6c57805160ff1916838001178555610e99565b82800160010185558215610e99579182015b82811115610e99578251825591602001919060010190610e7e565b50610ea5929150610ea9565b5090565b5b80821115610ea55760008155600101610eaa565b80356001600160a01b038116811461060357600080fd5b8035801515811461060357600080fd5b600060208284031215610ef6578081fd5b610eff82610ebe565b9392505050565b60008060408385031215610f18578081fd5b610f2183610ebe565b9150610f2f60208401610ebe565b90509250929050565b600080600060608486031215610f4c578081fd5b610f5584610ebe565b9250610f6360208501610ebe565b9150610f7160408501610ed5565b90509250925092565b600080600060608486031215610f8e578283fd5b610f9784610ebe565b9250610fa560208501610ebe565b9150604084013590509250925092565b600080600060608486031215610fc9578283fd5b610fd284610ebe565b925060208085013567ffffffffffffffff80821115610fef578485fd5b818701915087601f830112611002578485fd5b81358181111561101457611014611352565b604051601f8201601f191681018501838111828210171561103757611037611352565b60405281815283820185018a101561104d578687fd5b81858501868301379081019093019490945250929592945050506040919091013590565b600060208284031215611082578081fd5b610eff82610ed5565b60006020828403121561109c578081fd5b5035919050565b60006bffffffffffffffffffffffff198560601b16825283516110cd8160148501602088016112ed565b60149201918201929092526034019392505050565b6001600160a01b0391909116815260200190565b600060018060a01b03851682526060602083015283518060608401526111238160808501602088016112ed565b604083019390935250601f91909101601f19160160800192915050565b6020808252825182820181905260009190848201906040850190845b818110156111785783518352928401929184019160010161115c565b50909695505050505050565b901515815260200190565b602080825260409082018190527f54686520737570706c6965642061646472657373206973206e6f7420616e2061908201527f69726c696e652c2063616e6e6f742075736520746869732066756e6374696f6e606082015260800190565b6020808252601c908201527f4e6f7420617574686f72697a656420666f722072657061796d656e7400000000604082015260600190565b60208082526025908201527f436f6e74726163742069732063757272656e746c79206e6f74206f70657261746040820152641a5bdb985b60da1b606082015260800190565b6020808252601c908201527f43616c6c6572206973206e6f7420636f6e7472616374206f776e657200000000604082015260600190565b90815260200190565b600082198211156112c857634e487b7160e01b81526011600452602481fd5b500190565b6000826112e857634e487b7160e01b81526012600452602481fd5b500490565b60005b838110156113085781810151838201526020016112f0565b83811115611317576000848401525b50505050565b60028104600182168061133157607f821691505b60208210811415610d9c57634e487b7160e01b600052602260045260246000fd5b634e487b7160e01b600052604160045260246000fdfea26469706673582212207821cafad2815f7cdcdf4c03a4bc4fe799d81cbbf30570129471c538c06e080e64736f6c63430008000033",
			"opcodes": "PUSH1 0x80 PUSH1 0x40 MSTORE PUSH1 0x0 DUP1 SLOAD PUSH1 0xFF PUSH1 0xA0 SHL NOT AND PUSH1 0x1 PUSH1 0xA0 SHL OR SWAP1 SSTORE CALLVALUE DUP1 ISZERO PUSH2 0x23 JUMPI PUSH1 0x0 DUP1 REVERT JUMPDEST POP PUSH1 0x0 DUP1 SLOAD CALLER PUSH1 0x1 PUSH1 0x1 PUSH1 0xA0 SHL SUB NOT SWAP2 DUP3 AND DUP2 OR DUP4 SSTORE PUSH1 0x2 DUP1 SLOAD PUSH1 0x1 DUP2 DUP2 ADD SWAP1 SWAP3 SSTORE PUSH32 0x405787FA12A823E0F2B7631CC41B3BA8828B3321CA811111FA75CD3AA3BB5ACE ADD DUP1 SLOAD SWAP1 SWAP4 AND DUP3 OR SWAP1 SWAP3 SSTORE DUP3 MSTORE PUSH1 0x4 PUSH1 0x20 SWAP1 DUP2 MSTORE PUSH1 0x40 DUP1 DUP5 KECCAK256 DUP1 SLOAD PUSH1 0xFF NOT SWAP1 DUP2 AND DUP6 OR SWAP1 SWAP2 SSTORE PUSH1 0x5 SWAP1 SWAP3 MSTORE DUP4 KECCAK256 DUP1 SLOAD SWAP1 SWAP2 AND SWAP1 SSTORE PUSH1 0x3 SSTORE PUSH2 0x139E SWAP1 DUP2 SWAP1 PUSH2 0xAD SWAP1 CODECOPY PUSH1 0x0 RETURN INVALID PUSH1 0x80 PUSH1 0x40 MSTORE PUSH1 0x4 CALLDATASIZE LT PUSH2 0x144 JUMPI PUSH1 0x0 CALLDATALOAD PUSH1 0xE0 SHR DUP1 PUSH4 0x94C15694 GT PUSH2 0xB6 JUMPI DUP1 PUSH4 0xCD905DFF GT PUSH2 0x6F JUMPI DUP1 PUSH4 0xCD905DFF EQ PUSH2 0x39B JUMPI DUP1 PUSH4 0xCED3FB9C EQ PUSH2 0x3B0 JUMPI DUP1 PUSH4 0xD7964B98 EQ PUSH2 0x3D0 JUMPI DUP1 PUSH4 0xDA349E61 EQ PUSH2 0x3F0 JUMPI DUP1 PUSH4 0xED5509A6 EQ PUSH2 0x403 JUMPI DUP1 PUSH4 0xF2EDA846 EQ PUSH2 0x423 JUMPI PUSH2 0x153 JUMP JUMPDEST DUP1 PUSH4 0x94C15694 EQ PUSH2 0x2E6 JUMPI DUP1 PUSH4 0xAE1309EC EQ PUSH2 0x306 JUMPI DUP1 PUSH4 0xB60D4288 EQ PUSH2 0x326 JUMPI DUP1 PUSH4 0xB7AA0231 EQ PUSH2 0x33B JUMPI DUP1 PUSH4 0xBDFD9877 EQ PUSH2 0x35B JUMPI DUP1 PUSH4 0xC4C2CF63 EQ PUSH2 0x37B JUMPI PUSH2 0x153 JUMP JUMPDEST DUP1 PUSH4 0x24C534CC GT PUSH2 0x108 JUMPI DUP1 PUSH4 0x24C534CC EQ PUSH2 0x211 JUMPI DUP1 PUSH4 0x341A6CE6 EQ PUSH2 0x240 JUMPI DUP1 PUSH4 0x3CC0BE9C EQ PUSH2 0x262 JUMPI DUP1 PUSH4 0x442890D5 EQ PUSH2 0x282 JUMPI DUP1 PUSH4 0x7AB21CDC EQ PUSH2 0x2A4 JUMPI DUP1 PUSH4 0x90E6247D EQ PUSH2 0x2C6 JUMPI PUSH2 0x153 JUMP JUMPDEST DUP1 PUSH4 0x110466ED EQ PUSH2 0x15B JUMPI DUP1 PUSH4 0x13A155EA EQ PUSH2 0x17B JUMPI DUP1 PUSH4 0x153E66E6 EQ PUSH2 0x19B JUMPI DUP1 PUSH4 0x1C3C1400 EQ PUSH2 0x1BB JUMPI DUP1 PUSH4 0x1DE327E4 EQ PUSH2 0x1F1 JUMPI PUSH2 0x153 JUMP JUMPDEST CALLDATASIZE PUSH2 0x153 JUMPI PUSH2 0x151 PUSH2 0x443 JUMP JUMPDEST STOP JUMPDEST PUSH2 0x151 PUSH2 0x443 JUMP JUMPDEST CALLVALUE DUP1 ISZERO PUSH2 0x167 JUMPI PUSH1 0x0 DUP1 REVERT JUMPDEST POP PUSH2 0x151 PUSH2 0x176 CALLDATASIZE PUSH1 0x4 PUSH2 0x1071 JUMP JUMPDEST PUSH2 0x477 JUMP JUMPDEST CALLVALUE DUP1 ISZERO PUSH2 0x187 JUMPI PUSH1 0x0 DUP1 REVERT JUMPDEST POP PUSH2 0x151 PUSH2 0x196 CALLDATASIZE PUSH1 0x4 PUSH2 0xEE5 JUMP JUMPDEST PUSH2 0x4BF JUMP JUMPDEST CALLVALUE DUP1 ISZERO PUSH2 0x1A7 JUMPI PUSH1 0x0 DUP1 REVERT JUMPDEST POP PUSH2 0x151 PUSH2 0x1B6 CALLDATASIZE PUSH1 0x4 PUSH2 0xF7A JUMP JUMPDEST PUSH2 0x510 JUMP JUMPDEST CALLVALUE DUP1 ISZERO PUSH2 0x1C7 JUMPI PUSH1 0x0 DUP1 REVERT JUMPDEST POP PUSH2 0x1DB PUSH2 0x1D6 CALLDATASIZE PUSH1 0x4 PUSH2 0xEE5 JUMP JUMPDEST PUSH2 0x5BB JUMP JUMPDEST PUSH1 0x40 MLOAD PUSH2 0x1E8 SWAP2 SWAP1 PUSH2 0x1184 JUMP JUMPDEST PUSH1 0x40 MLOAD DUP1 SWAP2 SUB SWAP1 RETURN JUMPDEST CALLVALUE DUP1 ISZERO PUSH2 0x1FD JUMPI PUSH1 0x0 DUP1 REVERT JUMPDEST POP PUSH2 0x1DB PUSH2 0x20C CALLDATASIZE PUSH1 0x4 PUSH2 0xF06 JUMP JUMPDEST PUSH2 0x608 JUMP JUMPDEST CALLVALUE DUP1 ISZERO PUSH2 0x21D JUMPI PUSH1 0x0 DUP1 REVERT JUMPDEST POP PUSH2 0x231 PUSH2 0x22C CALLDATASIZE PUSH1 0x4 PUSH2 0x108B JUMP JUMPDEST PUSH2 0x664 JUMP JUMPDEST PUSH1 0x40 MLOAD PUSH2 0x1E8 SWAP4 SWAP3 SWAP2 SWAP1 PUSH2 0x10F6 JUMP JUMPDEST CALLVALUE DUP1 ISZERO PUSH2 0x24C JUMPI PUSH1 0x0 DUP1 REVERT JUMPDEST POP PUSH2 0x255 PUSH2 0x762 JUMP JUMPDEST PUSH1 0x40 MLOAD PUSH2 0x1E8 SWAP2 SWAP1 PUSH2 0x1140 JUMP JUMPDEST CALLVALUE DUP1 ISZERO PUSH2 0x26E JUMPI PUSH1 0x0 DUP1 REVERT JUMPDEST POP PUSH2 0x151 PUSH2 0x27D CALLDATASIZE PUSH1 0x4 PUSH2 0xFB5 JUMP JUMPDEST PUSH2 0x7BA JUMP JUMPDEST CALLVALUE DUP1 ISZERO PUSH2 0x28E JUMPI PUSH1 0x0 DUP1 REVERT JUMPDEST POP PUSH2 0x297 PUSH2 0x8D2 JUMP JUMPDEST PUSH1 0x40 MLOAD PUSH2 0x1E8 SWAP2 SWAP1 PUSH2 0x10E2 JUMP JUMPDEST CALLVALUE DUP1 ISZERO PUSH2 0x2B0 JUMPI PUSH1 0x0 DUP1 REVERT JUMPDEST POP PUSH2 0x2B9 PUSH2 0x8E1 JUMP JUMPDEST PUSH1 0x40 MLOAD PUSH2 0x1E8 SWAP2 SWAP1 PUSH2 0x12A0 JUMP JUMPDEST CALLVALUE DUP1 ISZERO PUSH2 0x2D2 JUMPI PUSH1 0x0 DUP1 REVERT JUMPDEST POP PUSH2 0x151 PUSH2 0x2E1 CALLDATASIZE PUSH1 0x4 PUSH2 0xF38 JUMP JUMPDEST PUSH2 0x912 JUMP JUMPDEST CALLVALUE DUP1 ISZERO PUSH2 0x2F2 JUMPI PUSH1 0x0 DUP1 REVERT JUMPDEST POP PUSH2 0x151 PUSH2 0x301 CALLDATASIZE PUSH1 0x4 PUSH2 0xEE5 JUMP JUMPDEST PUSH2 0x978 JUMP JUMPDEST CALLVALUE DUP1 ISZERO PUSH2 0x312 JUMPI PUSH1 0x0 DUP1 REVERT JUMPDEST POP PUSH2 0x1DB PUSH2 0x321 CALLDATASIZE PUSH1 0x4 PUSH2 0xEE5 JUMP JUMPDEST PUSH2 0xA08 JUMP JUMPDEST CALLVALUE DUP1 ISZERO PUSH2 0x332 JUMPI PUSH1 0x0 DUP1 REVERT JUMPDEST POP PUSH2 0x151 PUSH2 0x443 JUMP JUMPDEST CALLVALUE DUP1 ISZERO PUSH2 0x347 JUMPI PUSH1 0x0 DUP1 REVERT JUMPDEST POP PUSH2 0x151 PUSH2 0x356 CALLDATASIZE PUSH1 0x4 PUSH2 0xEE5 JUMP JUMPDEST PUSH2 0xA51 JUMP JUMPDEST CALLVALUE DUP1 ISZERO PUSH2 0x367 JUMPI PUSH1 0x0 DUP1 REVERT JUMPDEST POP PUSH2 0x151 PUSH2 0x376 CALLDATASIZE PUSH1 0x4 PUSH2 0xEE5 JUMP JUMPDEST PUSH2 0xA9C JUMP JUMPDEST CALLVALUE DUP1 ISZERO PUSH2 0x387 JUMPI PUSH1 0x0 DUP1 REVERT JUMPDEST POP PUSH2 0x1DB PUSH2 0x396 CALLDATASIZE PUSH1 0x4 PUSH2 0xEE5 JUMP JUMPDEST PUSH2 0xB63 JUMP JUMPDEST CALLVALUE DUP1 ISZERO PUSH2 0x3A7 JUMPI PUSH1 0x0 DUP1 REVERT JUMPDEST POP PUSH2 0x1DB PUSH2 0xB81 JUMP JUMPDEST CALLVALUE DUP1 ISZERO PUSH2 0x3BC JUMPI PUSH1 0x0 DUP1 REVERT JUMPDEST POP PUSH2 0x1DB PUSH2 0x3CB CALLDATASIZE PUSH1 0x4 PUSH2 0xEE5 JUMP JUMPDEST PUSH2 0xB91 JUMP JUMPDEST CALLVALUE DUP1 ISZERO PUSH2 0x3DC JUMPI PUSH1 0x0 DUP1 REVERT JUMPDEST POP PUSH2 0x2B9 PUSH2 0x3EB CALLDATASIZE PUSH1 0x4 PUSH2 0xF06 JUMP JUMPDEST PUSH2 0xBDA JUMP JUMPDEST PUSH2 0x151 PUSH2 0x3FE CALLDATASIZE PUSH1 0x4 PUSH2 0xF06 JUMP JUMPDEST PUSH2 0xC33 JUMP JUMPDEST CALLVALUE DUP1 ISZERO PUSH2 0x40F JUMPI PUSH1 0x0 DUP1 REVERT JUMPDEST POP PUSH2 0x1DB PUSH2 0x41E CALLDATASIZE PUSH1 0x4 PUSH2 0xEE5 JUMP JUMPDEST PUSH2 0xD19 JUMP JUMPDEST CALLVALUE DUP1 ISZERO PUSH2 0x42F JUMPI PUSH1 0x0 DUP1 REVERT JUMPDEST POP PUSH2 0x151 PUSH2 0x43E CALLDATASIZE PUSH1 0x4 PUSH2 0xEE5 JUMP JUMPDEST PUSH2 0xDA2 JUMP JUMPDEST PUSH1 0x0 SLOAD PUSH1 0x1 PUSH1 0xA0 SHL SWAP1 DIV PUSH1 0xFF AND PUSH2 0x475 JUMPI PUSH1 0x40 MLOAD PUSH3 0x461BCD PUSH1 0xE5 SHL DUP2 MSTORE PUSH1 0x4 ADD PUSH2 0x46C SWAP1 PUSH2 0x1224 JUMP JUMPDEST PUSH1 0x40 MLOAD DUP1 SWAP2 SUB SWAP1 REVERT JUMPDEST JUMP JUMPDEST PUSH1 0x0 SLOAD PUSH1 0x1 PUSH1 0x1 PUSH1 0xA0 SHL SUB AND CALLER EQ PUSH2 0x4A1 JUMPI PUSH1 0x40 MLOAD PUSH3 0x461BCD PUSH1 0xE5 SHL DUP2 MSTORE PUSH1 0x4 ADD PUSH2 0x46C SWAP1 PUSH2 0x1269 JUMP JUMPDEST PUSH1 0x0 DUP1 SLOAD SWAP2 ISZERO ISZERO PUSH1 0x1 PUSH1 0xA0 SHL MUL PUSH1 0xFF PUSH1 0xA0 SHL NOT SWAP1 SWAP3 AND SWAP2 SWAP1 SWAP2 OR SWAP1 SSTORE JUMP JUMPDEST PUSH1 0x0 SLOAD PUSH1 0x1 PUSH1 0x1 PUSH1 0xA0 SHL SUB AND CALLER EQ PUSH2 0x4E9 JUMPI PUSH1 0x40 MLOAD PUSH3 0x461BCD PUSH1 0xE5 SHL DUP2 MSTORE PUSH1 0x4 ADD PUSH2 0x46C SWAP1 PUSH2 0x1269 JUMP JUMPDEST PUSH1 0x1 PUSH1 0x1 PUSH1 0xA0 SHL SUB AND PUSH1 0x0 SWAP1 DUP2 MSTORE PUSH1 0x1 PUSH1 0x20 DUP2 SWAP1 MSTORE PUSH1 0x40 SWAP1 SWAP2 KECCAK256 DUP1 SLOAD PUSH1 0xFF NOT AND SWAP1 SWAP2 OR SWAP1 SSTORE JUMP JUMPDEST PUSH1 0x0 SLOAD PUSH1 0x1 PUSH1 0xA0 SHL SWAP1 DIV PUSH1 0xFF AND PUSH2 0x539 JUMPI PUSH1 0x40 MLOAD PUSH3 0x461BCD PUSH1 0xE5 SHL DUP2 MSTORE PUSH1 0x4 ADD PUSH2 0x46C SWAP1 PUSH2 0x1224 JUMP JUMPDEST PUSH1 0x1 PUSH1 0x1 PUSH1 0xA0 SHL SUB DUP1 DUP5 AND PUSH1 0x0 SWAP1 DUP2 MSTORE PUSH1 0xB PUSH1 0x20 SWAP1 DUP2 MSTORE PUSH1 0x40 DUP1 DUP4 KECCAK256 SWAP4 DUP7 AND DUP4 MSTORE SWAP3 SWAP1 MSTORE SWAP1 DUP2 KECCAK256 DUP3 SWAP1 SSTORE PUSH2 0x56E PUSH1 0x2 DUP4 PUSH2 0x12CD JUMP JUMPDEST SWAP1 POP PUSH2 0x57A DUP2 DUP4 PUSH2 0x12A9 JUMP JUMPDEST PUSH1 0x1 PUSH1 0x1 PUSH1 0xA0 SHL SUB SWAP5 DUP6 AND PUSH1 0x0 SWAP1 DUP2 MSTORE PUSH1 0xB PUSH1 0x20 SWAP1 DUP2 MSTORE PUSH1 0x40 DUP1 DUP4 KECCAK256 SWAP7 SWAP1 SWAP8 AND DUP3 MSTORE SWAP5 SWAP1 SWAP5 MSTORE SWAP4 SWAP1 SWAP3 KECCAK256 PUSH1 0x1 DUP2 ADD SWAP4 SWAP1 SWAP4 SSTORE POP POP PUSH1 0x2 ADD DUP1 SLOAD PUSH1 0xFF NOT AND SWAP1 SSTORE JUMP JUMPDEST PUSH1 0x0 DUP1 SLOAD PUSH1 0x1 PUSH1 0xA0 SHL SWAP1 DIV PUSH1 0xFF AND PUSH2 0x5E5 JUMPI PUSH1 0x40 MLOAD PUSH3 0x461BCD PUSH1 0xE5 SHL DUP2 MSTORE PUSH1 0x4 ADD PUSH2 0x46C SWAP1 PUSH2 0x1224 JUMP JUMPDEST POP PUSH1 0x1 PUSH1 0x1 PUSH1 0xA0 SHL SUB DUP2 AND PUSH1 0x0 SWAP1 DUP2 MSTORE PUSH1 0x7 PUSH1 0x20 MSTORE PUSH1 0x40 SWAP1 KECCAK256 SLOAD PUSH1 0xFF AND JUMPDEST SWAP2 SWAP1 POP JUMP JUMPDEST PUSH1 0x0 DUP1 SLOAD PUSH1 0x1 PUSH1 0xA0 SHL SWAP1 DIV PUSH1 0xFF AND PUSH2 0x632 JUMPI PUSH1 0x40 MLOAD PUSH3 0x461BCD PUSH1 0xE5 SHL DUP2 MSTORE PUSH1 0x4 ADD PUSH2 0x46C SWAP1 PUSH2 0x1224 JUMP JUMPDEST POP PUSH1 0x1 PUSH1 0x1 PUSH1 0xA0 SHL SUB SWAP2 DUP3 AND PUSH1 0x0 SWAP1 DUP2 MSTORE PUSH1 0xB PUSH1 0x20 SWAP1 DUP2 MSTORE PUSH1 0x40 DUP1 DUP4 KECCAK256 SWAP4 SWAP1 SWAP5 AND DUP3 MSTORE SWAP2 SWAP1 SWAP2 MSTORE KECCAK256 PUSH1 0x2 ADD SLOAD PUSH1 0xFF AND SWAP1 JUMP JUMPDEST PUSH1 0x0 DUP1 SLOAD PUSH1 0x60 SWAP1 DUP3 SWAP1 PUSH1 0x1 PUSH1 0xA0 SHL SWAP1 DIV PUSH1 0xFF AND PUSH2 0x693 JUMPI PUSH1 0x40 MLOAD PUSH3 0x461BCD PUSH1 0xE5 SHL DUP2 MSTORE PUSH1 0x4 ADD PUSH2 0x46C SWAP1 PUSH2 0x1224 JUMP JUMPDEST PUSH1 0x0 DUP5 DUP2 MSTORE PUSH1 0xA PUSH1 0x20 MSTORE PUSH1 0x40 DUP2 KECCAK256 DUP1 SLOAD PUSH1 0x1 SWAP1 SWAP2 ADD DUP1 SLOAD PUSH3 0x10000 SWAP1 SWAP3 DIV PUSH1 0x1 PUSH1 0x1 PUSH1 0xA0 SHL SUB AND SWAP3 SWAP2 PUSH2 0x6C5 SWAP1 PUSH2 0x131D JUMP JUMPDEST DUP1 PUSH1 0x1F ADD PUSH1 0x20 DUP1 SWAP2 DIV MUL PUSH1 0x20 ADD PUSH1 0x40 MLOAD SWAP1 DUP2 ADD PUSH1 0x40 MSTORE DUP1 SWAP3 SWAP2 SWAP1 DUP2 DUP2 MSTORE PUSH1 0x20 ADD DUP3 DUP1 SLOAD PUSH2 0x6F1 SWAP1 PUSH2 0x131D JUMP JUMPDEST DUP1 ISZERO PUSH2 0x73E JUMPI DUP1 PUSH1 0x1F LT PUSH2 0x713 JUMPI PUSH2 0x100 DUP1 DUP4 SLOAD DIV MUL DUP4 MSTORE SWAP2 PUSH1 0x20 ADD SWAP2 PUSH2 0x73E JUMP JUMPDEST DUP3 ADD SWAP2 SWAP1 PUSH1 0x0 MSTORE PUSH1 0x20 PUSH1 0x0 KECCAK256 SWAP1 JUMPDEST DUP2 SLOAD DUP2 MSTORE SWAP1 PUSH1 0x1 ADD SWAP1 PUSH1 0x20 ADD DUP1 DUP4 GT PUSH2 0x721 JUMPI DUP3 SWAP1 SUB PUSH1 0x1F AND DUP3 ADD SWAP2 JUMPDEST POP POP POP PUSH1 0x0 SWAP9 DUP10 MSTORE POP POP PUSH1 0xA PUSH1 0x20 MSTORE PUSH1 0x40 SWAP1 SWAP7 KECCAK256 PUSH1 0x2 ADD SLOAD SWAP2 SWAP7 SWAP2 SWAP5 POP SWAP1 SWAP3 POP POP POP JUMP JUMPDEST PUSH1 0x60 PUSH1 0x9 DUP1 SLOAD DUP1 PUSH1 0x20 MUL PUSH1 0x20 ADD PUSH1 0x40 MLOAD SWAP1 DUP2 ADD PUSH1 0x40 MSTORE DUP1 SWAP3 SWAP2 SWAP1 DUP2 DUP2 MSTORE PUSH1 0x20 ADD DUP3 DUP1 SLOAD DUP1 ISZERO PUSH2 0x7B0 JUMPI PUSH1 0x20 MUL DUP3 ADD SWAP2 SWAP1 PUSH1 0x0 MSTORE PUSH1 0x20 PUSH1 0x0 KECCAK256 SWAP1 JUMPDEST DUP2 SLOAD DUP2 MSTORE PUSH1 0x20 ADD SWAP1 PUSH1 0x1 ADD SWAP1 DUP1 DUP4 GT PUSH2 0x79C JUMPI JUMPDEST POP POP POP POP POP SWAP1 POP SWAP1 JUMP JUMPDEST PUSH1 0x0 SLOAD PUSH1 0x1 PUSH1 0xA0 SHL SWAP1 DIV PUSH1 0xFF AND PUSH2 0x7E3 JUMPI PUSH1 0x40 MLOAD PUSH3 0x461BCD PUSH1 0xE5 SHL DUP2 MSTORE PUSH1 0x4 ADD PUSH2 0x46C SWAP1 PUSH2 0x1224 JUMP JUMPDEST PUSH1 0x0 PUSH2 0x7F0 DUP5 DUP5 DUP5 PUSH2 0xDEF JUMP JUMPDEST PUSH1 0x9 DUP1 SLOAD PUSH1 0x1 DUP1 DUP3 ADD SWAP1 SWAP3 SSTORE PUSH32 0x6E1540171B6C0C960B71A7020D9F60077F6AF931A8BBF590DA0223DACF75C7AF ADD DUP3 SWAP1 SSTORE PUSH1 0x40 DUP1 MLOAD PUSH1 0xA0 DUP2 ADD DUP3 MSTORE DUP3 DUP2 MSTORE PUSH1 0x0 PUSH1 0x20 DUP1 DUP4 ADD DUP3 DUP2 MSTORE PUSH1 0x1 PUSH1 0x1 PUSH1 0xA0 SHL SUB DUP12 DUP2 AND DUP6 DUP8 ADD SWAP1 DUP2 MSTORE PUSH1 0x60 DUP7 ADD DUP13 DUP2 MSTORE PUSH1 0x80 DUP8 ADD DUP13 SWAP1 MSTORE DUP10 DUP7 MSTORE PUSH1 0xA DUP6 MSTORE SWAP7 SWAP1 SWAP5 KECCAK256 DUP6 MLOAD DUP2 SLOAD SWAP4 MLOAD SWAP6 MLOAD PUSH1 0xFF NOT SWAP1 SWAP5 AND SWAP1 ISZERO ISZERO OR PUSH2 0xFF00 NOT AND PUSH2 0x100 PUSH1 0xFF SWAP1 SWAP7 AND SWAP6 SWAP1 SWAP6 MUL SWAP5 SWAP1 SWAP5 OR PUSH3 0x10000 PUSH1 0x1 PUSH1 0xB0 SHL SUB NOT AND PUSH3 0x10000 SWAP3 SWAP1 SWAP2 AND SWAP2 SWAP1 SWAP2 MUL OR DUP3 SSTORE SWAP3 MLOAD DUP1 MLOAD SWAP6 SWAP7 POP SWAP2 SWAP5 SWAP1 SWAP4 PUSH2 0x8BE SWAP4 SWAP1 DUP6 ADD SWAP3 ADD SWAP1 PUSH2 0xE25 JUMP JUMPDEST POP PUSH1 0x80 DUP3 ADD MLOAD DUP2 PUSH1 0x2 ADD SSTORE SWAP1 POP POP POP POP POP POP JUMP JUMPDEST PUSH1 0x0 SLOAD PUSH1 0x1 PUSH1 0x1 PUSH1 0xA0 SHL SUB AND SWAP1 JUMP JUMPDEST PUSH1 0x0 DUP1 SLOAD PUSH1 0x1 PUSH1 0xA0 SHL SWAP1 DIV PUSH1 0xFF AND PUSH2 0x90B JUMPI PUSH1 0x40 MLOAD PUSH3 0x461BCD PUSH1 0xE5 SHL DUP2 MSTORE PUSH1 0x4 ADD PUSH2 0x46C SWAP1 PUSH2 0x1224 JUMP JUMPDEST POP PUSH1 0x3 SLOAD SWAP1 JUMP JUMPDEST PUSH1 0x0 SLOAD PUSH1 0x1 PUSH1 0xA0 SHL SWAP1 DIV PUSH1 0xFF AND PUSH2 0x93B JUMPI PUSH1 0x40 MLOAD PUSH3 0x461BCD PUSH1 0xE5 SHL DUP2 MSTORE PUSH1 0x4 ADD PUSH2 0x46C SWAP1 PUSH2 0x1224 JUMP JUMPDEST PUSH1 0x1 PUSH1 0x1 PUSH1 0xA0 SHL SUB SWAP3 DUP4 AND PUSH1 0x0 SWAP1 DUP2 MSTORE PUSH1 0xB PUSH1 0x20 SWAP1 DUP2 MSTORE PUSH1 0x40 DUP1 DUP4 KECCAK256 SWAP5 SWAP1 SWAP6 AND DUP3 MSTORE SWAP3 SWAP1 SWAP3 MSTORE SWAP2 SWAP1 KECCAK256 PUSH1 0x2 ADD DUP1 SLOAD PUSH1 0xFF NOT AND SWAP2 ISZERO ISZERO SWAP2 SWAP1 SWAP2 OR SWAP1 SSTORE JUMP JUMPDEST PUSH1 0x0 SLOAD PUSH1 0x1 PUSH1 0xA0 SHL SWAP1 DIV PUSH1 0xFF AND PUSH2 0x9A1 JUMPI PUSH1 0x40 MLOAD PUSH3 0x461BCD PUSH1 0xE5 SHL DUP2 MSTORE PUSH1 0x4 ADD PUSH2 0x46C SWAP1 PUSH2 0x1224 JUMP JUMPDEST PUSH1 0x6 DUP1 SLOAD PUSH1 0x1 DUP2 DUP2 ADD SWAP1 SWAP3 SSTORE PUSH32 0xF652222313E28459528D920B65115C16C04F3EFC82AAEDC97BE59F3F377C0D3F ADD DUP1 SLOAD PUSH1 0x1 PUSH1 0x1 PUSH1 0xA0 SHL SUB SWAP1 SWAP4 AND PUSH1 0x1 PUSH1 0x1 PUSH1 0xA0 SHL SUB NOT SWAP1 SWAP4 AND DUP4 OR SWAP1 SSTORE PUSH1 0x0 SWAP2 DUP3 MSTORE PUSH1 0x7 PUSH1 0x20 MSTORE PUSH1 0x40 SWAP1 SWAP2 KECCAK256 DUP1 SLOAD PUSH1 0xFF NOT AND SWAP1 SWAP2 OR SWAP1 SSTORE JUMP JUMPDEST PUSH1 0x0 DUP1 SLOAD PUSH1 0x1 PUSH1 0xA0 SHL SWAP1 DIV PUSH1 0xFF AND PUSH2 0xA32 JUMPI PUSH1 0x40 MLOAD PUSH3 0x461BCD PUSH1 0xE5 SHL DUP2 MSTORE PUSH1 0x4 ADD PUSH2 0x46C SWAP1 PUSH2 0x1224 JUMP JUMPDEST POP PUSH1 0x1 PUSH1 0x1 PUSH1 0xA0 SHL SUB AND PUSH1 0x0 SWAP1 DUP2 MSTORE PUSH1 0x4 PUSH1 0x20 MSTORE PUSH1 0x40 SWAP1 KECCAK256 SLOAD PUSH1 0xFF AND SWAP1 JUMP JUMPDEST PUSH1 0x0 SLOAD PUSH1 0x1 PUSH1 0x1 PUSH1 0xA0 SHL SUB AND CALLER EQ PUSH2 0xA7B JUMPI PUSH1 0x40 MLOAD PUSH3 0x461BCD PUSH1 0xE5 SHL DUP2 MSTORE PUSH1 0x4 ADD PUSH2 0x46C SWAP1 PUSH2 0x1269 JUMP JUMPDEST PUSH1 0x1 PUSH1 0x1 PUSH1 0xA0 SHL SUB AND PUSH1 0x0 SWAP1 DUP2 MSTORE PUSH1 0x1 PUSH1 0x20 MSTORE PUSH1 0x40 SWAP1 KECCAK256 DUP1 SLOAD PUSH1 0xFF NOT AND SWAP1 SSTORE JUMP JUMPDEST PUSH1 0x0 SLOAD PUSH1 0x1 PUSH1 0xA0 SHL SWAP1 DIV PUSH1 0xFF AND PUSH2 0xAC5 JUMPI PUSH1 0x40 MLOAD PUSH3 0x461BCD PUSH1 0xE5 SHL DUP2 MSTORE PUSH1 0x4 ADD PUSH2 0x46C SWAP1 PUSH2 0x1224 JUMP JUMPDEST PUSH1 0x2 DUP1 SLOAD PUSH1 0x1 DUP1 DUP3 ADD SWAP1 SWAP3 SSTORE PUSH32 0x405787FA12A823E0F2B7631CC41B3BA8828B3321CA811111FA75CD3AA3BB5ACE ADD DUP1 SLOAD PUSH1 0x1 PUSH1 0x1 PUSH1 0xA0 SHL SUB NOT AND PUSH1 0x1 PUSH1 0x1 PUSH1 0xA0 SHL SUB DUP5 AND SWAP1 DUP2 OR SWAP1 SWAP2 SSTORE PUSH1 0x0 SWAP1 DUP2 MSTORE PUSH1 0x4 PUSH1 0x20 SWAP1 DUP2 MSTORE PUSH1 0x40 DUP1 DUP4 KECCAK256 DUP1 SLOAD PUSH1 0xFF NOT SWAP1 DUP2 AND DUP7 OR SWAP1 SWAP2 SSTORE PUSH1 0x5 DUP4 MSTORE DUP2 DUP5 KECCAK256 DUP1 SLOAD DUP3 AND SWAP1 SSTORE SWAP2 DUP5 SWAP1 MSTORE DUP3 KECCAK256 DUP1 SLOAD SWAP1 SWAP2 AND DUP4 OR SWAP1 SSTORE PUSH1 0x3 DUP1 SLOAD SWAP1 SWAP2 SWAP1 PUSH2 0xB5B SWAP1 DUP5 SWAP1 PUSH2 0x12A9 JUMP JUMPDEST SWAP1 SWAP2 SSTORE POP POP POP JUMP JUMPDEST PUSH1 0x1 PUSH1 0x1 PUSH1 0xA0 SHL SUB AND PUSH1 0x0 SWAP1 DUP2 MSTORE PUSH1 0x1 PUSH1 0x20 MSTORE PUSH1 0x40 SWAP1 KECCAK256 SLOAD PUSH1 0xFF AND SWAP1 JUMP JUMPDEST PUSH1 0x0 SLOAD PUSH1 0x1 PUSH1 0xA0 SHL SWAP1 DIV PUSH1 0xFF AND SWAP1 JUMP JUMPDEST PUSH1 0x0 DUP1 SLOAD PUSH1 0x1 PUSH1 0xA0 SHL SWAP1 DIV PUSH1 0xFF AND PUSH2 0xBBB JUMPI PUSH1 0x40 MLOAD PUSH3 0x461BCD PUSH1 0xE5 SHL DUP2 MSTORE PUSH1 0x4 ADD PUSH2 0x46C SWAP1 PUSH2 0x1224 JUMP JUMPDEST POP PUSH1 0x1 PUSH1 0x1 PUSH1 0xA0 SHL SUB AND PUSH1 0x0 SWAP1 DUP2 MSTORE PUSH1 0x1 PUSH1 0x20 MSTORE PUSH1 0x40 SWAP1 KECCAK256 SLOAD PUSH1 0xFF AND SWAP1 JUMP JUMPDEST PUSH1 0x0 DUP1 SLOAD PUSH1 0x1 PUSH1 0xA0 SHL SWAP1 DIV PUSH1 0xFF AND PUSH2 0xC04 JUMPI PUSH1 0x40 MLOAD PUSH3 0x461BCD PUSH1 0xE5 SHL DUP2 MSTORE PUSH1 0x4 ADD PUSH2 0x46C SWAP1 PUSH2 0x1224 JUMP JUMPDEST POP PUSH1 0x1 PUSH1 0x1 PUSH1 0xA0 SHL SUB SWAP2 DUP3 AND PUSH1 0x0 SWAP1 DUP2 MSTORE PUSH1 0xB PUSH1 0x20 SWAP1 DUP2 MSTORE PUSH1 0x40 DUP1 DUP4 KECCAK256 SWAP4 SWAP1 SWAP5 AND DUP3 MSTORE SWAP2 SWAP1 SWAP2 MSTORE KECCAK256 PUSH1 0x1 ADD SLOAD SWAP1 JUMP JUMPDEST PUSH1 0x0 SLOAD PUSH1 0x1 PUSH1 0xA0 SHL SWAP1 DIV PUSH1 0xFF AND PUSH2 0xC5C JUMPI PUSH1 0x40 MLOAD PUSH3 0x461BCD PUSH1 0xE5 SHL DUP2 MSTORE PUSH1 0x4 ADD PUSH2 0x46C SWAP1 PUSH2 0x1224 JUMP JUMPDEST PUSH1 0x1 PUSH1 0x1 PUSH1 0xA0 SHL SUB DUP1 DUP4 AND PUSH1 0x0 SWAP1 DUP2 MSTORE PUSH1 0xB PUSH1 0x20 SWAP1 DUP2 MSTORE PUSH1 0x40 DUP1 DUP4 KECCAK256 SWAP4 DUP6 AND DUP4 MSTORE SWAP3 SWAP1 MSTORE KECCAK256 PUSH1 0x2 ADD SLOAD PUSH1 0xFF AND ISZERO ISZERO PUSH1 0x1 EQ PUSH2 0xCA9 JUMPI PUSH1 0x40 MLOAD PUSH3 0x461BCD PUSH1 0xE5 SHL DUP2 MSTORE PUSH1 0x4 ADD PUSH2 0x46C SWAP1 PUSH2 0x11ED JUMP JUMPDEST PUSH1 0x1 PUSH1 0x1 PUSH1 0xA0 SHL SUB DUP3 DUP2 AND PUSH1 0x0 DUP2 DUP2 MSTORE PUSH1 0xB PUSH1 0x20 SWAP1 DUP2 MSTORE PUSH1 0x40 DUP1 DUP4 KECCAK256 SWAP5 DUP7 AND DUP4 MSTORE SWAP4 SWAP1 MSTORE DUP3 DUP2 KECCAK256 PUSH1 0x1 DUP2 ADD DUP1 SLOAD SWAP1 DUP4 SWAP1 SSTORE PUSH1 0x2 SWAP1 SWAP2 ADD DUP1 SLOAD PUSH1 0xFF NOT AND SWAP1 SSTORE SWAP3 MLOAD DUP6 SWAP3 SWAP2 PUSH2 0x8FC DUP6 ISZERO MUL SWAP2 DUP6 SWAP2 DUP2 DUP2 DUP2 DUP6 DUP9 DUP9 CALL SWAP4 POP POP POP POP ISZERO DUP1 ISZERO PUSH2 0xD12 JUMPI RETURNDATASIZE PUSH1 0x0 DUP1 RETURNDATACOPY RETURNDATASIZE PUSH1 0x0 REVERT JUMPDEST POP POP POP POP POP JUMP JUMPDEST PUSH1 0x0 DUP1 SLOAD PUSH1 0x1 PUSH1 0xA0 SHL SWAP1 DIV PUSH1 0xFF AND PUSH2 0xD43 JUMPI PUSH1 0x40 MLOAD PUSH3 0x461BCD PUSH1 0xE5 SHL DUP2 MSTORE PUSH1 0x4 ADD PUSH2 0x46C SWAP1 PUSH2 0x1224 JUMP JUMPDEST PUSH1 0x1 PUSH1 0x1 PUSH1 0xA0 SHL SUB DUP3 AND PUSH1 0x0 SWAP1 DUP2 MSTORE PUSH1 0x4 PUSH1 0x20 MSTORE PUSH1 0x40 SWAP1 KECCAK256 SLOAD DUP3 SWAP1 PUSH1 0xFF AND PUSH2 0xD7D JUMPI PUSH1 0x40 MLOAD PUSH3 0x461BCD PUSH1 0xE5 SHL DUP2 MSTORE PUSH1 0x4 ADD PUSH2 0x46C SWAP1 PUSH2 0x118F JUMP JUMPDEST PUSH1 0x1 PUSH1 0x1 PUSH1 0xA0 SHL SUB DUP4 AND PUSH1 0x0 SWAP1 DUP2 MSTORE PUSH1 0x5 PUSH1 0x20 MSTORE PUSH1 0x40 SWAP1 KECCAK256 SLOAD PUSH1 0xFF AND SWAP2 POP JUMPDEST POP SWAP2 SWAP1 POP JUMP JUMPDEST PUSH1 0x0 SLOAD PUSH1 0x1 PUSH1 0xA0 SHL SWAP1 DIV PUSH1 0xFF AND PUSH2 0xDCB JUMPI PUSH1 0x40 MLOAD PUSH3 0x461BCD PUSH1 0xE5 SHL DUP2 MSTORE PUSH1 0x4 ADD PUSH2 0x46C SWAP1 PUSH2 0x1224 JUMP JUMPDEST PUSH1 0x1 PUSH1 0x1 PUSH1 0xA0 SHL SUB AND PUSH1 0x0 SWAP1 DUP2 MSTORE PUSH1 0x5 PUSH1 0x20 MSTORE PUSH1 0x40 SWAP1 KECCAK256 DUP1 SLOAD PUSH1 0xFF NOT AND PUSH1 0x1 OR SWAP1 SSTORE JUMP JUMPDEST PUSH1 0x0 DUP4 DUP4 DUP4 PUSH1 0x40 MLOAD PUSH1 0x20 ADD PUSH2 0xE06 SWAP4 SWAP3 SWAP2 SWAP1 PUSH2 0x10A3 JUMP JUMPDEST PUSH1 0x40 MLOAD PUSH1 0x20 DUP2 DUP4 SUB SUB DUP2 MSTORE SWAP1 PUSH1 0x40 MSTORE DUP1 MLOAD SWAP1 PUSH1 0x20 ADD KECCAK256 SWAP1 POP SWAP4 SWAP3 POP POP POP JUMP JUMPDEST DUP3 DUP1 SLOAD PUSH2 0xE31 SWAP1 PUSH2 0x131D JUMP JUMPDEST SWAP1 PUSH1 0x0 MSTORE PUSH1 0x20 PUSH1 0x0 KECCAK256 SWAP1 PUSH1 0x1F ADD PUSH1 0x20 SWAP1 DIV DUP2 ADD SWAP3 DUP3 PUSH2 0xE53 JUMPI PUSH1 0x0 DUP6 SSTORE PUSH2 0xE99 JUMP JUMPDEST DUP3 PUSH1 0x1F LT PUSH2 0xE6C JUMPI DUP1 MLOAD PUSH1 0xFF NOT AND DUP4 DUP1 ADD OR DUP6 SSTORE PUSH2 0xE99 JUMP JUMPDEST DUP3 DUP1 ADD PUSH1 0x1 ADD DUP6 SSTORE DUP3 ISZERO PUSH2 0xE99 JUMPI SWAP2 DUP3 ADD JUMPDEST DUP3 DUP2 GT ISZERO PUSH2 0xE99 JUMPI DUP3 MLOAD DUP3 SSTORE SWAP2 PUSH1 0x20 ADD SWAP2 SWAP1 PUSH1 0x1 ADD SWAP1 PUSH2 0xE7E JUMP JUMPDEST POP PUSH2 0xEA5 SWAP3 SWAP2 POP PUSH2 0xEA9 JUMP JUMPDEST POP SWAP1 JUMP JUMPDEST JUMPDEST DUP1 DUP3 GT ISZERO PUSH2 0xEA5 JUMPI PUSH1 0x0 DUP2 SSTORE PUSH1 0x1 ADD PUSH2 0xEAA JUMP JUMPDEST DUP1 CALLDATALOAD PUSH1 0x1 PUSH1 0x1 PUSH1 0xA0 SHL SUB DUP2 AND DUP2 EQ PUSH2 0x603 JUMPI PUSH1 0x0 DUP1 REVERT JUMPDEST DUP1 CALLDATALOAD DUP1 ISZERO ISZERO DUP2 EQ PUSH2 0x603 JUMPI PUSH1 0x0 DUP1 REVERT JUMPDEST PUSH1 0x0 PUSH1 0x20 DUP3 DUP5 SUB SLT ISZERO PUSH2 0xEF6 JUMPI DUP1 DUP2 REVERT JUMPDEST PUSH2 0xEFF DUP3 PUSH2 0xEBE JUMP JUMPDEST SWAP4 SWAP3 POP POP POP JUMP JUMPDEST PUSH1 0x0 DUP1 PUSH1 0x40 DUP4 DUP6 SUB SLT ISZERO PUSH2 0xF18 JUMPI DUP1 DUP2 REVERT JUMPDEST PUSH2 0xF21 DUP4 PUSH2 0xEBE JUMP JUMPDEST SWAP2 POP PUSH2 0xF2F PUSH1 0x20 DUP5 ADD PUSH2 0xEBE JUMP JUMPDEST SWAP1 POP SWAP3 POP SWAP3 SWAP1 POP JUMP JUMPDEST PUSH1 0x0 DUP1 PUSH1 0x0 PUSH1 0x60 DUP5 DUP7 SUB SLT ISZERO PUSH2 0xF4C JUMPI DUP1 DUP2 REVERT JUMPDEST PUSH2 0xF55 DUP5 PUSH2 0xEBE JUMP JUMPDEST SWAP3 POP PUSH2 0xF63 PUSH1 0x20 DUP6 ADD PUSH2 0xEBE JUMP JUMPDEST SWAP2 POP PUSH2 0xF71 PUSH1 0x40 DUP6 ADD PUSH2 0xED5 JUMP JUMPDEST SWAP1 POP SWAP3 POP SWAP3 POP SWAP3 JUMP JUMPDEST PUSH1 0x0 DUP1 PUSH1 0x0 PUSH1 0x60 DUP5 DUP7 SUB SLT ISZERO PUSH2 0xF8E JUMPI DUP3 DUP4 REVERT JUMPDEST PUSH2 0xF97 DUP5 PUSH2 0xEBE JUMP JUMPDEST SWAP3 POP PUSH2 0xFA5 PUSH1 0x20 DUP6 ADD PUSH2 0xEBE JUMP JUMPDEST SWAP2 POP PUSH1 0x40 DUP5 ADD CALLDATALOAD SWAP1 POP SWAP3 POP SWAP3 POP SWAP3 JUMP JUMPDEST PUSH1 0x0 DUP1 PUSH1 0x0 PUSH1 0x60 DUP5 DUP7 SUB SLT ISZERO PUSH2 0xFC9 JUMPI DUP3 DUP4 REVERT JUMPDEST PUSH2 0xFD2 DUP5 PUSH2 0xEBE JUMP JUMPDEST SWAP3 POP PUSH1 0x20 DUP1 DUP6 ADD CALLDATALOAD PUSH8 0xFFFFFFFFFFFFFFFF DUP1 DUP3 GT ISZERO PUSH2 0xFEF JUMPI DUP5 DUP6 REVERT JUMPDEST DUP2 DUP8 ADD SWAP2 POP DUP8 PUSH1 0x1F DUP4 ADD SLT PUSH2 0x1002 JUMPI DUP5 DUP6 REVERT JUMPDEST DUP2 CALLDATALOAD DUP2 DUP2 GT ISZERO PUSH2 0x1014 JUMPI PUSH2 0x1014 PUSH2 0x1352 JUMP JUMPDEST PUSH1 0x40 MLOAD PUSH1 0x1F DUP3 ADD PUSH1 0x1F NOT AND DUP2 ADD DUP6 ADD DUP4 DUP2 GT DUP3 DUP3 LT OR ISZERO PUSH2 0x1037 JUMPI PUSH2 0x1037 PUSH2 0x1352 JUMP JUMPDEST PUSH1 0x40 MSTORE DUP2 DUP2 MSTORE DUP4 DUP3 ADD DUP6 ADD DUP11 LT ISZERO PUSH2 0x104D JUMPI DUP7 DUP8 REVERT JUMPDEST DUP2 DUP6 DUP6 ADD DUP7 DUP4 ADD CALLDATACOPY SWAP1 DUP2 ADD SWAP1 SWAP4 ADD SWAP5 SWAP1 SWAP5 MSTORE POP SWAP3 SWAP6 SWAP3 SWAP5 POP POP POP PUSH1 0x40 SWAP2 SWAP1 SWAP2 ADD CALLDATALOAD SWAP1 JUMP JUMPDEST PUSH1 0x0 PUSH1 0x20 DUP3 DUP5 SUB SLT ISZERO PUSH2 0x1082 JUMPI DUP1 DUP2 REVERT JUMPDEST PUSH2 0xEFF DUP3 PUSH2 0xED5 JUMP JUMPDEST PUSH1 0x0 PUSH1 0x20 DUP3 DUP5 SUB SLT ISZERO PUSH2 0x109C JUMPI DUP1 DUP2 REVERT JUMPDEST POP CALLDATALOAD SWAP2 SWAP1 POP JUMP JUMPDEST PUSH1 0x0 PUSH12 0xFFFFFFFFFFFFFFFFFFFFFFFF NOT DUP6 PUSH1 0x60 SHL AND DUP3 MSTORE DUP4 MLOAD PUSH2 0x10CD DUP2 PUSH1 0x14 DUP6 ADD PUSH1 0x20 DUP9 ADD PUSH2 0x12ED JUMP JUMPDEST PUSH1 0x14 SWAP3 ADD SWAP2 DUP3 ADD SWAP3 SWAP1 SWAP3 MSTORE PUSH1 0x34 ADD SWAP4 SWAP3 POP POP POP JUMP JUMPDEST PUSH1 0x1 PUSH1 0x1 PUSH1 0xA0 SHL SUB SWAP2 SWAP1 SWAP2 AND DUP2 MSTORE PUSH1 0x20 ADD SWAP1 JUMP JUMPDEST PUSH1 0x0 PUSH1 0x1 DUP1 PUSH1 0xA0 SHL SUB DUP6 AND DUP3 MSTORE PUSH1 0x60 PUSH1 0x20 DUP4 ADD MSTORE DUP4 MLOAD DUP1 PUSH1 0x60 DUP5 ADD MSTORE PUSH2 0x1123 DUP2 PUSH1 0x80 DUP6 ADD PUSH1 0x20 DUP9 ADD PUSH2 0x12ED JUMP JUMPDEST PUSH1 0x40 DUP4 ADD SWAP4 SWAP1 SWAP4 MSTORE POP PUSH1 0x1F SWAP2 SWAP1 SWAP2 ADD PUSH1 0x1F NOT AND ADD PUSH1 0x80 ADD SWAP3 SWAP2 POP POP JUMP JUMPDEST PUSH1 0x20 DUP1 DUP3 MSTORE DUP3 MLOAD DUP3 DUP3 ADD DUP2 SWAP1 MSTORE PUSH1 0x0 SWAP2 SWAP1 DUP5 DUP3 ADD SWAP1 PUSH1 0x40 DUP6 ADD SWAP1 DUP5 JUMPDEST DUP2 DUP2 LT ISZERO PUSH2 0x1178 JUMPI DUP4 MLOAD DUP4 MSTORE SWAP3 DUP5 ADD SWAP3 SWAP2 DUP5 ADD SWAP2 PUSH1 0x1 ADD PUSH2 0x115C JUMP JUMPDEST POP SWAP1 SWAP7 SWAP6 POP POP POP POP POP POP JUMP JUMPDEST SWAP1 ISZERO ISZERO DUP2 MSTORE PUSH1 0x20 ADD SWAP1 JUMP JUMPDEST PUSH1 0x20 DUP1 DUP3 MSTORE PUSH1 0x40 SWAP1 DUP3 ADD DUP2 SWAP1 MSTORE PUSH32 0x54686520737570706C6965642061646472657373206973206E6F7420616E2061 SWAP1 DUP3 ADD MSTORE PUSH32 0x69726C696E652C2063616E6E6F742075736520746869732066756E6374696F6E PUSH1 0x60 DUP3 ADD MSTORE PUSH1 0x80 ADD SWAP1 JUMP JUMPDEST PUSH1 0x20 DUP1 DUP3 MSTORE PUSH1 0x1C SWAP1 DUP3 ADD MSTORE PUSH32 0x4E6F7420617574686F72697A656420666F722072657061796D656E7400000000 PUSH1 0x40 DUP3 ADD MSTORE PUSH1 0x60 ADD SWAP1 JUMP JUMPDEST PUSH1 0x20 DUP1 DUP3 MSTORE PUSH1 0x25 SWAP1 DUP3 ADD MSTORE PUSH32 0x436F6E74726163742069732063757272656E746C79206E6F74206F7065726174 PUSH1 0x40 DUP3 ADD MSTORE PUSH5 0x1A5BDB985B PUSH1 0xDA SHL PUSH1 0x60 DUP3 ADD MSTORE PUSH1 0x80 ADD SWAP1 JUMP JUMPDEST PUSH1 0x20 DUP1 DUP3 MSTORE PUSH1 0x1C SWAP1 DUP3 ADD MSTORE PUSH32 0x43616C6C6572206973206E6F7420636F6E7472616374206F776E657200000000 PUSH1 0x40 DUP3 ADD MSTORE PUSH1 0x60 ADD SWAP1 JUMP JUMPDEST SWAP1 DUP2 MSTORE PUSH1 0x20 ADD SWAP1 JUMP JUMPDEST PUSH1 0x0 DUP3 NOT DUP3 GT ISZERO PUSH2 0x12C8 JUMPI PUSH4 0x4E487B71 PUSH1 0xE0 SHL DUP2 MSTORE PUSH1 0x11 PUSH1 0x4 MSTORE PUSH1 0x24 DUP2 REVERT JUMPDEST POP ADD SWAP1 JUMP JUMPDEST PUSH1 0x0 DUP3 PUSH2 0x12E8 JUMPI PUSH4 0x4E487B71 PUSH1 0xE0 SHL DUP2 MSTORE PUSH1 0x12 PUSH1 0x4 MSTORE PUSH1 0x24 DUP2 REVERT JUMPDEST POP DIV SWAP1 JUMP JUMPDEST PUSH1 0x0 JUMPDEST DUP4 DUP2 LT ISZERO PUSH2 0x1308 JUMPI DUP2 DUP2 ADD MLOAD DUP4 DUP3 ADD MSTORE PUSH1 0x20 ADD PUSH2 0x12F0 JUMP JUMPDEST DUP4 DUP2 GT ISZERO PUSH2 0x1317 JUMPI PUSH1 0x0 DUP5 DUP5 ADD MSTORE JUMPDEST POP POP POP POP JUMP JUMPDEST PUSH1 0x2 DUP2 DIV PUSH1 0x1 DUP3 AND DUP1 PUSH2 0x1331 JUMPI PUSH1 0x7F DUP3 AND SWAP2 POP JUMPDEST PUSH1 0x20 DUP3 LT DUP2 EQ ISZERO PUSH2 0xD9C JUMPI PUSH4 0x4E487B71 PUSH1 0xE0 SHL PUSH1 0x0 MSTORE PUSH1 0x22 PUSH1 0x4 MSTORE PUSH1 0x24 PUSH1 0x0 REVERT JUMPDEST PUSH4 0x4E487B71 PUSH1 0xE0 SHL PUSH1 0x0 MSTORE PUSH1 0x41 PUSH1 0x4 MSTORE PUSH1 0x24 PUSH1 0x0 REVERT INVALID LOG2 PUSH5 0x6970667358 0x22 SLT KECCAK256 PUSH25 0x21CAFAD2815F7CDCDF4C03A4BC4FE799D81CBBF30570129471 0xC5 CODESIZE 0xC0 PUSH15 0x80E64736F6C634300080000330000 "
		},
		"gasEstimates": {
			"creation": {
				"codeDepositCost": "1004400",
				"executionCost": "146158",
				"totalCost": "1150558"
			},
			"external": {
				"": "1235",
				"addAuthorizedCaller(address)": "22108",
				"buy(address,address,uint256)": "infinite",
				"creditInsurees(address,address)": "infinite",
				"fund()": "1203",
				"getAuthCaller(address)": "1415",
				"getContractOwner()": "1159",
				"getFlightInfo(bytes32)": "infinite",
				"getFlightKeysForUI()": "infinite",
				"getInsurancePayoutAmount(address,address)": "infinite",
				"getNumAirlines()": "1984",
				"isAddressAirline(address)": "2172",
				"isAddressAuthorized(address)": "2171",
				"isAddressFundedAirline(address)": "3167",
				"isAddressPassenger(address)": "infinite",
				"isInsuranceCollectable(address,address)": "infinite",
				"isOperational()": "1079",
				"payAirlineFee(address)": "22182",
				"registerAirline(address)": "126498",
				"registerFlight(address,string,uint256)": "infinite",
				"registerPassenger(address)": "63754",
				"removeAuthorizedCaller(address)": "22133",
				"setOperatingStatus(bool)": "22019",
				"setRepaymentStatus(address,address,bool)": "infinite"
			},
			"internal": {
				"getFlightKey(address,string memory,uint256)": "infinite"
			}
		},
		"methodIdentifiers": {
			"addAuthorizedCaller(address)": "13a155ea",
			"buy(address,address,uint256)": "153e66e6",
			"creditInsurees(address,address)": "da349e61",
			"fund()": "b60d4288",
			"getAuthCaller(address)": "c4c2cf63",
			"getContractOwner()": "442890d5",
			"getFlightInfo(bytes32)": "24c534cc",
			"getFlightKeysForUI()": "341a6ce6",
			"getInsurancePayoutAmount(address,address)": "d7964b98",
			"getNumAirlines()": "7ab21cdc",
			"isAddressAirline(address)": "ae1309ec",
			"isAddressAuthorized(address)": "ced3fb9c",
			"isAddressFundedAirline(address)": "ed5509a6",
			"isAddressPassenger(address)": "1c3c1400",
			"isInsuranceCollectable(address,address)": "1de327e4",
			"isOperational()": "cd905dff",
			"payAirlineFee(address)": "f2eda846",
			"registerAirline(address)": "bdfd9877",
			"registerFlight(address,string,uint256)": "3cc0be9c",
			"registerPassenger(address)": "94c15694",
			"removeAuthorizedCaller(address)": "b7aa0231",
			"setOperatingStatus(bool)": "110466ed",
			"setRepaymentStatus(address,address,bool)": "90e6247d"
		}
	},
	"abi": [
		{
			"inputs": [],
			"stateMutability": "nonpayable",
			"type": "constructor"
		},
		{
			"stateMutability": "payable",
			"type": "fallback"
		},
		{
			"inputs": [
				{
					"internalType": "address",
					"name": "inputAddress",
					"type": "address"
				}
			],
			"name": "addAuthorizedCaller",
			"outputs": [],
			"stateMutability": "nonpayable",
			"type": "function"
		},
		{
			"inputs": [
				{
					"internalType": "address",
					"name": "passenger",
					"type": "address"
				},
				{
					"internalType": "address",
					"name": "flight",
					"type": "address"
				},
				{
					"internalType": "uint256",
					"name": "value",
					"type": "uint256"
				}
			],
			"name": "buy",
			"outputs": [],
			"stateMutability": "nonpayable",
			"type": "function"
		},
		{
			"inputs": [
				{
					"internalType": "address",
					"name": "passenger",
					"type": "address"
				},
				{
					"internalType": "address",
					"name": "flight",
					"type": "address"
				}
			],
			"name": "creditInsurees",
			"outputs": [],
			"stateMutability": "payable",
			"type": "function"
		},
		{
			"inputs": [],
			"name": "fund",
			"outputs": [],
			"stateMutability": "nonpayable",
			"type": "function"
		},
		{
			"inputs": [
				{
					"internalType": "address",
					"name": "input",
					"type": "address"
				}
			],
			"name": "getAuthCaller",
			"outputs": [
				{
					"internalType": "bool",
					"name": "",
					"type": "bool"
				}
			],
			"stateMutability": "view",
			"type": "function"
		},
		{
			"inputs": [],
			"name": "getContractOwner",
			"outputs": [
				{
					"internalType": "address",
					"name": "",
					"type": "address"
				}
			],
			"stateMutability": "view",
			"type": "function"
		},
		{
			"inputs": [
				{
					"internalType": "bytes32",
					"name": "flightKey",
					"type": "bytes32"
				}
			],
			"name": "getFlightInfo",
			"outputs": [
				{
					"internalType": "address",
					"name": "",
					"type": "address"
				},
				{
					"internalType": "string",
					"name": "",
					"type": "string"
				},
				{
					"internalType": "uint256",
					"name": "",
					"type": "uint256"
				}
			],
			"stateMutability": "view",
			"type": "function"
		},
		{
			"inputs": [],
			"name": "getFlightKeysForUI",
			"outputs": [
				{
					"internalType": "bytes32[]",
					"name": "",
					"type": "bytes32[]"
				}
			],
			"stateMutability": "view",
			"type": "function"
		},
		{
			"inputs": [
				{
					"internalType": "address",
					"name": "passenger",
					"type": "address"
				},
				{
					"internalType": "address",
					"name": "flight",
					"type": "address"
				}
			],
			"name": "getInsurancePayoutAmount",
			"outputs": [
				{
					"internalType": "uint256",
					"name": "",
					"type": "uint256"
				}
			],
			"stateMutability": "view",
			"type": "function"
		},
		{
			"inputs": [],
			"name": "getNumAirlines",
			"outputs": [
				{
					"internalType": "uint256",
					"name": "",
					"type": "uint256"
				}
			],
			"stateMutability": "view",
			"type": "function"
		},
		{
			"inputs": [
				{
					"internalType": "address",
					"name": "inputAddress",
					"type": "address"
				}
			],
			"name": "isAddressAirline",
			"outputs": [
				{
					"internalType": "bool",
					"name": "",
					"type": "bool"
				}
			],
			"stateMutability": "view",
			"type": "function"
		},
		{
			"inputs": [
				{
					"internalType": "address",
					"name": "inputAddress",
					"type": "address"
				}
			],
			"name": "isAddressAuthorized",
			"outputs": [
				{
					"internalType": "bool",
					"name": "",
					"type": "bool"
				}
			],
			"stateMutability": "view",
			"type": "function"
		},
		{
			"inputs": [
				{
					"internalType": "address",
					"name": "inputAddress",
					"type": "address"
				}
			],
			"name": "isAddressFundedAirline",
			"outputs": [
				{
					"internalType": "bool",
					"name": "",
					"type": "bool"
				}
			],
			"stateMutability": "view",
			"type": "function"
		},
		{
			"inputs": [
				{
					"internalType": "address",
					"name": "inputAddress",
					"type": "address"
				}
			],
			"name": "isAddressPassenger",
			"outputs": [
				{
					"internalType": "bool",
					"name": "",
					"type": "bool"
				}
			],
			"stateMutability": "view",
			"type": "function"
		},
		{
			"inputs": [
				{
					"internalType": "address",
					"name": "passenger",
					"type": "address"
				},
				{
					"internalType": "address",
					"name": "flight",
					"type": "address"
				}
			],
			"name": "isInsuranceCollectable",
			"outputs": [
				{
					"internalType": "bool",
					"name": "",
					"type": "bool"
				}
			],
			"stateMutability": "view",
			"type": "function"
		},
		{
			"inputs": [],
			"name": "isOperational",
			"outputs": [
				{
					"internalType": "bool",
					"name": "",
					"type": "bool"
				}
			],
			"stateMutability": "view",
			"type": "function"
		},
		{
			"inputs": [
				{
					"internalType": "address",
					"name": "airlineAddress",
					"type": "address"
				}
			],
			"name": "payAirlineFee",
			"outputs": [],
			"stateMutability": "nonpayable",
			"type": "function"
		},
		{
			"inputs": [
				{
					"internalType": "address",
					"name": "airlineAddress",
					"type": "address"
				}
			],
			"name": "registerAirline",
			"outputs": [],
			"stateMutability": "nonpayable",
			"type": "function"
		},
		{
			"inputs": [
				{
					"internalType": "address",
					"name": "airline",
					"type": "address"
				},
				{
					"internalType": "string",
					"name": "flightName",
					"type": "string"
				},
				{
					"internalType": "uint256",
					"name": "timestamp",
					"type": "uint256"
				}
			],
			"name": "registerFlight",
			"outputs": [],
			"stateMutability": "nonpayable",
			"type": "function"
		},
		{
			"inputs": [
				{
					"internalType": "address",
					"name": "passengerAddress",
					"type": "address"
				}
			],
			"name": "registerPassenger",
			"outputs": [],
			"stateMutability": "nonpayable",
			"type": "function"
		},
		{
			"inputs": [
				{
					"internalType": "address",
					"name": "inputAddress",
					"type": "address"
				}
			],
			"name": "removeAuthorizedCaller",
			"outputs": [],
			"stateMutability": "nonpayable",
			"type": "function"
		},
		{
			"inputs": [
				{
					"internalType": "bool",
					"name": "mode",
					"type": "bool"
				}
			],
			"name": "setOperatingStatus",
			"outputs": [],
			"stateMutability": "nonpayable",
			"type": "function"
		},
		{
			"inputs": [
				{
					"internalType": "address",
					"name": "passenger",
					"type": "address"
				},
				{
					"internalType": "address",
					"name": "flight",
					"type": "address"
				},
				{
					"internalType": "bool",
					"name": "status",
					"type": "bool"
				}
			],
			"name": "setRepaymentStatus",
			"outputs": [],
			"stateMutability": "nonpayable",
			"type": "function"
		},
		{
			"stateMutability": "payable",
			"type": "receive"
		}
	]
}