{
	"data": {
		"bytecode": {
			"linkReferences": {},
			"object": "60806040526006805460ff1916905534801561001a57600080fd5b50604051620024033803806200240383398101604081905261003b91610069565b600080546001600160a01b039092166001600160a01b03199283161790556002805490911633179055610097565b60006020828403121561007a578081fd5b81516001600160a01b0381168114610090578182fd5b9392505050565b61235c80620000a76000396000f3fe60806040526004361061011f5760003560e01c8063ae1309ec116100a0578063cd905dff11610064578063cd905dff146102e3578063d5e96264146102f8578063e79e964914610300578063ed5509a614610320578063f83f11c0146103405761011f565b8063ae1309ec1461025b578063b60d42881461027b578063b8aa3ff514610283578063bdfd9877146102a3578063c10f2700146102c35761011f565b806358121ea9116100e757806358121ea9146101c45780635f1cc0e6146101e457806364b4f751146102065780636b6a82e11461022857806394c156941461023b5761011f565b8063110466ed146101245780631c3c140014610146578063339d25901461017c57806339cfc99514610184578063509256d9146101a4575b600080fd5b34801561013057600080fd5b5061014461013f366004611a5c565b610360565b005b34801561015257600080fd5b506101666101613660046119ed565b610427565b6040516101739190611cf9565b60405180910390f35b6101446104af565b34801561019057600080fd5b5061014461019f366004611a94565b61052f565b3480156101b057600080fd5b506101446101bf3660046119ed565b610635565b3480156101d057600080fd5b506101446101df3660046119ed565b610736565b3480156101f057600080fd5b506101f9610803565b6040516101739190611cc5565b34801561021257600080fd5b5061021b61089a565b60405161017391906121e9565b6101446102363660046119ed565b6108a6565b34801561024757600080fd5b506101446102563660046119ed565b610a03565b34801561026757600080fd5b506101666102763660046119ed565b610b56565b610144610b87565b34801561028f57600080fd5b5061014461029e3660046119ed565b610bf7565b3480156102af57600080fd5b506101446102be3660046119ed565b610e02565b3480156102cf57600080fd5b506101446102de366004611aef565b61119b565b3480156102ef57600080fd5b5061016661136d565b6101446113f9565b34801561030c57600080fd5b5061016661031b3660046119ed565b611606565b34801561032c57600080fd5b5061016661033b3660046119ed565b611624565b34801561034c57600080fd5b5061014461035b366004611a07565b611655565b600061036a61136d565b90506001811515146103975760405162461bcd60e51b815260040161038e90612005565b60405180910390fd5b6002546001600160a01b031633146103c15760405162461bcd60e51b815260040161038e9061204a565b60005460405163110466ed60e01b81526001600160a01b039091169063110466ed906103f1908590600401611cf9565b600060405180830381600087803b15801561040b57600080fd5b505af115801561041f573d6000803e3d6000fd5b505050505050565b6000805460405162070f0560ea1b81526001600160a01b0390911690631c3c140090610457908590600401611c01565b60206040518083038186803b15801561046f57600080fd5b505afa158015610483573d6000803e3d6000fd5b505050506040513d601f19601f820116820180604052508101906104a79190611a78565b90505b919050565b670de0b6b3a76400003410156104d75760405162461bcd60e51b815260040161038e90612081565b60006104e233611720565b6040805180820182526001808252602080830185815233600090815260079092529390208251815460ff19169015151781559251939450909261052991830190600361187e565b50505050565b600061053961136d565b905060018115151461055d5760405162461bcd60e51b815260040161038e90612005565b33600061056982610b56565b905060018115151461058d5760405162461bcd60e51b815260040161038e906121b4565b600054604051630f302fa760e21b81526001600160a01b0390911690633cc0be9c906105c190339089908990600401611c53565b600060405180830381600087803b1580156105db57600080fd5b505af11580156105ef573d6000803e3d6000fd5b505050507f240f434fa78afde6c6a83ff9b95d095deb69bf0267f51faa56a4fc6664e7285433868660405161062693929190611c53565b60405180910390a15050505050565b60005460405162070f0560ea1b81526001600160a01b0390911690631c3c140090610664908490600401611c01565b60206040518083038186803b15801561067c57600080fd5b505afa158015610690573d6000803e3d6000fd5b505050506040513d601f19601f820116820180604052508101906106b49190611a78565b156106d15760405162461bcd60e51b815260040161038e90611f07565b60005460405163253055a560e21b81526001600160a01b03909116906394c1569490610701908490600401611c01565b600060405180830381600087803b15801561071b57600080fd5b505af115801561072f573d6000803e3d6000fd5b5050505050565b600054604051632b84c27b60e21b81526001600160a01b039091169063ae1309ec90610766908490600401611c01565b60206040518083038186803b15801561077e57600080fd5b505afa158015610792573d6000803e3d6000fd5b505050506040513d601f19601f820116820180604052508101906107b69190611a78565b156107d35760405162461bcd60e51b815260040161038e9061217d565b60005460405163bdfd987760e01b81526001600160a01b039091169063bdfd987790610701908490600401611c01565b61080b611911565b3360009081526007602052604090205460ff1661083a5760405162461bcd60e51b815260040161038e90611ed0565b3360009081526007602052604080822081516060810192839052926001909101916003918390855b825461010083900a900460ff168152602060019283018181049485019490930390920291018084116108625790505050505050905090565b670de0b6b3a764000081565b60006108b061136d565b90506001811515146108d45760405162461bcd60e51b815260040161038e90612005565b3360006108e082610427565b90506001811515146109045760405162461bcd60e51b815260040161038e90611de7565b670de0b6b3a764000034111561092c5760405162461bcd60e51b815260040161038e90611e1e565b600080546040516001600160a01b039091169182913480156108fc0292909190818181858888f19350505050158015610969573d6000803e3d6000fd5b50600054604051630a9f337360e11b81526001600160a01b039091169063153e66e69061099e90339089903490600401611c2f565b600060405180830381600087803b1580156109b857600080fd5b505af11580156109cc573d6000803e3d6000fd5b505050507fc8b3e334452a1e251465e2c50a23006da0960024f26fd6176087356496ea20ed33863460405161062693929190611c2f565b6000610a0d61136d565b9050600181151514610a315760405162461bcd60e51b815260040161038e90612005565b816000610a3d82610b56565b90508015610a5d5760405162461bcd60e51b815260040161038e90611fce565b836000610a6982610427565b90508015610a895760405162461bcd60e51b815260040161038e906120fb565b6000610a9487610b56565b90508015610ab45760405162461bcd60e51b815260040161038e90611d8a565b60005460405163253055a560e21b81526001600160a01b03909116906394c1569490610ae4908a90600401611c01565b600060405180830381600087803b158015610afe57600080fd5b505af1158015610b12573d6000803e3d6000fd5b505050507fa83117346cca49bd2c97acd5b237a40a23cea37cdfced29b1a65142bfe2c5baf87604051610b459190611c01565b60405180910390a150505050505050565b60008054604051632b84c27b60e21b81526001600160a01b039091169063ae1309ec90610457908590600401611c01565b6000610b9161136d565b9050600181151514610bb55760405162461bcd60e51b815260040161038e90612005565b600080546040516001600160a01b039091169182913480156108fc0292909190818181858888f19350505050158015610bf2573d6000803e3d6000fd5b505050565b6000610c0161136d565b9050600181151514610c255760405162461bcd60e51b815260040161038e90612005565b336000610c3182610427565b9050600181151514610c555760405162461bcd60e51b815260040161038e90611de7565b600054604051630778c9f960e21b81526001600160a01b0390911690631de327e490610c879033908890600401611c15565b60206040518083038186803b158015610c9f57600080fd5b505afa158015610cb3573d6000803e3d6000fd5b505050506040513d601f19601f82011682018060405250810190610cd79190611a78565b1515600114610cf85760405162461bcd60e51b815260040161038e90611d53565b60008054604051631af2c97360e31b81526001600160a01b039091169063d7964b9890610d2b9033908990600401611c15565b60206040518083038186803b158015610d4357600080fd5b505afa158015610d57573d6000803e3d6000fd5b505050506040513d601f19601f82011682018060405250810190610d7b9190611ad7565b11610d985760405162461bcd60e51b815260040161038e90611ea3565b60005460405163da349e6160e01b81526001600160a01b039091169063da349e6190610dca9033908890600401611c15565b600060405180830381600087803b158015610de457600080fd5b505af1158015610df8573d6000803e3d6000fd5b5050505050505050565b6000610e0c61136d565b9050600181151514610e305760405162461bcd60e51b815260040161038e90612005565b816000610e3c82610b56565b90508015610e5c5760405162461bcd60e51b815260040161038e90611fce565b836000610e6882610427565b90508015610e885760405162461bcd60e51b815260040161038e906120fb565b60008060009054906101000a90046001600160a01b03166001600160a01b0316637ab21cdc6040518163ffffffff1660e01b815260040160206040518083038186803b158015610ed757600080fd5b505afa158015610eeb573d6000803e3d6000fd5b505050506040513d601f19601f82011682018060405250810190610f0f9190611ad7565b90506004811015610fdd57610f2333610b56565b610f3f5760405162461bcd60e51b815260040161038e90611f3e565b60005460405163bdfd987760e01b81526001600160a01b039091169063bdfd987790610f6f908a90600401611c01565b600060405180830381600087803b158015610f8957600080fd5b505af1158015610f9d573d6000803e3d6000fd5b505050507f2ef49f308764ebe6c1149ac59bf417810aa1d676e95227cc4638855c9eaf6c8887604051610fd09190611c01565b60405180910390a1611192565b3360009081526004602090815260408083206001600160a01b038b16845290915290205460ff1661116b573360009081526004602090815260408083206001600160a01b038b1684528252808320805460ff1916600190811790915560059092528220805491929091611051908490612230565b909155506110629050600282612248565b6001600160a01b0388166000908152600560205260409020541061113f5760005460405163bdfd987760e01b81526001600160a01b039091169063bdfd9877906110b0908a90600401611c01565b600060405180830381600087803b1580156110ca57600080fd5b505af11580156110de573d6000803e3d6000fd5b5050506001600160a01b03881660009081526001602052604090819020805460ff19169055517f2ef49f308764ebe6c1149ac59bf417810aa1d676e95227cc4638855c9eaf6c889150611132908990611c01565b60405180910390a1611166565b6001600160a01b0387166000908152600160208190526040909120805460ff191690911790555b611192565b6001600160a01b0387166000908152600160208190526040909120805460ff191690911790555b50505050505050565b3360009081526007602052604090206001015460ff868116911614806111dd57503360009081526007602052604090206001015460ff86811661010090920416145b8061120557503360009081526007602052604090206001015460ff8681166201000090920416145b6112215760405162461bcd60e51b815260040161038e906120b8565b60008585858560405160200161123a9493929190611bb2565b60408051808303601f19018152918152815160209283012060008181526009909352912054909150600160a01b900460ff166112885760405162461bcd60e51b815260040161038e90611d04565b600081815260086020908152604080832060ff8616845282528083208054600181018255908452919092200180546001600160a01b03191633179055517f43c853095c2752648493c88b4baac4d580d2594ffb00c6f1d4242d844514f783906112f8908790879087908790611c87565b60405180910390a1600081815260086020908152604080832060ff8616845290915290205460031161041f577fe23f5229de535c091e3b7bec2665f5d698192d3b31393066e8987b7a05076b6c858585856040516113599493929190611c87565b60405180910390a161041f858585856117c0565b60008060009054906101000a90046001600160a01b03166001600160a01b031663cd905dff6040518163ffffffff1660e01b815260040160206040518083038186803b1580156113bc57600080fd5b505afa1580156113d0573d6000803e3d6000fd5b505050506040513d601f19601f820116820180604052508101906113f49190611a78565b905090565b600061140361136d565b90506001811515146114275760405162461bcd60e51b815260040161038e90612005565b33600061143382610b56565b90506001811515146114575760405162461bcd60e51b815260040161038e906121b4565b61146033611624565b1561147d5760405162461bcd60e51b815260040161038e90611e6c565b678ac7230489e800003410156114a55760405162461bcd60e51b815260040161038e90612132565b600080546001600160a01b0316906114c5678ac7230489e800003461225c565b9050801561153a576040516001600160a01b03831690600090678ac7230489e800009082818181858883f19350505050158015611506573d6000803e3d6000fd5b50604051339082156108fc029083906000818181858888f19350505050158015611534573d6000803e3d6000fd5b50611575565b6040516001600160a01b03831690600090678ac7230489e800009082818181858883f19350505050158015611573573d6000803e3d6000fd5b505b600054604051637976d42360e11b81526001600160a01b039091169063f2eda846906115a5903390600401611c01565b600060405180830381600087803b1580156115bf57600080fd5b505af11580156115d3573d6000803e3d6000fd5b505050507f206cc1c860f752d981f7de81003368154d34b6ed91c6f5ea169e9eb5f1626f8b336040516106269190611c01565b6001600160a01b031660009081526001602052604090205460ff1690565b600080546040516376aa84d360e11b81526001600160a01b039091169063ed5509a690610457908590600401611c01565b6000611660336117e1565b905060008185858560405160200161167b9493929190611bb2565b60408051601f1981840301815282825280516020918201208383018352338452600184830190815260008281526009909352918390209351845492511515600160a01b0260ff60a01b196001600160a01b03929092166001600160a01b0319909416939093171691909117909255519091507f3ed01f2c3fc24c6b329d931e35b03e390d23497d22b3f90e15b600343e93df11906106269084908890889088906121f2565b611728611911565b611730611911565b611739836117e1565b60ff1680825260208201525b8051602082015160ff9081169116141561176f57611762836117e1565b60ff166020820152611745565b602081015160ff1660408201525b8051604082015160ff908116911614806117a557506020810151604082015160ff9081169116145b156104a7576117b3836117e1565b60ff16604082015261177d565b60ff8116601414806117d5575060ff8116601e145b8061072f575050505050565b60068054600091600a918391839160ff1690836117fd8361229f565b91906101000a81548160ff021916908360ff16021790555060ff1643611823919061225c565b4085604051602001611836929190611b92565b6040516020818303038152906040528051906020012060001c61185991906122bf565b60065490915060fa60ff9091161115611877576006805460ff191690555b9392505050565b6001830191839082156119015791602002820160005b838211156118d257835183826101000a81548160ff021916908360ff1602179055509260200192600101602081600001049283019260010302611894565b80156118ff5782816101000a81549060ff02191690556001016020816000010492830192600103026118d2565b505b5061190d92915061192f565b5090565b60405180606001604052806003906020820280368337509192915050565b5b8082111561190d5760008155600101611930565b80356001600160a01b03811681146104aa57600080fd5b600082601f83011261196b578081fd5b813567ffffffffffffffff80821115611986576119866122ff565b604051601f8301601f1916810160200182811182821017156119aa576119aa6122ff565b6040528281528483016020018610156119c1578384fd5b82602086016020830137918201602001929092529392505050565b803560ff811681146104aa57600080fd5b6000602082840312156119fe578081fd5b61187782611944565b600080600060608486031215611a1b578182fd5b611a2484611944565b9250602084013567ffffffffffffffff811115611a3f578283fd5b611a4b8682870161195b565b925050604084013590509250925092565b600060208284031215611a6d578081fd5b813561187781612315565b600060208284031215611a89578081fd5b815161187781612315565b60008060408385031215611aa6578182fd5b823567ffffffffffffffff811115611abc578283fd5b611ac88582860161195b565b95602094909401359450505050565b600060208284031215611ae8578081fd5b5051919050565b600080600080600060a08688031215611b06578081fd5b611b0f866119dc565b9450611b1d60208701611944565b9350604086013567ffffffffffffffff811115611b38578182fd5b611b448882890161195b565b93505060608601359150611b5a608087016119dc565b90509295509295909350565b60008151808452611b7e816020860160208601612273565b601f01601f19169290920160200192915050565b91825260601b6bffffffffffffffffffffffff1916602082015260340190565b600060ff60f81b8660f81b1682526bffffffffffffffffffffffff198560601b1660018301528351611beb816015850160208801612273565b6015920191820192909252603501949350505050565b6001600160a01b0391909116815260200190565b6001600160a01b0392831681529116602082015260400190565b6001600160a01b039384168152919092166020820152604081019190915260600190565b6001600160a01b0384168152606060208201819052600090611c7790830185611b66565b9050826040830152949350505050565b6001600160a01b0385168152608060208201819052600090611cab90830186611b66565b905083604083015260ff8316606083015295945050505050565b60608101818360005b6003811015611cf057815160ff16835260209283019290910190600101611cce565b50505092915050565b901515815260200190565b6020808252602f908201527f466c69676874206f722074696d657374616d7020646f206e6f74206d6174636860408201526e081bdc9858db19481c995c5d595cdd608a1b606082015260800190565b6020808252601e908201527f496e737572616e636520636f6e6e65637420626520636f6c6c65637465640000604082015260600190565b60208082526039908201527f416e20616464726573732063616e206e6f7420626520646f75626c656420757060408201527f206173206169726c696e6520616e642070617373656e67657200000000000000606082015260800190565b6020808252601a908201527f41646472657373206973206e6f7420612070617373656e676572000000000000604082015260600190565b6020808252602e908201527f496e737572616e636520436f6e747269627574696f6e73206d6179206e6f742060408201526d32bc31b2b2b210189032ba3432b960911b606082015260800190565b6020808252601a908201527f4169726c696e6520697320616c72656164792066756e64656421000000000000604082015260600190565b602080825260139082015272139bc8195d1a195c881d1bc818dbdb1b1958dd606a1b604082015260600190565b6020808252601b908201527f4e6f74207265676973746572656420617320616e206f7261636c650000000000604082015260600190565b6020808252601f908201527f6164647265737320697320616c726561647920612070617373656e6765722100604082015260600190565b60208082526064908201527f4d75737420626520616e206169726c696e6520746f207375626d697420616e6f60408201527f74686572206169726c696e65207768656e20746f74616c206169726c696e657360608201527f206172652062656c6f7720746865206d696e696d756d20666f7220636f6e73656080820152636e73757360e01b60a082015260c00190565b60208082526019908201527f4164647265737320616c72656164792061206169726c696e6500000000000000604082015260600190565b60208082526025908201527f436f6e74726163742069732063757272656e746c79206e6f74206f70657261746040820152641a5bdb985b60da1b606082015260800190565b6020808252601c908201527f43616c6c6572206973206e6f7420636f6e7472616374206f776e657200000000604082015260600190565b6020808252601c908201527f526567697374726174696f6e2066656520697320726571756972656400000000604082015260600190565b60208082526023908201527f496e64657820646f6573206e6f74206d61746368206f7261636c652072657175604082015262195cdd60ea1b606082015260800190565b6020808252601b908201527f4164647265737320616c726561647920612050617373656e6765720000000000604082015260600190565b6020808252602b908201527f537570706c69656420657468657220646f65736e2774206d656574207468652060408201526a66756e64696e672066656560a81b606082015260800190565b6020808252601e908201527f6164647265737320697320616c726561647920616e206169726c696e65210000604082015260600190565b6020808252818101527f41646472657373206e6f7420612072656769737465726564206169726c696e65604082015260600190565b90815260200190565b60ff851681526001600160a01b038416602082015260806040820181905260009061221f90830185611b66565b905082606083015295945050505050565b60008219821115612243576122436122d3565b500190565b600082612257576122576122e9565b500490565b60008282101561226e5761226e6122d3565b500390565b60005b8381101561228e578181015183820152602001612276565b838111156105295750506000910152565b600060ff821660ff8114156122b6576122b66122d3565b60010192915050565b6000826122ce576122ce6122e9565b500690565b634e487b7160e01b600052601160045260246000fd5b634e487b7160e01b600052601260045260246000fd5b634e487b7160e01b600052604160045260246000fd5b801515811461232357600080fd5b5056fea2646970667358221220acdb0a884ff082302e0653be7e26aff2021e1a8dea83bb72e46c264f8d4f825164736f6c63430008000033",
			"opcodes": "PUSH1 0x80 PUSH1 0x40 MSTORE PUSH1 0x6 DUP1 SLOAD PUSH1 0xFF NOT AND SWAP1 SSTORE CALLVALUE DUP1 ISZERO PUSH2 0x1A JUMPI PUSH1 0x0 DUP1 REVERT JUMPDEST POP PUSH1 0x40 MLOAD PUSH3 0x2403 CODESIZE SUB DUP1 PUSH3 0x2403 DUP4 CODECOPY DUP2 ADD PUSH1 0x40 DUP2 SWAP1 MSTORE PUSH2 0x3B SWAP2 PUSH2 0x69 JUMP JUMPDEST PUSH1 0x0 DUP1 SLOAD PUSH1 0x1 PUSH1 0x1 PUSH1 0xA0 SHL SUB SWAP1 SWAP3 AND PUSH1 0x1 PUSH1 0x1 PUSH1 0xA0 SHL SUB NOT SWAP3 DUP4 AND OR SWAP1 SSTORE PUSH1 0x2 DUP1 SLOAD SWAP1 SWAP2 AND CALLER OR SWAP1 SSTORE PUSH2 0x97 JUMP JUMPDEST PUSH1 0x0 PUSH1 0x20 DUP3 DUP5 SUB SLT ISZERO PUSH2 0x7A JUMPI DUP1 DUP2 REVERT JUMPDEST DUP2 MLOAD PUSH1 0x1 PUSH1 0x1 PUSH1 0xA0 SHL SUB DUP2 AND DUP2 EQ PUSH2 0x90 JUMPI DUP2 DUP3 REVERT JUMPDEST SWAP4 SWAP3 POP POP POP JUMP JUMPDEST PUSH2 0x235C DUP1 PUSH3 0xA7 PUSH1 0x0 CODECOPY PUSH1 0x0 RETURN INVALID PUSH1 0x80 PUSH1 0x40 MSTORE PUSH1 0x4 CALLDATASIZE LT PUSH2 0x11F JUMPI PUSH1 0x0 CALLDATALOAD PUSH1 0xE0 SHR DUP1 PUSH4 0xAE1309EC GT PUSH2 0xA0 JUMPI DUP1 PUSH4 0xCD905DFF GT PUSH2 0x64 JUMPI DUP1 PUSH4 0xCD905DFF EQ PUSH2 0x2E3 JUMPI DUP1 PUSH4 0xD5E96264 EQ PUSH2 0x2F8 JUMPI DUP1 PUSH4 0xE79E9649 EQ PUSH2 0x300 JUMPI DUP1 PUSH4 0xED5509A6 EQ PUSH2 0x320 JUMPI DUP1 PUSH4 0xF83F11C0 EQ PUSH2 0x340 JUMPI PUSH2 0x11F JUMP JUMPDEST DUP1 PUSH4 0xAE1309EC EQ PUSH2 0x25B JUMPI DUP1 PUSH4 0xB60D4288 EQ PUSH2 0x27B JUMPI DUP1 PUSH4 0xB8AA3FF5 EQ PUSH2 0x283 JUMPI DUP1 PUSH4 0xBDFD9877 EQ PUSH2 0x2A3 JUMPI DUP1 PUSH4 0xC10F2700 EQ PUSH2 0x2C3 JUMPI PUSH2 0x11F JUMP JUMPDEST DUP1 PUSH4 0x58121EA9 GT PUSH2 0xE7 JUMPI DUP1 PUSH4 0x58121EA9 EQ PUSH2 0x1C4 JUMPI DUP1 PUSH4 0x5F1CC0E6 EQ PUSH2 0x1E4 JUMPI DUP1 PUSH4 0x64B4F751 EQ PUSH2 0x206 JUMPI DUP1 PUSH4 0x6B6A82E1 EQ PUSH2 0x228 JUMPI DUP1 PUSH4 0x94C15694 EQ PUSH2 0x23B JUMPI PUSH2 0x11F JUMP JUMPDEST DUP1 PUSH4 0x110466ED EQ PUSH2 0x124 JUMPI DUP1 PUSH4 0x1C3C1400 EQ PUSH2 0x146 JUMPI DUP1 PUSH4 0x339D2590 EQ PUSH2 0x17C JUMPI DUP1 PUSH4 0x39CFC995 EQ PUSH2 0x184 JUMPI DUP1 PUSH4 0x509256D9 EQ PUSH2 0x1A4 JUMPI JUMPDEST PUSH1 0x0 DUP1 REVERT JUMPDEST CALLVALUE DUP1 ISZERO PUSH2 0x130 JUMPI PUSH1 0x0 DUP1 REVERT JUMPDEST POP PUSH2 0x144 PUSH2 0x13F CALLDATASIZE PUSH1 0x4 PUSH2 0x1A5C JUMP JUMPDEST PUSH2 0x360 JUMP JUMPDEST STOP JUMPDEST CALLVALUE DUP1 ISZERO PUSH2 0x152 JUMPI PUSH1 0x0 DUP1 REVERT JUMPDEST POP PUSH2 0x166 PUSH2 0x161 CALLDATASIZE PUSH1 0x4 PUSH2 0x19ED JUMP JUMPDEST PUSH2 0x427 JUMP JUMPDEST PUSH1 0x40 MLOAD PUSH2 0x173 SWAP2 SWAP1 PUSH2 0x1CF9 JUMP JUMPDEST PUSH1 0x40 MLOAD DUP1 SWAP2 SUB SWAP1 RETURN JUMPDEST PUSH2 0x144 PUSH2 0x4AF JUMP JUMPDEST CALLVALUE DUP1 ISZERO PUSH2 0x190 JUMPI PUSH1 0x0 DUP1 REVERT JUMPDEST POP PUSH2 0x144 PUSH2 0x19F CALLDATASIZE PUSH1 0x4 PUSH2 0x1A94 JUMP JUMPDEST PUSH2 0x52F JUMP JUMPDEST CALLVALUE DUP1 ISZERO PUSH2 0x1B0 JUMPI PUSH1 0x0 DUP1 REVERT JUMPDEST POP PUSH2 0x144 PUSH2 0x1BF CALLDATASIZE PUSH1 0x4 PUSH2 0x19ED JUMP JUMPDEST PUSH2 0x635 JUMP JUMPDEST CALLVALUE DUP1 ISZERO PUSH2 0x1D0 JUMPI PUSH1 0x0 DUP1 REVERT JUMPDEST POP PUSH2 0x144 PUSH2 0x1DF CALLDATASIZE PUSH1 0x4 PUSH2 0x19ED JUMP JUMPDEST PUSH2 0x736 JUMP JUMPDEST CALLVALUE DUP1 ISZERO PUSH2 0x1F0 JUMPI PUSH1 0x0 DUP1 REVERT JUMPDEST POP PUSH2 0x1F9 PUSH2 0x803 JUMP JUMPDEST PUSH1 0x40 MLOAD PUSH2 0x173 SWAP2 SWAP1 PUSH2 0x1CC5 JUMP JUMPDEST CALLVALUE DUP1 ISZERO PUSH2 0x212 JUMPI PUSH1 0x0 DUP1 REVERT JUMPDEST POP PUSH2 0x21B PUSH2 0x89A JUMP JUMPDEST PUSH1 0x40 MLOAD PUSH2 0x173 SWAP2 SWAP1 PUSH2 0x21E9 JUMP JUMPDEST PUSH2 0x144 PUSH2 0x236 CALLDATASIZE PUSH1 0x4 PUSH2 0x19ED JUMP JUMPDEST PUSH2 0x8A6 JUMP JUMPDEST CALLVALUE DUP1 ISZERO PUSH2 0x247 JUMPI PUSH1 0x0 DUP1 REVERT JUMPDEST POP PUSH2 0x144 PUSH2 0x256 CALLDATASIZE PUSH1 0x4 PUSH2 0x19ED JUMP JUMPDEST PUSH2 0xA03 JUMP JUMPDEST CALLVALUE DUP1 ISZERO PUSH2 0x267 JUMPI PUSH1 0x0 DUP1 REVERT JUMPDEST POP PUSH2 0x166 PUSH2 0x276 CALLDATASIZE PUSH1 0x4 PUSH2 0x19ED JUMP JUMPDEST PUSH2 0xB56 JUMP JUMPDEST PUSH2 0x144 PUSH2 0xB87 JUMP JUMPDEST CALLVALUE DUP1 ISZERO PUSH2 0x28F JUMPI PUSH1 0x0 DUP1 REVERT JUMPDEST POP PUSH2 0x144 PUSH2 0x29E CALLDATASIZE PUSH1 0x4 PUSH2 0x19ED JUMP JUMPDEST PUSH2 0xBF7 JUMP JUMPDEST CALLVALUE DUP1 ISZERO PUSH2 0x2AF JUMPI PUSH1 0x0 DUP1 REVERT JUMPDEST POP PUSH2 0x144 PUSH2 0x2BE CALLDATASIZE PUSH1 0x4 PUSH2 0x19ED JUMP JUMPDEST PUSH2 0xE02 JUMP JUMPDEST CALLVALUE DUP1 ISZERO PUSH2 0x2CF JUMPI PUSH1 0x0 DUP1 REVERT JUMPDEST POP PUSH2 0x144 PUSH2 0x2DE CALLDATASIZE PUSH1 0x4 PUSH2 0x1AEF JUMP JUMPDEST PUSH2 0x119B JUMP JUMPDEST CALLVALUE DUP1 ISZERO PUSH2 0x2EF JUMPI PUSH1 0x0 DUP1 REVERT JUMPDEST POP PUSH2 0x166 PUSH2 0x136D JUMP JUMPDEST PUSH2 0x144 PUSH2 0x13F9 JUMP JUMPDEST CALLVALUE DUP1 ISZERO PUSH2 0x30C JUMPI PUSH1 0x0 DUP1 REVERT JUMPDEST POP PUSH2 0x166 PUSH2 0x31B CALLDATASIZE PUSH1 0x4 PUSH2 0x19ED JUMP JUMPDEST PUSH2 0x1606 JUMP JUMPDEST CALLVALUE DUP1 ISZERO PUSH2 0x32C JUMPI PUSH1 0x0 DUP1 REVERT JUMPDEST POP PUSH2 0x166 PUSH2 0x33B CALLDATASIZE PUSH1 0x4 PUSH2 0x19ED JUMP JUMPDEST PUSH2 0x1624 JUMP JUMPDEST CALLVALUE DUP1 ISZERO PUSH2 0x34C JUMPI PUSH1 0x0 DUP1 REVERT JUMPDEST POP PUSH2 0x144 PUSH2 0x35B CALLDATASIZE PUSH1 0x4 PUSH2 0x1A07 JUMP JUMPDEST PUSH2 0x1655 JUMP JUMPDEST PUSH1 0x0 PUSH2 0x36A PUSH2 0x136D JUMP JUMPDEST SWAP1 POP PUSH1 0x1 DUP2 ISZERO ISZERO EQ PUSH2 0x397 JUMPI PUSH1 0x40 MLOAD PUSH3 0x461BCD PUSH1 0xE5 SHL DUP2 MSTORE PUSH1 0x4 ADD PUSH2 0x38E SWAP1 PUSH2 0x2005 JUMP JUMPDEST PUSH1 0x40 MLOAD DUP1 SWAP2 SUB SWAP1 REVERT JUMPDEST PUSH1 0x2 SLOAD PUSH1 0x1 PUSH1 0x1 PUSH1 0xA0 SHL SUB AND CALLER EQ PUSH2 0x3C1 JUMPI PUSH1 0x40 MLOAD PUSH3 0x461BCD PUSH1 0xE5 SHL DUP2 MSTORE PUSH1 0x4 ADD PUSH2 0x38E SWAP1 PUSH2 0x204A JUMP JUMPDEST PUSH1 0x0 SLOAD PUSH1 0x40 MLOAD PUSH4 0x110466ED PUSH1 0xE0 SHL DUP2 MSTORE PUSH1 0x1 PUSH1 0x1 PUSH1 0xA0 SHL SUB SWAP1 SWAP2 AND SWAP1 PUSH4 0x110466ED SWAP1 PUSH2 0x3F1 SWAP1 DUP6 SWAP1 PUSH1 0x4 ADD PUSH2 0x1CF9 JUMP JUMPDEST PUSH1 0x0 PUSH1 0x40 MLOAD DUP1 DUP4 SUB DUP2 PUSH1 0x0 DUP8 DUP1 EXTCODESIZE ISZERO DUP1 ISZERO PUSH2 0x40B JUMPI PUSH1 0x0 DUP1 REVERT JUMPDEST POP GAS CALL ISZERO DUP1 ISZERO PUSH2 0x41F JUMPI RETURNDATASIZE PUSH1 0x0 DUP1 RETURNDATACOPY RETURNDATASIZE PUSH1 0x0 REVERT JUMPDEST POP POP POP POP POP POP JUMP JUMPDEST PUSH1 0x0 DUP1 SLOAD PUSH1 0x40 MLOAD PUSH3 0x70F05 PUSH1 0xEA SHL DUP2 MSTORE PUSH1 0x1 PUSH1 0x1 PUSH1 0xA0 SHL SUB SWAP1 SWAP2 AND SWAP1 PUSH4 0x1C3C1400 SWAP1 PUSH2 0x457 SWAP1 DUP6 SWAP1 PUSH1 0x4 ADD PUSH2 0x1C01 JUMP JUMPDEST PUSH1 0x20 PUSH1 0x40 MLOAD DUP1 DUP4 SUB DUP2 DUP7 DUP1 EXTCODESIZE ISZERO DUP1 ISZERO PUSH2 0x46F JUMPI PUSH1 0x0 DUP1 REVERT JUMPDEST POP GAS STATICCALL ISZERO DUP1 ISZERO PUSH2 0x483 JUMPI RETURNDATASIZE PUSH1 0x0 DUP1 RETURNDATACOPY RETURNDATASIZE PUSH1 0x0 REVERT JUMPDEST POP POP POP POP PUSH1 0x40 MLOAD RETURNDATASIZE PUSH1 0x1F NOT PUSH1 0x1F DUP3 ADD AND DUP3 ADD DUP1 PUSH1 0x40 MSTORE POP DUP2 ADD SWAP1 PUSH2 0x4A7 SWAP2 SWAP1 PUSH2 0x1A78 JUMP JUMPDEST SWAP1 POP JUMPDEST SWAP2 SWAP1 POP JUMP JUMPDEST PUSH8 0xDE0B6B3A7640000 CALLVALUE LT ISZERO PUSH2 0x4D7 JUMPI PUSH1 0x40 MLOAD PUSH3 0x461BCD PUSH1 0xE5 SHL DUP2 MSTORE PUSH1 0x4 ADD PUSH2 0x38E SWAP1 PUSH2 0x2081 JUMP JUMPDEST PUSH1 0x0 PUSH2 0x4E2 CALLER PUSH2 0x1720 JUMP JUMPDEST PUSH1 0x40 DUP1 MLOAD DUP1 DUP3 ADD DUP3 MSTORE PUSH1 0x1 DUP1 DUP3 MSTORE PUSH1 0x20 DUP1 DUP4 ADD DUP6 DUP2 MSTORE CALLER PUSH1 0x0 SWAP1 DUP2 MSTORE PUSH1 0x7 SWAP1 SWAP3 MSTORE SWAP4 SWAP1 KECCAK256 DUP3 MLOAD DUP2 SLOAD PUSH1 0xFF NOT AND SWAP1 ISZERO ISZERO OR DUP2 SSTORE SWAP3 MLOAD SWAP4 SWAP5 POP SWAP1 SWAP3 PUSH2 0x529 SWAP2 DUP4 ADD SWAP1 PUSH1 0x3 PUSH2 0x187E JUMP JUMPDEST POP POP POP POP JUMP JUMPDEST PUSH1 0x0 PUSH2 0x539 PUSH2 0x136D JUMP JUMPDEST SWAP1 POP PUSH1 0x1 DUP2 ISZERO ISZERO EQ PUSH2 0x55D JUMPI PUSH1 0x40 MLOAD PUSH3 0x461BCD PUSH1 0xE5 SHL DUP2 MSTORE PUSH1 0x4 ADD PUSH2 0x38E SWAP1 PUSH2 0x2005 JUMP JUMPDEST CALLER PUSH1 0x0 PUSH2 0x569 DUP3 PUSH2 0xB56 JUMP JUMPDEST SWAP1 POP PUSH1 0x1 DUP2 ISZERO ISZERO EQ PUSH2 0x58D JUMPI PUSH1 0x40 MLOAD PUSH3 0x461BCD PUSH1 0xE5 SHL DUP2 MSTORE PUSH1 0x4 ADD PUSH2 0x38E SWAP1 PUSH2 0x21B4 JUMP JUMPDEST PUSH1 0x0 SLOAD PUSH1 0x40 MLOAD PUSH4 0xF302FA7 PUSH1 0xE2 SHL DUP2 MSTORE PUSH1 0x1 PUSH1 0x1 PUSH1 0xA0 SHL SUB SWAP1 SWAP2 AND SWAP1 PUSH4 0x3CC0BE9C SWAP1 PUSH2 0x5C1 SWAP1 CALLER SWAP1 DUP10 SWAP1 DUP10 SWAP1 PUSH1 0x4 ADD PUSH2 0x1C53 JUMP JUMPDEST PUSH1 0x0 PUSH1 0x40 MLOAD DUP1 DUP4 SUB DUP2 PUSH1 0x0 DUP8 DUP1 EXTCODESIZE ISZERO DUP1 ISZERO PUSH2 0x5DB JUMPI PUSH1 0x0 DUP1 REVERT JUMPDEST POP GAS CALL ISZERO DUP1 ISZERO PUSH2 0x5EF JUMPI RETURNDATASIZE PUSH1 0x0 DUP1 RETURNDATACOPY RETURNDATASIZE PUSH1 0x0 REVERT JUMPDEST POP POP POP POP PUSH32 0x240F434FA78AFDE6C6A83FF9B95D095DEB69BF0267F51FAA56A4FC6664E72854 CALLER DUP7 DUP7 PUSH1 0x40 MLOAD PUSH2 0x626 SWAP4 SWAP3 SWAP2 SWAP1 PUSH2 0x1C53 JUMP JUMPDEST PUSH1 0x40 MLOAD DUP1 SWAP2 SUB SWAP1 LOG1 POP POP POP POP POP JUMP JUMPDEST PUSH1 0x0 SLOAD PUSH1 0x40 MLOAD PUSH3 0x70F05 PUSH1 0xEA SHL DUP2 MSTORE PUSH1 0x1 PUSH1 0x1 PUSH1 0xA0 SHL SUB SWAP1 SWAP2 AND SWAP1 PUSH4 0x1C3C1400 SWAP1 PUSH2 0x664 SWAP1 DUP5 SWAP1 PUSH1 0x4 ADD PUSH2 0x1C01 JUMP JUMPDEST PUSH1 0x20 PUSH1 0x40 MLOAD DUP1 DUP4 SUB DUP2 DUP7 DUP1 EXTCODESIZE ISZERO DUP1 ISZERO PUSH2 0x67C JUMPI PUSH1 0x0 DUP1 REVERT JUMPDEST POP GAS STATICCALL ISZERO DUP1 ISZERO PUSH2 0x690 JUMPI RETURNDATASIZE PUSH1 0x0 DUP1 RETURNDATACOPY RETURNDATASIZE PUSH1 0x0 REVERT JUMPDEST POP POP POP POP PUSH1 0x40 MLOAD RETURNDATASIZE PUSH1 0x1F NOT PUSH1 0x1F DUP3 ADD AND DUP3 ADD DUP1 PUSH1 0x40 MSTORE POP DUP2 ADD SWAP1 PUSH2 0x6B4 SWAP2 SWAP1 PUSH2 0x1A78 JUMP JUMPDEST ISZERO PUSH2 0x6D1 JUMPI PUSH1 0x40 MLOAD PUSH3 0x461BCD PUSH1 0xE5 SHL DUP2 MSTORE PUSH1 0x4 ADD PUSH2 0x38E SWAP1 PUSH2 0x1F07 JUMP JUMPDEST PUSH1 0x0 SLOAD PUSH1 0x40 MLOAD PUSH4 0x253055A5 PUSH1 0xE2 SHL DUP2 MSTORE PUSH1 0x1 PUSH1 0x1 PUSH1 0xA0 SHL SUB SWAP1 SWAP2 AND SWAP1 PUSH4 0x94C15694 SWAP1 PUSH2 0x701 SWAP1 DUP5 SWAP1 PUSH1 0x4 ADD PUSH2 0x1C01 JUMP JUMPDEST PUSH1 0x0 PUSH1 0x40 MLOAD DUP1 DUP4 SUB DUP2 PUSH1 0x0 DUP8 DUP1 EXTCODESIZE ISZERO DUP1 ISZERO PUSH2 0x71B JUMPI PUSH1 0x0 DUP1 REVERT JUMPDEST POP GAS CALL ISZERO DUP1 ISZERO PUSH2 0x72F JUMPI RETURNDATASIZE PUSH1 0x0 DUP1 RETURNDATACOPY RETURNDATASIZE PUSH1 0x0 REVERT JUMPDEST POP POP POP POP POP JUMP JUMPDEST PUSH1 0x0 SLOAD PUSH1 0x40 MLOAD PUSH4 0x2B84C27B PUSH1 0xE2 SHL DUP2 MSTORE PUSH1 0x1 PUSH1 0x1 PUSH1 0xA0 SHL SUB SWAP1 SWAP2 AND SWAP1 PUSH4 0xAE1309EC SWAP1 PUSH2 0x766 SWAP1 DUP5 SWAP1 PUSH1 0x4 ADD PUSH2 0x1C01 JUMP JUMPDEST PUSH1 0x20 PUSH1 0x40 MLOAD DUP1 DUP4 SUB DUP2 DUP7 DUP1 EXTCODESIZE ISZERO DUP1 ISZERO PUSH2 0x77E JUMPI PUSH1 0x0 DUP1 REVERT JUMPDEST POP GAS STATICCALL ISZERO DUP1 ISZERO PUSH2 0x792 JUMPI RETURNDATASIZE PUSH1 0x0 DUP1 RETURNDATACOPY RETURNDATASIZE PUSH1 0x0 REVERT JUMPDEST POP POP POP POP PUSH1 0x40 MLOAD RETURNDATASIZE PUSH1 0x1F NOT PUSH1 0x1F DUP3 ADD AND DUP3 ADD DUP1 PUSH1 0x40 MSTORE POP DUP2 ADD SWAP1 PUSH2 0x7B6 SWAP2 SWAP1 PUSH2 0x1A78 JUMP JUMPDEST ISZERO PUSH2 0x7D3 JUMPI PUSH1 0x40 MLOAD PUSH3 0x461BCD PUSH1 0xE5 SHL DUP2 MSTORE PUSH1 0x4 ADD PUSH2 0x38E SWAP1 PUSH2 0x217D JUMP JUMPDEST PUSH1 0x0 SLOAD PUSH1 0x40 MLOAD PUSH4 0xBDFD9877 PUSH1 0xE0 SHL DUP2 MSTORE PUSH1 0x1 PUSH1 0x1 PUSH1 0xA0 SHL SUB SWAP1 SWAP2 AND SWAP1 PUSH4 0xBDFD9877 SWAP1 PUSH2 0x701 SWAP1 DUP5 SWAP1 PUSH1 0x4 ADD PUSH2 0x1C01 JUMP JUMPDEST PUSH2 0x80B PUSH2 0x1911 JUMP JUMPDEST CALLER PUSH1 0x0 SWAP1 DUP2 MSTORE PUSH1 0x7 PUSH1 0x20 MSTORE PUSH1 0x40 SWAP1 KECCAK256 SLOAD PUSH1 0xFF AND PUSH2 0x83A JUMPI PUSH1 0x40 MLOAD PUSH3 0x461BCD PUSH1 0xE5 SHL DUP2 MSTORE PUSH1 0x4 ADD PUSH2 0x38E SWAP1 PUSH2 0x1ED0 JUMP JUMPDEST CALLER PUSH1 0x0 SWAP1 DUP2 MSTORE PUSH1 0x7 PUSH1 0x20 MSTORE PUSH1 0x40 DUP1 DUP3 KECCAK256 DUP2 MLOAD PUSH1 0x60 DUP2 ADD SWAP3 DUP4 SWAP1 MSTORE SWAP3 PUSH1 0x1 SWAP1 SWAP2 ADD SWAP2 PUSH1 0x3 SWAP2 DUP4 SWAP1 DUP6 JUMPDEST DUP3 SLOAD PUSH2 0x100 DUP4 SWAP1 EXP SWAP1 DIV PUSH1 0xFF AND DUP2 MSTORE PUSH1 0x20 PUSH1 0x1 SWAP3 DUP4 ADD DUP2 DUP2 DIV SWAP5 DUP6 ADD SWAP5 SWAP1 SWAP4 SUB SWAP1 SWAP3 MUL SWAP2 ADD DUP1 DUP5 GT PUSH2 0x862 JUMPI SWAP1 POP POP POP POP POP POP SWAP1 POP SWAP1 JUMP JUMPDEST PUSH8 0xDE0B6B3A7640000 DUP2 JUMP JUMPDEST PUSH1 0x0 PUSH2 0x8B0 PUSH2 0x136D JUMP JUMPDEST SWAP1 POP PUSH1 0x1 DUP2 ISZERO ISZERO EQ PUSH2 0x8D4 JUMPI PUSH1 0x40 MLOAD PUSH3 0x461BCD PUSH1 0xE5 SHL DUP2 MSTORE PUSH1 0x4 ADD PUSH2 0x38E SWAP1 PUSH2 0x2005 JUMP JUMPDEST CALLER PUSH1 0x0 PUSH2 0x8E0 DUP3 PUSH2 0x427 JUMP JUMPDEST SWAP1 POP PUSH1 0x1 DUP2 ISZERO ISZERO EQ PUSH2 0x904 JUMPI PUSH1 0x40 MLOAD PUSH3 0x461BCD PUSH1 0xE5 SHL DUP2 MSTORE PUSH1 0x4 ADD PUSH2 0x38E SWAP1 PUSH2 0x1DE7 JUMP JUMPDEST PUSH8 0xDE0B6B3A7640000 CALLVALUE GT ISZERO PUSH2 0x92C JUMPI PUSH1 0x40 MLOAD PUSH3 0x461BCD PUSH1 0xE5 SHL DUP2 MSTORE PUSH1 0x4 ADD PUSH2 0x38E SWAP1 PUSH2 0x1E1E JUMP JUMPDEST PUSH1 0x0 DUP1 SLOAD PUSH1 0x40 MLOAD PUSH1 0x1 PUSH1 0x1 PUSH1 0xA0 SHL SUB SWAP1 SWAP2 AND SWAP2 DUP3 SWAP2 CALLVALUE DUP1 ISZERO PUSH2 0x8FC MUL SWAP3 SWAP1 SWAP2 SWAP1 DUP2 DUP2 DUP2 DUP6 DUP9 DUP9 CALL SWAP4 POP POP POP POP ISZERO DUP1 ISZERO PUSH2 0x969 JUMPI RETURNDATASIZE PUSH1 0x0 DUP1 RETURNDATACOPY RETURNDATASIZE PUSH1 0x0 REVERT JUMPDEST POP PUSH1 0x0 SLOAD PUSH1 0x40 MLOAD PUSH4 0xA9F3373 PUSH1 0xE1 SHL DUP2 MSTORE PUSH1 0x1 PUSH1 0x1 PUSH1 0xA0 SHL SUB SWAP1 SWAP2 AND SWAP1 PUSH4 0x153E66E6 SWAP1 PUSH2 0x99E SWAP1 CALLER SWAP1 DUP10 SWAP1 CALLVALUE SWAP1 PUSH1 0x4 ADD PUSH2 0x1C2F JUMP JUMPDEST PUSH1 0x0 PUSH1 0x40 MLOAD DUP1 DUP4 SUB DUP2 PUSH1 0x0 DUP8 DUP1 EXTCODESIZE ISZERO DUP1 ISZERO PUSH2 0x9B8 JUMPI PUSH1 0x0 DUP1 REVERT JUMPDEST POP GAS CALL ISZERO DUP1 ISZERO PUSH2 0x9CC JUMPI RETURNDATASIZE PUSH1 0x0 DUP1 RETURNDATACOPY RETURNDATASIZE PUSH1 0x0 REVERT JUMPDEST POP POP POP POP PUSH32 0xC8B3E334452A1E251465E2C50A23006DA0960024F26FD6176087356496EA20ED CALLER DUP7 CALLVALUE PUSH1 0x40 MLOAD PUSH2 0x626 SWAP4 SWAP3 SWAP2 SWAP1 PUSH2 0x1C2F JUMP JUMPDEST PUSH1 0x0 PUSH2 0xA0D PUSH2 0x136D JUMP JUMPDEST SWAP1 POP PUSH1 0x1 DUP2 ISZERO ISZERO EQ PUSH2 0xA31 JUMPI PUSH1 0x40 MLOAD PUSH3 0x461BCD PUSH1 0xE5 SHL DUP2 MSTORE PUSH1 0x4 ADD PUSH2 0x38E SWAP1 PUSH2 0x2005 JUMP JUMPDEST DUP2 PUSH1 0x0 PUSH2 0xA3D DUP3 PUSH2 0xB56 JUMP JUMPDEST SWAP1 POP DUP1 ISZERO PUSH2 0xA5D JUMPI PUSH1 0x40 MLOAD PUSH3 0x461BCD PUSH1 0xE5 SHL DUP2 MSTORE PUSH1 0x4 ADD PUSH2 0x38E SWAP1 PUSH2 0x1FCE JUMP JUMPDEST DUP4 PUSH1 0x0 PUSH2 0xA69 DUP3 PUSH2 0x427 JUMP JUMPDEST SWAP1 POP DUP1 ISZERO PUSH2 0xA89 JUMPI PUSH1 0x40 MLOAD PUSH3 0x461BCD PUSH1 0xE5 SHL DUP2 MSTORE PUSH1 0x4 ADD PUSH2 0x38E SWAP1 PUSH2 0x20FB JUMP JUMPDEST PUSH1 0x0 PUSH2 0xA94 DUP8 PUSH2 0xB56 JUMP JUMPDEST SWAP1 POP DUP1 ISZERO PUSH2 0xAB4 JUMPI PUSH1 0x40 MLOAD PUSH3 0x461BCD PUSH1 0xE5 SHL DUP2 MSTORE PUSH1 0x4 ADD PUSH2 0x38E SWAP1 PUSH2 0x1D8A JUMP JUMPDEST PUSH1 0x0 SLOAD PUSH1 0x40 MLOAD PUSH4 0x253055A5 PUSH1 0xE2 SHL DUP2 MSTORE PUSH1 0x1 PUSH1 0x1 PUSH1 0xA0 SHL SUB SWAP1 SWAP2 AND SWAP1 PUSH4 0x94C15694 SWAP1 PUSH2 0xAE4 SWAP1 DUP11 SWAP1 PUSH1 0x4 ADD PUSH2 0x1C01 JUMP JUMPDEST PUSH1 0x0 PUSH1 0x40 MLOAD DUP1 DUP4 SUB DUP2 PUSH1 0x0 DUP8 DUP1 EXTCODESIZE ISZERO DUP1 ISZERO PUSH2 0xAFE JUMPI PUSH1 0x0 DUP1 REVERT JUMPDEST POP GAS CALL ISZERO DUP1 ISZERO PUSH2 0xB12 JUMPI RETURNDATASIZE PUSH1 0x0 DUP1 RETURNDATACOPY RETURNDATASIZE PUSH1 0x0 REVERT JUMPDEST POP POP POP POP PUSH32 0xA83117346CCA49BD2C97ACD5B237A40A23CEA37CDFCED29B1A65142BFE2C5BAF DUP8 PUSH1 0x40 MLOAD PUSH2 0xB45 SWAP2 SWAP1 PUSH2 0x1C01 JUMP JUMPDEST PUSH1 0x40 MLOAD DUP1 SWAP2 SUB SWAP1 LOG1 POP POP POP POP POP POP POP JUMP JUMPDEST PUSH1 0x0 DUP1 SLOAD PUSH1 0x40 MLOAD PUSH4 0x2B84C27B PUSH1 0xE2 SHL DUP2 MSTORE PUSH1 0x1 PUSH1 0x1 PUSH1 0xA0 SHL SUB SWAP1 SWAP2 AND SWAP1 PUSH4 0xAE1309EC SWAP1 PUSH2 0x457 SWAP1 DUP6 SWAP1 PUSH1 0x4 ADD PUSH2 0x1C01 JUMP JUMPDEST PUSH1 0x0 PUSH2 0xB91 PUSH2 0x136D JUMP JUMPDEST SWAP1 POP PUSH1 0x1 DUP2 ISZERO ISZERO EQ PUSH2 0xBB5 JUMPI PUSH1 0x40 MLOAD PUSH3 0x461BCD PUSH1 0xE5 SHL DUP2 MSTORE PUSH1 0x4 ADD PUSH2 0x38E SWAP1 PUSH2 0x2005 JUMP JUMPDEST PUSH1 0x0 DUP1 SLOAD PUSH1 0x40 MLOAD PUSH1 0x1 PUSH1 0x1 PUSH1 0xA0 SHL SUB SWAP1 SWAP2 AND SWAP2 DUP3 SWAP2 CALLVALUE DUP1 ISZERO PUSH2 0x8FC MUL SWAP3 SWAP1 SWAP2 SWAP1 DUP2 DUP2 DUP2 DUP6 DUP9 DUP9 CALL SWAP4 POP POP POP POP ISZERO DUP1 ISZERO PUSH2 0xBF2 JUMPI RETURNDATASIZE PUSH1 0x0 DUP1 RETURNDATACOPY RETURNDATASIZE PUSH1 0x0 REVERT JUMPDEST POP POP POP JUMP JUMPDEST PUSH1 0x0 PUSH2 0xC01 PUSH2 0x136D JUMP JUMPDEST SWAP1 POP PUSH1 0x1 DUP2 ISZERO ISZERO EQ PUSH2 0xC25 JUMPI PUSH1 0x40 MLOAD PUSH3 0x461BCD PUSH1 0xE5 SHL DUP2 MSTORE PUSH1 0x4 ADD PUSH2 0x38E SWAP1 PUSH2 0x2005 JUMP JUMPDEST CALLER PUSH1 0x0 PUSH2 0xC31 DUP3 PUSH2 0x427 JUMP JUMPDEST SWAP1 POP PUSH1 0x1 DUP2 ISZERO ISZERO EQ PUSH2 0xC55 JUMPI PUSH1 0x40 MLOAD PUSH3 0x461BCD PUSH1 0xE5 SHL DUP2 MSTORE PUSH1 0x4 ADD PUSH2 0x38E SWAP1 PUSH2 0x1DE7 JUMP JUMPDEST PUSH1 0x0 SLOAD PUSH1 0x40 MLOAD PUSH4 0x778C9F9 PUSH1 0xE2 SHL DUP2 MSTORE PUSH1 0x1 PUSH1 0x1 PUSH1 0xA0 SHL SUB SWAP1 SWAP2 AND SWAP1 PUSH4 0x1DE327E4 SWAP1 PUSH2 0xC87 SWAP1 CALLER SWAP1 DUP9 SWAP1 PUSH1 0x4 ADD PUSH2 0x1C15 JUMP JUMPDEST PUSH1 0x20 PUSH1 0x40 MLOAD DUP1 DUP4 SUB DUP2 DUP7 DUP1 EXTCODESIZE ISZERO DUP1 ISZERO PUSH2 0xC9F JUMPI PUSH1 0x0 DUP1 REVERT JUMPDEST POP GAS STATICCALL ISZERO DUP1 ISZERO PUSH2 0xCB3 JUMPI RETURNDATASIZE PUSH1 0x0 DUP1 RETURNDATACOPY RETURNDATASIZE PUSH1 0x0 REVERT JUMPDEST POP POP POP POP PUSH1 0x40 MLOAD RETURNDATASIZE PUSH1 0x1F NOT PUSH1 0x1F DUP3 ADD AND DUP3 ADD DUP1 PUSH1 0x40 MSTORE POP DUP2 ADD SWAP1 PUSH2 0xCD7 SWAP2 SWAP1 PUSH2 0x1A78 JUMP JUMPDEST ISZERO ISZERO PUSH1 0x1 EQ PUSH2 0xCF8 JUMPI PUSH1 0x40 MLOAD PUSH3 0x461BCD PUSH1 0xE5 SHL DUP2 MSTORE PUSH1 0x4 ADD PUSH2 0x38E SWAP1 PUSH2 0x1D53 JUMP JUMPDEST PUSH1 0x0 DUP1 SLOAD PUSH1 0x40 MLOAD PUSH4 0x1AF2C973 PUSH1 0xE3 SHL DUP2 MSTORE PUSH1 0x1 PUSH1 0x1 PUSH1 0xA0 SHL SUB SWAP1 SWAP2 AND SWAP1 PUSH4 0xD7964B98 SWAP1 PUSH2 0xD2B SWAP1 CALLER SWAP1 DUP10 SWAP1 PUSH1 0x4 ADD PUSH2 0x1C15 JUMP JUMPDEST PUSH1 0x20 PUSH1 0x40 MLOAD DUP1 DUP4 SUB DUP2 DUP7 DUP1 EXTCODESIZE ISZERO DUP1 ISZERO PUSH2 0xD43 JUMPI PUSH1 0x0 DUP1 REVERT JUMPDEST POP GAS STATICCALL ISZERO DUP1 ISZERO PUSH2 0xD57 JUMPI RETURNDATASIZE PUSH1 0x0 DUP1 RETURNDATACOPY RETURNDATASIZE PUSH1 0x0 REVERT JUMPDEST POP POP POP POP PUSH1 0x40 MLOAD RETURNDATASIZE PUSH1 0x1F NOT PUSH1 0x1F DUP3 ADD AND DUP3 ADD DUP1 PUSH1 0x40 MSTORE POP DUP2 ADD SWAP1 PUSH2 0xD7B SWAP2 SWAP1 PUSH2 0x1AD7 JUMP JUMPDEST GT PUSH2 0xD98 JUMPI PUSH1 0x40 MLOAD PUSH3 0x461BCD PUSH1 0xE5 SHL DUP2 MSTORE PUSH1 0x4 ADD PUSH2 0x38E SWAP1 PUSH2 0x1EA3 JUMP JUMPDEST PUSH1 0x0 SLOAD PUSH1 0x40 MLOAD PUSH4 0xDA349E61 PUSH1 0xE0 SHL DUP2 MSTORE PUSH1 0x1 PUSH1 0x1 PUSH1 0xA0 SHL SUB SWAP1 SWAP2 AND SWAP1 PUSH4 0xDA349E61 SWAP1 PUSH2 0xDCA SWAP1 CALLER SWAP1 DUP9 SWAP1 PUSH1 0x4 ADD PUSH2 0x1C15 JUMP JUMPDEST PUSH1 0x0 PUSH1 0x40 MLOAD DUP1 DUP4 SUB DUP2 PUSH1 0x0 DUP8 DUP1 EXTCODESIZE ISZERO DUP1 ISZERO PUSH2 0xDE4 JUMPI PUSH1 0x0 DUP1 REVERT JUMPDEST POP GAS CALL ISZERO DUP1 ISZERO PUSH2 0xDF8 JUMPI RETURNDATASIZE PUSH1 0x0 DUP1 RETURNDATACOPY RETURNDATASIZE PUSH1 0x0 REVERT JUMPDEST POP POP POP POP POP POP POP POP JUMP JUMPDEST PUSH1 0x0 PUSH2 0xE0C PUSH2 0x136D JUMP JUMPDEST SWAP1 POP PUSH1 0x1 DUP2 ISZERO ISZERO EQ PUSH2 0xE30 JUMPI PUSH1 0x40 MLOAD PUSH3 0x461BCD PUSH1 0xE5 SHL DUP2 MSTORE PUSH1 0x4 ADD PUSH2 0x38E SWAP1 PUSH2 0x2005 JUMP JUMPDEST DUP2 PUSH1 0x0 PUSH2 0xE3C DUP3 PUSH2 0xB56 JUMP JUMPDEST SWAP1 POP DUP1 ISZERO PUSH2 0xE5C JUMPI PUSH1 0x40 MLOAD PUSH3 0x461BCD PUSH1 0xE5 SHL DUP2 MSTORE PUSH1 0x4 ADD PUSH2 0x38E SWAP1 PUSH2 0x1FCE JUMP JUMPDEST DUP4 PUSH1 0x0 PUSH2 0xE68 DUP3 PUSH2 0x427 JUMP JUMPDEST SWAP1 POP DUP1 ISZERO PUSH2 0xE88 JUMPI PUSH1 0x40 MLOAD PUSH3 0x461BCD PUSH1 0xE5 SHL DUP2 MSTORE PUSH1 0x4 ADD PUSH2 0x38E SWAP1 PUSH2 0x20FB JUMP JUMPDEST PUSH1 0x0 DUP1 PUSH1 0x0 SWAP1 SLOAD SWAP1 PUSH2 0x100 EXP SWAP1 DIV PUSH1 0x1 PUSH1 0x1 PUSH1 0xA0 SHL SUB AND PUSH1 0x1 PUSH1 0x1 PUSH1 0xA0 SHL SUB AND PUSH4 0x7AB21CDC PUSH1 0x40 MLOAD DUP2 PUSH4 0xFFFFFFFF AND PUSH1 0xE0 SHL DUP2 MSTORE PUSH1 0x4 ADD PUSH1 0x20 PUSH1 0x40 MLOAD DUP1 DUP4 SUB DUP2 DUP7 DUP1 EXTCODESIZE ISZERO DUP1 ISZERO PUSH2 0xED7 JUMPI PUSH1 0x0 DUP1 REVERT JUMPDEST POP GAS STATICCALL ISZERO DUP1 ISZERO PUSH2 0xEEB JUMPI RETURNDATASIZE PUSH1 0x0 DUP1 RETURNDATACOPY RETURNDATASIZE PUSH1 0x0 REVERT JUMPDEST POP POP POP POP PUSH1 0x40 MLOAD RETURNDATASIZE PUSH1 0x1F NOT PUSH1 0x1F DUP3 ADD AND DUP3 ADD DUP1 PUSH1 0x40 MSTORE POP DUP2 ADD SWAP1 PUSH2 0xF0F SWAP2 SWAP1 PUSH2 0x1AD7 JUMP JUMPDEST SWAP1 POP PUSH1 0x4 DUP2 LT ISZERO PUSH2 0xFDD JUMPI PUSH2 0xF23 CALLER PUSH2 0xB56 JUMP JUMPDEST PUSH2 0xF3F JUMPI PUSH1 0x40 MLOAD PUSH3 0x461BCD PUSH1 0xE5 SHL DUP2 MSTORE PUSH1 0x4 ADD PUSH2 0x38E SWAP1 PUSH2 0x1F3E JUMP JUMPDEST PUSH1 0x0 SLOAD PUSH1 0x40 MLOAD PUSH4 0xBDFD9877 PUSH1 0xE0 SHL DUP2 MSTORE PUSH1 0x1 PUSH1 0x1 PUSH1 0xA0 SHL SUB SWAP1 SWAP2 AND SWAP1 PUSH4 0xBDFD9877 SWAP1 PUSH2 0xF6F SWAP1 DUP11 SWAP1 PUSH1 0x4 ADD PUSH2 0x1C01 JUMP JUMPDEST PUSH1 0x0 PUSH1 0x40 MLOAD DUP1 DUP4 SUB DUP2 PUSH1 0x0 DUP8 DUP1 EXTCODESIZE ISZERO DUP1 ISZERO PUSH2 0xF89 JUMPI PUSH1 0x0 DUP1 REVERT JUMPDEST POP GAS CALL ISZERO DUP1 ISZERO PUSH2 0xF9D JUMPI RETURNDATASIZE PUSH1 0x0 DUP1 RETURNDATACOPY RETURNDATASIZE PUSH1 0x0 REVERT JUMPDEST POP POP POP POP PUSH32 0x2EF49F308764EBE6C1149AC59BF417810AA1D676E95227CC4638855C9EAF6C88 DUP8 PUSH1 0x40 MLOAD PUSH2 0xFD0 SWAP2 SWAP1 PUSH2 0x1C01 JUMP JUMPDEST PUSH1 0x40 MLOAD DUP1 SWAP2 SUB SWAP1 LOG1 PUSH2 0x1192 JUMP JUMPDEST CALLER PUSH1 0x0 SWAP1 DUP2 MSTORE PUSH1 0x4 PUSH1 0x20 SWAP1 DUP2 MSTORE PUSH1 0x40 DUP1 DUP4 KECCAK256 PUSH1 0x1 PUSH1 0x1 PUSH1 0xA0 SHL SUB DUP12 AND DUP5 MSTORE SWAP1 SWAP2 MSTORE SWAP1 KECCAK256 SLOAD PUSH1 0xFF AND PUSH2 0x116B JUMPI CALLER PUSH1 0x0 SWAP1 DUP2 MSTORE PUSH1 0x4 PUSH1 0x20 SWAP1 DUP2 MSTORE PUSH1 0x40 DUP1 DUP4 KECCAK256 PUSH1 0x1 PUSH1 0x1 PUSH1 0xA0 SHL SUB DUP12 AND DUP5 MSTORE DUP3 MSTORE DUP1 DUP4 KECCAK256 DUP1 SLOAD PUSH1 0xFF NOT AND PUSH1 0x1 SWAP1 DUP2 OR SWAP1 SWAP2 SSTORE PUSH1 0x5 SWAP1 SWAP3 MSTORE DUP3 KECCAK256 DUP1 SLOAD SWAP2 SWAP3 SWAP1 SWAP2 PUSH2 0x1051 SWAP1 DUP5 SWAP1 PUSH2 0x2230 JUMP JUMPDEST SWAP1 SWAP2 SSTORE POP PUSH2 0x1062 SWAP1 POP PUSH1 0x2 DUP3 PUSH2 0x2248 JUMP JUMPDEST PUSH1 0x1 PUSH1 0x1 PUSH1 0xA0 SHL SUB DUP9 AND PUSH1 0x0 SWAP1 DUP2 MSTORE PUSH1 0x5 PUSH1 0x20 MSTORE PUSH1 0x40 SWAP1 KECCAK256 SLOAD LT PUSH2 0x113F JUMPI PUSH1 0x0 SLOAD PUSH1 0x40 MLOAD PUSH4 0xBDFD9877 PUSH1 0xE0 SHL DUP2 MSTORE PUSH1 0x1 PUSH1 0x1 PUSH1 0xA0 SHL SUB SWAP1 SWAP2 AND SWAP1 PUSH4 0xBDFD9877 SWAP1 PUSH2 0x10B0 SWAP1 DUP11 SWAP1 PUSH1 0x4 ADD PUSH2 0x1C01 JUMP JUMPDEST PUSH1 0x0 PUSH1 0x40 MLOAD DUP1 DUP4 SUB DUP2 PUSH1 0x0 DUP8 DUP1 EXTCODESIZE ISZERO DUP1 ISZERO PUSH2 0x10CA JUMPI PUSH1 0x0 DUP1 REVERT JUMPDEST POP GAS CALL ISZERO DUP1 ISZERO PUSH2 0x10DE JUMPI RETURNDATASIZE PUSH1 0x0 DUP1 RETURNDATACOPY RETURNDATASIZE PUSH1 0x0 REVERT JUMPDEST POP POP POP PUSH1 0x1 PUSH1 0x1 PUSH1 0xA0 SHL SUB DUP9 AND PUSH1 0x0 SWAP1 DUP2 MSTORE PUSH1 0x1 PUSH1 0x20 MSTORE PUSH1 0x40 SWAP1 DUP2 SWAP1 KECCAK256 DUP1 SLOAD PUSH1 0xFF NOT AND SWAP1 SSTORE MLOAD PUSH32 0x2EF49F308764EBE6C1149AC59BF417810AA1D676E95227CC4638855C9EAF6C88 SWAP2 POP PUSH2 0x1132 SWAP1 DUP10 SWAP1 PUSH2 0x1C01 JUMP JUMPDEST PUSH1 0x40 MLOAD DUP1 SWAP2 SUB SWAP1 LOG1 PUSH2 0x1166 JUMP JUMPDEST PUSH1 0x1 PUSH1 0x1 PUSH1 0xA0 SHL SUB DUP8 AND PUSH1 0x0 SWAP1 DUP2 MSTORE PUSH1 0x1 PUSH1 0x20 DUP2 SWAP1 MSTORE PUSH1 0x40 SWAP1 SWAP2 KECCAK256 DUP1 SLOAD PUSH1 0xFF NOT AND SWAP1 SWAP2 OR SWAP1 SSTORE JUMPDEST PUSH2 0x1192 JUMP JUMPDEST PUSH1 0x1 PUSH1 0x1 PUSH1 0xA0 SHL SUB DUP8 AND PUSH1 0x0 SWAP1 DUP2 MSTORE PUSH1 0x1 PUSH1 0x20 DUP2 SWAP1 MSTORE PUSH1 0x40 SWAP1 SWAP2 KECCAK256 DUP1 SLOAD PUSH1 0xFF NOT AND SWAP1 SWAP2 OR SWAP1 SSTORE JUMPDEST POP POP POP POP POP POP POP JUMP JUMPDEST CALLER PUSH1 0x0 SWAP1 DUP2 MSTORE PUSH1 0x7 PUSH1 0x20 MSTORE PUSH1 0x40 SWAP1 KECCAK256 PUSH1 0x1 ADD SLOAD PUSH1 0xFF DUP7 DUP2 AND SWAP2 AND EQ DUP1 PUSH2 0x11DD JUMPI POP CALLER PUSH1 0x0 SWAP1 DUP2 MSTORE PUSH1 0x7 PUSH1 0x20 MSTORE PUSH1 0x40 SWAP1 KECCAK256 PUSH1 0x1 ADD SLOAD PUSH1 0xFF DUP7 DUP2 AND PUSH2 0x100 SWAP1 SWAP3 DIV AND EQ JUMPDEST DUP1 PUSH2 0x1205 JUMPI POP CALLER PUSH1 0x0 SWAP1 DUP2 MSTORE PUSH1 0x7 PUSH1 0x20 MSTORE PUSH1 0x40 SWAP1 KECCAK256 PUSH1 0x1 ADD SLOAD PUSH1 0xFF DUP7 DUP2 AND PUSH3 0x10000 SWAP1 SWAP3 DIV AND EQ JUMPDEST PUSH2 0x1221 JUMPI PUSH1 0x40 MLOAD PUSH3 0x461BCD PUSH1 0xE5 SHL DUP2 MSTORE PUSH1 0x4 ADD PUSH2 0x38E SWAP1 PUSH2 0x20B8 JUMP JUMPDEST PUSH1 0x0 DUP6 DUP6 DUP6 DUP6 PUSH1 0x40 MLOAD PUSH1 0x20 ADD PUSH2 0x123A SWAP5 SWAP4 SWAP3 SWAP2 SWAP1 PUSH2 0x1BB2 JUMP JUMPDEST PUSH1 0x40 DUP1 MLOAD DUP1 DUP4 SUB PUSH1 0x1F NOT ADD DUP2 MSTORE SWAP2 DUP2 MSTORE DUP2 MLOAD PUSH1 0x20 SWAP3 DUP4 ADD KECCAK256 PUSH1 0x0 DUP2 DUP2 MSTORE PUSH1 0x9 SWAP1 SWAP4 MSTORE SWAP2 KECCAK256 SLOAD SWAP1 SWAP2 POP PUSH1 0x1 PUSH1 0xA0 SHL SWAP1 DIV PUSH1 0xFF AND PUSH2 0x1288 JUMPI PUSH1 0x40 MLOAD PUSH3 0x461BCD PUSH1 0xE5 SHL DUP2 MSTORE PUSH1 0x4 ADD PUSH2 0x38E SWAP1 PUSH2 0x1D04 JUMP JUMPDEST PUSH1 0x0 DUP2 DUP2 MSTORE PUSH1 0x8 PUSH1 0x20 SWAP1 DUP2 MSTORE PUSH1 0x40 DUP1 DUP4 KECCAK256 PUSH1 0xFF DUP7 AND DUP5 MSTORE DUP3 MSTORE DUP1 DUP4 KECCAK256 DUP1 SLOAD PUSH1 0x1 DUP2 ADD DUP3 SSTORE SWAP1 DUP5 MSTORE SWAP2 SWAP1 SWAP3 KECCAK256 ADD DUP1 SLOAD PUSH1 0x1 PUSH1 0x1 PUSH1 0xA0 SHL SUB NOT AND CALLER OR SWAP1 SSTORE MLOAD PUSH32 0x43C853095C2752648493C88B4BAAC4D580D2594FFB00C6F1D4242D844514F783 SWAP1 PUSH2 0x12F8 SWAP1 DUP8 SWAP1 DUP8 SWAP1 DUP8 SWAP1 DUP8 SWAP1 PUSH2 0x1C87 JUMP JUMPDEST PUSH1 0x40 MLOAD DUP1 SWAP2 SUB SWAP1 LOG1 PUSH1 0x0 DUP2 DUP2 MSTORE PUSH1 0x8 PUSH1 0x20 SWAP1 DUP2 MSTORE PUSH1 0x40 DUP1 DUP4 KECCAK256 PUSH1 0xFF DUP7 AND DUP5 MSTORE SWAP1 SWAP2 MSTORE SWAP1 KECCAK256 SLOAD PUSH1 0x3 GT PUSH2 0x41F JUMPI PUSH32 0xE23F5229DE535C091E3B7BEC2665F5D698192D3B31393066E8987B7A05076B6C DUP6 DUP6 DUP6 DUP6 PUSH1 0x40 MLOAD PUSH2 0x1359 SWAP5 SWAP4 SWAP3 SWAP2 SWAP1 PUSH2 0x1C87 JUMP JUMPDEST PUSH1 0x40 MLOAD DUP1 SWAP2 SUB SWAP1 LOG1 PUSH2 0x41F DUP6 DUP6 DUP6 DUP6 PUSH2 0x17C0 JUMP JUMPDEST PUSH1 0x0 DUP1 PUSH1 0x0 SWAP1 SLOAD SWAP1 PUSH2 0x100 EXP SWAP1 DIV PUSH1 0x1 PUSH1 0x1 PUSH1 0xA0 SHL SUB AND PUSH1 0x1 PUSH1 0x1 PUSH1 0xA0 SHL SUB AND PUSH4 0xCD905DFF PUSH1 0x40 MLOAD DUP2 PUSH4 0xFFFFFFFF AND PUSH1 0xE0 SHL DUP2 MSTORE PUSH1 0x4 ADD PUSH1 0x20 PUSH1 0x40 MLOAD DUP1 DUP4 SUB DUP2 DUP7 DUP1 EXTCODESIZE ISZERO DUP1 ISZERO PUSH2 0x13BC JUMPI PUSH1 0x0 DUP1 REVERT JUMPDEST POP GAS STATICCALL ISZERO DUP1 ISZERO PUSH2 0x13D0 JUMPI RETURNDATASIZE PUSH1 0x0 DUP1 RETURNDATACOPY RETURNDATASIZE PUSH1 0x0 REVERT JUMPDEST POP POP POP POP PUSH1 0x40 MLOAD RETURNDATASIZE PUSH1 0x1F NOT PUSH1 0x1F DUP3 ADD AND DUP3 ADD DUP1 PUSH1 0x40 MSTORE POP DUP2 ADD SWAP1 PUSH2 0x13F4 SWAP2 SWAP1 PUSH2 0x1A78 JUMP JUMPDEST SWAP1 POP SWAP1 JUMP JUMPDEST PUSH1 0x0 PUSH2 0x1403 PUSH2 0x136D JUMP JUMPDEST SWAP1 POP PUSH1 0x1 DUP2 ISZERO ISZERO EQ PUSH2 0x1427 JUMPI PUSH1 0x40 MLOAD PUSH3 0x461BCD PUSH1 0xE5 SHL DUP2 MSTORE PUSH1 0x4 ADD PUSH2 0x38E SWAP1 PUSH2 0x2005 JUMP JUMPDEST CALLER PUSH1 0x0 PUSH2 0x1433 DUP3 PUSH2 0xB56 JUMP JUMPDEST SWAP1 POP PUSH1 0x1 DUP2 ISZERO ISZERO EQ PUSH2 0x1457 JUMPI PUSH1 0x40 MLOAD PUSH3 0x461BCD PUSH1 0xE5 SHL DUP2 MSTORE PUSH1 0x4 ADD PUSH2 0x38E SWAP1 PUSH2 0x21B4 JUMP JUMPDEST PUSH2 0x1460 CALLER PUSH2 0x1624 JUMP JUMPDEST ISZERO PUSH2 0x147D JUMPI PUSH1 0x40 MLOAD PUSH3 0x461BCD PUSH1 0xE5 SHL DUP2 MSTORE PUSH1 0x4 ADD PUSH2 0x38E SWAP1 PUSH2 0x1E6C JUMP JUMPDEST PUSH8 0x8AC7230489E80000 CALLVALUE LT ISZERO PUSH2 0x14A5 JUMPI PUSH1 0x40 MLOAD PUSH3 0x461BCD PUSH1 0xE5 SHL DUP2 MSTORE PUSH1 0x4 ADD PUSH2 0x38E SWAP1 PUSH2 0x2132 JUMP JUMPDEST PUSH1 0x0 DUP1 SLOAD PUSH1 0x1 PUSH1 0x1 PUSH1 0xA0 SHL SUB AND SWAP1 PUSH2 0x14C5 PUSH8 0x8AC7230489E80000 CALLVALUE PUSH2 0x225C JUMP JUMPDEST SWAP1 POP DUP1 ISZERO PUSH2 0x153A JUMPI PUSH1 0x40 MLOAD PUSH1 0x1 PUSH1 0x1 PUSH1 0xA0 SHL SUB DUP4 AND SWAP1 PUSH1 0x0 SWAP1 PUSH8 0x8AC7230489E80000 SWAP1 DUP3 DUP2 DUP2 DUP2 DUP6 DUP9 DUP4 CALL SWAP4 POP POP POP POP ISZERO DUP1 ISZERO PUSH2 0x1506 JUMPI RETURNDATASIZE PUSH1 0x0 DUP1 RETURNDATACOPY RETURNDATASIZE PUSH1 0x0 REVERT JUMPDEST POP PUSH1 0x40 MLOAD CALLER SWAP1 DUP3 ISZERO PUSH2 0x8FC MUL SWAP1 DUP4 SWAP1 PUSH1 0x0 DUP2 DUP2 DUP2 DUP6 DUP9 DUP9 CALL SWAP4 POP POP POP POP ISZERO DUP1 ISZERO PUSH2 0x1534 JUMPI RETURNDATASIZE PUSH1 0x0 DUP1 RETURNDATACOPY RETURNDATASIZE PUSH1 0x0 REVERT JUMPDEST POP PUSH2 0x1575 JUMP JUMPDEST PUSH1 0x40 MLOAD PUSH1 0x1 PUSH1 0x1 PUSH1 0xA0 SHL SUB DUP4 AND SWAP1 PUSH1 0x0 SWAP1 PUSH8 0x8AC7230489E80000 SWAP1 DUP3 DUP2 DUP2 DUP2 DUP6 DUP9 DUP4 CALL SWAP4 POP POP POP POP ISZERO DUP1 ISZERO PUSH2 0x1573 JUMPI RETURNDATASIZE PUSH1 0x0 DUP1 RETURNDATACOPY RETURNDATASIZE PUSH1 0x0 REVERT JUMPDEST POP JUMPDEST PUSH1 0x0 SLOAD PUSH1 0x40 MLOAD PUSH4 0x7976D423 PUSH1 0xE1 SHL DUP2 MSTORE PUSH1 0x1 PUSH1 0x1 PUSH1 0xA0 SHL SUB SWAP1 SWAP2 AND SWAP1 PUSH4 0xF2EDA846 SWAP1 PUSH2 0x15A5 SWAP1 CALLER SWAP1 PUSH1 0x4 ADD PUSH2 0x1C01 JUMP JUMPDEST PUSH1 0x0 PUSH1 0x40 MLOAD DUP1 DUP4 SUB DUP2 PUSH1 0x0 DUP8 DUP1 EXTCODESIZE ISZERO DUP1 ISZERO PUSH2 0x15BF JUMPI PUSH1 0x0 DUP1 REVERT JUMPDEST POP GAS CALL ISZERO DUP1 ISZERO PUSH2 0x15D3 JUMPI RETURNDATASIZE PUSH1 0x0 DUP1 RETURNDATACOPY RETURNDATASIZE PUSH1 0x0 REVERT JUMPDEST POP POP POP POP PUSH32 0x206CC1C860F752D981F7DE81003368154D34B6ED91C6F5EA169E9EB5F1626F8B CALLER PUSH1 0x40 MLOAD PUSH2 0x626 SWAP2 SWAP1 PUSH2 0x1C01 JUMP JUMPDEST PUSH1 0x1 PUSH1 0x1 PUSH1 0xA0 SHL SUB AND PUSH1 0x0 SWAP1 DUP2 MSTORE PUSH1 0x1 PUSH1 0x20 MSTORE PUSH1 0x40 SWAP1 KECCAK256 SLOAD PUSH1 0xFF AND SWAP1 JUMP JUMPDEST PUSH1 0x0 DUP1 SLOAD PUSH1 0x40 MLOAD PUSH4 0x76AA84D3 PUSH1 0xE1 SHL DUP2 MSTORE PUSH1 0x1 PUSH1 0x1 PUSH1 0xA0 SHL SUB SWAP1 SWAP2 AND SWAP1 PUSH4 0xED5509A6 SWAP1 PUSH2 0x457 SWAP1 DUP6 SWAP1 PUSH1 0x4 ADD PUSH2 0x1C01 JUMP JUMPDEST PUSH1 0x0 PUSH2 0x1660 CALLER PUSH2 0x17E1 JUMP JUMPDEST SWAP1 POP PUSH1 0x0 DUP2 DUP6 DUP6 DUP6 PUSH1 0x40 MLOAD PUSH1 0x20 ADD PUSH2 0x167B SWAP5 SWAP4 SWAP3 SWAP2 SWAP1 PUSH2 0x1BB2 JUMP JUMPDEST PUSH1 0x40 DUP1 MLOAD PUSH1 0x1F NOT DUP2 DUP5 SUB ADD DUP2 MSTORE DUP3 DUP3 MSTORE DUP1 MLOAD PUSH1 0x20 SWAP2 DUP3 ADD KECCAK256 DUP4 DUP4 ADD DUP4 MSTORE CALLER DUP5 MSTORE PUSH1 0x1 DUP5 DUP4 ADD SWAP1 DUP2 MSTORE PUSH1 0x0 DUP3 DUP2 MSTORE PUSH1 0x9 SWAP1 SWAP4 MSTORE SWAP2 DUP4 SWAP1 KECCAK256 SWAP4 MLOAD DUP5 SLOAD SWAP3 MLOAD ISZERO ISZERO PUSH1 0x1 PUSH1 0xA0 SHL MUL PUSH1 0xFF PUSH1 0xA0 SHL NOT PUSH1 0x1 PUSH1 0x1 PUSH1 0xA0 SHL SUB SWAP3 SWAP1 SWAP3 AND PUSH1 0x1 PUSH1 0x1 PUSH1 0xA0 SHL SUB NOT SWAP1 SWAP5 AND SWAP4 SWAP1 SWAP4 OR AND SWAP2 SWAP1 SWAP2 OR SWAP1 SWAP3 SSTORE MLOAD SWAP1 SWAP2 POP PUSH32 0x3ED01F2C3FC24C6B329D931E35B03E390D23497D22B3F90E15B600343E93DF11 SWAP1 PUSH2 0x626 SWAP1 DUP5 SWAP1 DUP9 SWAP1 DUP9 SWAP1 DUP9 SWAP1 PUSH2 0x21F2 JUMP JUMPDEST PUSH2 0x1728 PUSH2 0x1911 JUMP JUMPDEST PUSH2 0x1730 PUSH2 0x1911 JUMP JUMPDEST PUSH2 0x1739 DUP4 PUSH2 0x17E1 JUMP JUMPDEST PUSH1 0xFF AND DUP1 DUP3 MSTORE PUSH1 0x20 DUP3 ADD MSTORE JUMPDEST DUP1 MLOAD PUSH1 0x20 DUP3 ADD MLOAD PUSH1 0xFF SWAP1 DUP2 AND SWAP2 AND EQ ISZERO PUSH2 0x176F JUMPI PUSH2 0x1762 DUP4 PUSH2 0x17E1 JUMP JUMPDEST PUSH1 0xFF AND PUSH1 0x20 DUP3 ADD MSTORE PUSH2 0x1745 JUMP JUMPDEST PUSH1 0x20 DUP2 ADD MLOAD PUSH1 0xFF AND PUSH1 0x40 DUP3 ADD MSTORE JUMPDEST DUP1 MLOAD PUSH1 0x40 DUP3 ADD MLOAD PUSH1 0xFF SWAP1 DUP2 AND SWAP2 AND EQ DUP1 PUSH2 0x17A5 JUMPI POP PUSH1 0x20 DUP2 ADD MLOAD PUSH1 0x40 DUP3 ADD MLOAD PUSH1 0xFF SWAP1 DUP2 AND SWAP2 AND EQ JUMPDEST ISZERO PUSH2 0x4A7 JUMPI PUSH2 0x17B3 DUP4 PUSH2 0x17E1 JUMP JUMPDEST PUSH1 0xFF AND PUSH1 0x40 DUP3 ADD MSTORE PUSH2 0x177D JUMP JUMPDEST PUSH1 0xFF DUP2 AND PUSH1 0x14 EQ DUP1 PUSH2 0x17D5 JUMPI POP PUSH1 0xFF DUP2 AND PUSH1 0x1E EQ JUMPDEST DUP1 PUSH2 0x72F JUMPI POP POP POP POP POP JUMP JUMPDEST PUSH1 0x6 DUP1 SLOAD PUSH1 0x0 SWAP2 PUSH1 0xA SWAP2 DUP4 SWAP2 DUP4 SWAP2 PUSH1 0xFF AND SWAP1 DUP4 PUSH2 0x17FD DUP4 PUSH2 0x229F JUMP JUMPDEST SWAP2 SWAP1 PUSH2 0x100 EXP DUP2 SLOAD DUP2 PUSH1 0xFF MUL NOT AND SWAP1 DUP4 PUSH1 0xFF AND MUL OR SWAP1 SSTORE POP PUSH1 0xFF AND NUMBER PUSH2 0x1823 SWAP2 SWAP1 PUSH2 0x225C JUMP JUMPDEST BLOCKHASH DUP6 PUSH1 0x40 MLOAD PUSH1 0x20 ADD PUSH2 0x1836 SWAP3 SWAP2 SWAP1 PUSH2 0x1B92 JUMP JUMPDEST PUSH1 0x40 MLOAD PUSH1 0x20 DUP2 DUP4 SUB SUB DUP2 MSTORE SWAP1 PUSH1 0x40 MSTORE DUP1 MLOAD SWAP1 PUSH1 0x20 ADD KECCAK256 PUSH1 0x0 SHR PUSH2 0x1859 SWAP2 SWAP1 PUSH2 0x22BF JUMP JUMPDEST PUSH1 0x6 SLOAD SWAP1 SWAP2 POP PUSH1 0xFA PUSH1 0xFF SWAP1 SWAP2 AND GT ISZERO PUSH2 0x1877 JUMPI PUSH1 0x6 DUP1 SLOAD PUSH1 0xFF NOT AND SWAP1 SSTORE JUMPDEST SWAP4 SWAP3 POP POP POP JUMP JUMPDEST PUSH1 0x1 DUP4 ADD SWAP2 DUP4 SWAP1 DUP3 ISZERO PUSH2 0x1901 JUMPI SWAP2 PUSH1 0x20 MUL DUP3 ADD PUSH1 0x0 JUMPDEST DUP4 DUP3 GT ISZERO PUSH2 0x18D2 JUMPI DUP4 MLOAD DUP4 DUP3 PUSH2 0x100 EXP DUP2 SLOAD DUP2 PUSH1 0xFF MUL NOT AND SWAP1 DUP4 PUSH1 0xFF AND MUL OR SWAP1 SSTORE POP SWAP3 PUSH1 0x20 ADD SWAP3 PUSH1 0x1 ADD PUSH1 0x20 DUP2 PUSH1 0x0 ADD DIV SWAP3 DUP4 ADD SWAP3 PUSH1 0x1 SUB MUL PUSH2 0x1894 JUMP JUMPDEST DUP1 ISZERO PUSH2 0x18FF JUMPI DUP3 DUP2 PUSH2 0x100 EXP DUP2 SLOAD SWAP1 PUSH1 0xFF MUL NOT AND SWAP1 SSTORE PUSH1 0x1 ADD PUSH1 0x20 DUP2 PUSH1 0x0 ADD DIV SWAP3 DUP4 ADD SWAP3 PUSH1 0x1 SUB MUL PUSH2 0x18D2 JUMP JUMPDEST POP JUMPDEST POP PUSH2 0x190D SWAP3 SWAP2 POP PUSH2 0x192F JUMP JUMPDEST POP SWAP1 JUMP JUMPDEST PUSH1 0x40 MLOAD DUP1 PUSH1 0x60 ADD PUSH1 0x40 MSTORE DUP1 PUSH1 0x3 SWAP1 PUSH1 0x20 DUP3 MUL DUP1 CALLDATASIZE DUP4 CALLDATACOPY POP SWAP2 SWAP3 SWAP2 POP POP JUMP JUMPDEST JUMPDEST DUP1 DUP3 GT ISZERO PUSH2 0x190D JUMPI PUSH1 0x0 DUP2 SSTORE PUSH1 0x1 ADD PUSH2 0x1930 JUMP JUMPDEST DUP1 CALLDATALOAD PUSH1 0x1 PUSH1 0x1 PUSH1 0xA0 SHL SUB DUP2 AND DUP2 EQ PUSH2 0x4AA JUMPI PUSH1 0x0 DUP1 REVERT JUMPDEST PUSH1 0x0 DUP3 PUSH1 0x1F DUP4 ADD SLT PUSH2 0x196B JUMPI DUP1 DUP2 REVERT JUMPDEST DUP2 CALLDATALOAD PUSH8 0xFFFFFFFFFFFFFFFF DUP1 DUP3 GT ISZERO PUSH2 0x1986 JUMPI PUSH2 0x1986 PUSH2 0x22FF JUMP JUMPDEST PUSH1 0x40 MLOAD PUSH1 0x1F DUP4 ADD PUSH1 0x1F NOT AND DUP2 ADD PUSH1 0x20 ADD DUP3 DUP2 GT DUP3 DUP3 LT OR ISZERO PUSH2 0x19AA JUMPI PUSH2 0x19AA PUSH2 0x22FF JUMP JUMPDEST PUSH1 0x40 MSTORE DUP3 DUP2 MSTORE DUP5 DUP4 ADD PUSH1 0x20 ADD DUP7 LT ISZERO PUSH2 0x19C1 JUMPI DUP4 DUP5 REVERT JUMPDEST DUP3 PUSH1 0x20 DUP7 ADD PUSH1 0x20 DUP4 ADD CALLDATACOPY SWAP2 DUP3 ADD PUSH1 0x20 ADD SWAP3 SWAP1 SWAP3 MSTORE SWAP4 SWAP3 POP POP POP JUMP JUMPDEST DUP1 CALLDATALOAD PUSH1 0xFF DUP2 AND DUP2 EQ PUSH2 0x4AA JUMPI PUSH1 0x0 DUP1 REVERT JUMPDEST PUSH1 0x0 PUSH1 0x20 DUP3 DUP5 SUB SLT ISZERO PUSH2 0x19FE JUMPI DUP1 DUP2 REVERT JUMPDEST PUSH2 0x1877 DUP3 PUSH2 0x1944 JUMP JUMPDEST PUSH1 0x0 DUP1 PUSH1 0x0 PUSH1 0x60 DUP5 DUP7 SUB SLT ISZERO PUSH2 0x1A1B JUMPI DUP2 DUP3 REVERT JUMPDEST PUSH2 0x1A24 DUP5 PUSH2 0x1944 JUMP JUMPDEST SWAP3 POP PUSH1 0x20 DUP5 ADD CALLDATALOAD PUSH8 0xFFFFFFFFFFFFFFFF DUP2 GT ISZERO PUSH2 0x1A3F JUMPI DUP3 DUP4 REVERT JUMPDEST PUSH2 0x1A4B DUP7 DUP3 DUP8 ADD PUSH2 0x195B JUMP JUMPDEST SWAP3 POP POP PUSH1 0x40 DUP5 ADD CALLDATALOAD SWAP1 POP SWAP3 POP SWAP3 POP SWAP3 JUMP JUMPDEST PUSH1 0x0 PUSH1 0x20 DUP3 DUP5 SUB SLT ISZERO PUSH2 0x1A6D JUMPI DUP1 DUP2 REVERT JUMPDEST DUP2 CALLDATALOAD PUSH2 0x1877 DUP2 PUSH2 0x2315 JUMP JUMPDEST PUSH1 0x0 PUSH1 0x20 DUP3 DUP5 SUB SLT ISZERO PUSH2 0x1A89 JUMPI DUP1 DUP2 REVERT JUMPDEST DUP2 MLOAD PUSH2 0x1877 DUP2 PUSH2 0x2315 JUMP JUMPDEST PUSH1 0x0 DUP1 PUSH1 0x40 DUP4 DUP6 SUB SLT ISZERO PUSH2 0x1AA6 JUMPI DUP2 DUP3 REVERT JUMPDEST DUP3 CALLDATALOAD PUSH8 0xFFFFFFFFFFFFFFFF DUP2 GT ISZERO PUSH2 0x1ABC JUMPI DUP3 DUP4 REVERT JUMPDEST PUSH2 0x1AC8 DUP6 DUP3 DUP7 ADD PUSH2 0x195B JUMP JUMPDEST SWAP6 PUSH1 0x20 SWAP5 SWAP1 SWAP5 ADD CALLDATALOAD SWAP5 POP POP POP POP JUMP JUMPDEST PUSH1 0x0 PUSH1 0x20 DUP3 DUP5 SUB SLT ISZERO PUSH2 0x1AE8 JUMPI DUP1 DUP2 REVERT JUMPDEST POP MLOAD SWAP2 SWAP1 POP JUMP JUMPDEST PUSH1 0x0 DUP1 PUSH1 0x0 DUP1 PUSH1 0x0 PUSH1 0xA0 DUP7 DUP9 SUB SLT ISZERO PUSH2 0x1B06 JUMPI DUP1 DUP2 REVERT JUMPDEST PUSH2 0x1B0F DUP7 PUSH2 0x19DC JUMP JUMPDEST SWAP5 POP PUSH2 0x1B1D PUSH1 0x20 DUP8 ADD PUSH2 0x1944 JUMP JUMPDEST SWAP4 POP PUSH1 0x40 DUP7 ADD CALLDATALOAD PUSH8 0xFFFFFFFFFFFFFFFF DUP2 GT ISZERO PUSH2 0x1B38 JUMPI DUP2 DUP3 REVERT JUMPDEST PUSH2 0x1B44 DUP9 DUP3 DUP10 ADD PUSH2 0x195B JUMP JUMPDEST SWAP4 POP POP PUSH1 0x60 DUP7 ADD CALLDATALOAD SWAP2 POP PUSH2 0x1B5A PUSH1 0x80 DUP8 ADD PUSH2 0x19DC JUMP JUMPDEST SWAP1 POP SWAP3 SWAP6 POP SWAP3 SWAP6 SWAP1 SWAP4 POP JUMP JUMPDEST PUSH1 0x0 DUP2 MLOAD DUP1 DUP5 MSTORE PUSH2 0x1B7E DUP2 PUSH1 0x20 DUP7 ADD PUSH1 0x20 DUP7 ADD PUSH2 0x2273 JUMP JUMPDEST PUSH1 0x1F ADD PUSH1 0x1F NOT AND SWAP3 SWAP1 SWAP3 ADD PUSH1 0x20 ADD SWAP3 SWAP2 POP POP JUMP JUMPDEST SWAP2 DUP3 MSTORE PUSH1 0x60 SHL PUSH12 0xFFFFFFFFFFFFFFFFFFFFFFFF NOT AND PUSH1 0x20 DUP3 ADD MSTORE PUSH1 0x34 ADD SWAP1 JUMP JUMPDEST PUSH1 0x0 PUSH1 0xFF PUSH1 0xF8 SHL DUP7 PUSH1 0xF8 SHL AND DUP3 MSTORE PUSH12 0xFFFFFFFFFFFFFFFFFFFFFFFF NOT DUP6 PUSH1 0x60 SHL AND PUSH1 0x1 DUP4 ADD MSTORE DUP4 MLOAD PUSH2 0x1BEB DUP2 PUSH1 0x15 DUP6 ADD PUSH1 0x20 DUP9 ADD PUSH2 0x2273 JUMP JUMPDEST PUSH1 0x15 SWAP3 ADD SWAP2 DUP3 ADD SWAP3 SWAP1 SWAP3 MSTORE PUSH1 0x35 ADD SWAP5 SWAP4 POP POP POP POP JUMP JUMPDEST PUSH1 0x1 PUSH1 0x1 PUSH1 0xA0 SHL SUB SWAP2 SWAP1 SWAP2 AND DUP2 MSTORE PUSH1 0x20 ADD SWAP1 JUMP JUMPDEST PUSH1 0x1 PUSH1 0x1 PUSH1 0xA0 SHL SUB SWAP3 DUP4 AND DUP2 MSTORE SWAP2 AND PUSH1 0x20 DUP3 ADD MSTORE PUSH1 0x40 ADD SWAP1 JUMP JUMPDEST PUSH1 0x1 PUSH1 0x1 PUSH1 0xA0 SHL SUB SWAP4 DUP5 AND DUP2 MSTORE SWAP2 SWAP1 SWAP3 AND PUSH1 0x20 DUP3 ADD MSTORE PUSH1 0x40 DUP2 ADD SWAP2 SWAP1 SWAP2 MSTORE PUSH1 0x60 ADD SWAP1 JUMP JUMPDEST PUSH1 0x1 PUSH1 0x1 PUSH1 0xA0 SHL SUB DUP5 AND DUP2 MSTORE PUSH1 0x60 PUSH1 0x20 DUP3 ADD DUP2 SWAP1 MSTORE PUSH1 0x0 SWAP1 PUSH2 0x1C77 SWAP1 DUP4 ADD DUP6 PUSH2 0x1B66 JUMP JUMPDEST SWAP1 POP DUP3 PUSH1 0x40 DUP4 ADD MSTORE SWAP5 SWAP4 POP POP POP POP JUMP JUMPDEST PUSH1 0x1 PUSH1 0x1 PUSH1 0xA0 SHL SUB DUP6 AND DUP2 MSTORE PUSH1 0x80 PUSH1 0x20 DUP3 ADD DUP2 SWAP1 MSTORE PUSH1 0x0 SWAP1 PUSH2 0x1CAB SWAP1 DUP4 ADD DUP7 PUSH2 0x1B66 JUMP JUMPDEST SWAP1 POP DUP4 PUSH1 0x40 DUP4 ADD MSTORE PUSH1 0xFF DUP4 AND PUSH1 0x60 DUP4 ADD MSTORE SWAP6 SWAP5 POP POP POP POP POP JUMP JUMPDEST PUSH1 0x60 DUP2 ADD DUP2 DUP4 PUSH1 0x0 JUMPDEST PUSH1 0x3 DUP2 LT ISZERO PUSH2 0x1CF0 JUMPI DUP2 MLOAD PUSH1 0xFF AND DUP4 MSTORE PUSH1 0x20 SWAP3 DUP4 ADD SWAP3 SWAP1 SWAP2 ADD SWAP1 PUSH1 0x1 ADD PUSH2 0x1CCE JUMP JUMPDEST POP POP POP SWAP3 SWAP2 POP POP JUMP JUMPDEST SWAP1 ISZERO ISZERO DUP2 MSTORE PUSH1 0x20 ADD SWAP1 JUMP JUMPDEST PUSH1 0x20 DUP1 DUP3 MSTORE PUSH1 0x2F SWAP1 DUP3 ADD MSTORE PUSH32 0x466C69676874206F722074696D657374616D7020646F206E6F74206D61746368 PUSH1 0x40 DUP3 ADD MSTORE PUSH15 0x81BDC9858DB19481C995C5D595CDD PUSH1 0x8A SHL PUSH1 0x60 DUP3 ADD MSTORE PUSH1 0x80 ADD SWAP1 JUMP JUMPDEST PUSH1 0x20 DUP1 DUP3 MSTORE PUSH1 0x1E SWAP1 DUP3 ADD MSTORE PUSH32 0x496E737572616E636520636F6E6E65637420626520636F6C6C65637465640000 PUSH1 0x40 DUP3 ADD MSTORE PUSH1 0x60 ADD SWAP1 JUMP JUMPDEST PUSH1 0x20 DUP1 DUP3 MSTORE PUSH1 0x39 SWAP1 DUP3 ADD MSTORE PUSH32 0x416E20616464726573732063616E206E6F7420626520646F75626C6564207570 PUSH1 0x40 DUP3 ADD MSTORE PUSH32 0x206173206169726C696E6520616E642070617373656E67657200000000000000 PUSH1 0x60 DUP3 ADD MSTORE PUSH1 0x80 ADD SWAP1 JUMP JUMPDEST PUSH1 0x20 DUP1 DUP3 MSTORE PUSH1 0x1A SWAP1 DUP3 ADD MSTORE PUSH32 0x41646472657373206973206E6F7420612070617373656E676572000000000000 PUSH1 0x40 DUP3 ADD MSTORE PUSH1 0x60 ADD SWAP1 JUMP JUMPDEST PUSH1 0x20 DUP1 DUP3 MSTORE PUSH1 0x2E SWAP1 DUP3 ADD MSTORE PUSH32 0x496E737572616E636520436F6E747269627574696F6E73206D6179206E6F7420 PUSH1 0x40 DUP3 ADD MSTORE PUSH14 0x32BC31B2B2B210189032BA3432B9 PUSH1 0x91 SHL PUSH1 0x60 DUP3 ADD MSTORE PUSH1 0x80 ADD SWAP1 JUMP JUMPDEST PUSH1 0x20 DUP1 DUP3 MSTORE PUSH1 0x1A SWAP1 DUP3 ADD MSTORE PUSH32 0x4169726C696E6520697320616C72656164792066756E64656421000000000000 PUSH1 0x40 DUP3 ADD MSTORE PUSH1 0x60 ADD SWAP1 JUMP JUMPDEST PUSH1 0x20 DUP1 DUP3 MSTORE PUSH1 0x13 SWAP1 DUP3 ADD MSTORE PUSH19 0x139BC8195D1A195C881D1BC818DBDB1B1958DD PUSH1 0x6A SHL PUSH1 0x40 DUP3 ADD MSTORE PUSH1 0x60 ADD SWAP1 JUMP JUMPDEST PUSH1 0x20 DUP1 DUP3 MSTORE PUSH1 0x1B SWAP1 DUP3 ADD MSTORE PUSH32 0x4E6F74207265676973746572656420617320616E206F7261636C650000000000 PUSH1 0x40 DUP3 ADD MSTORE PUSH1 0x60 ADD SWAP1 JUMP JUMPDEST PUSH1 0x20 DUP1 DUP3 MSTORE PUSH1 0x1F SWAP1 DUP3 ADD MSTORE PUSH32 0x6164647265737320697320616C726561647920612070617373656E6765722100 PUSH1 0x40 DUP3 ADD MSTORE PUSH1 0x60 ADD SWAP1 JUMP JUMPDEST PUSH1 0x20 DUP1 DUP3 MSTORE PUSH1 0x64 SWAP1 DUP3 ADD MSTORE PUSH32 0x4D75737420626520616E206169726C696E6520746F207375626D697420616E6F PUSH1 0x40 DUP3 ADD MSTORE PUSH32 0x74686572206169726C696E65207768656E20746F74616C206169726C696E6573 PUSH1 0x60 DUP3 ADD MSTORE PUSH32 0x206172652062656C6F7720746865206D696E696D756D20666F7220636F6E7365 PUSH1 0x80 DUP3 ADD MSTORE PUSH4 0x6E737573 PUSH1 0xE0 SHL PUSH1 0xA0 DUP3 ADD MSTORE PUSH1 0xC0 ADD SWAP1 JUMP JUMPDEST PUSH1 0x20 DUP1 DUP3 MSTORE PUSH1 0x19 SWAP1 DUP3 ADD MSTORE PUSH32 0x4164647265737320616C72656164792061206169726C696E6500000000000000 PUSH1 0x40 DUP3 ADD MSTORE PUSH1 0x60 ADD SWAP1 JUMP JUMPDEST PUSH1 0x20 DUP1 DUP3 MSTORE PUSH1 0x25 SWAP1 DUP3 ADD MSTORE PUSH32 0x436F6E74726163742069732063757272656E746C79206E6F74206F7065726174 PUSH1 0x40 DUP3 ADD MSTORE PUSH5 0x1A5BDB985B PUSH1 0xDA SHL PUSH1 0x60 DUP3 ADD MSTORE PUSH1 0x80 ADD SWAP1 JUMP JUMPDEST PUSH1 0x20 DUP1 DUP3 MSTORE PUSH1 0x1C SWAP1 DUP3 ADD MSTORE PUSH32 0x43616C6C6572206973206E6F7420636F6E7472616374206F776E657200000000 PUSH1 0x40 DUP3 ADD MSTORE PUSH1 0x60 ADD SWAP1 JUMP JUMPDEST PUSH1 0x20 DUP1 DUP3 MSTORE PUSH1 0x1C SWAP1 DUP3 ADD MSTORE PUSH32 0x526567697374726174696F6E2066656520697320726571756972656400000000 PUSH1 0x40 DUP3 ADD MSTORE PUSH1 0x60 ADD SWAP1 JUMP JUMPDEST PUSH1 0x20 DUP1 DUP3 MSTORE PUSH1 0x23 SWAP1 DUP3 ADD MSTORE PUSH32 0x496E64657820646F6573206E6F74206D61746368206F7261636C652072657175 PUSH1 0x40 DUP3 ADD MSTORE PUSH3 0x195CDD PUSH1 0xEA SHL PUSH1 0x60 DUP3 ADD MSTORE PUSH1 0x80 ADD SWAP1 JUMP JUMPDEST PUSH1 0x20 DUP1 DUP3 MSTORE PUSH1 0x1B SWAP1 DUP3 ADD MSTORE PUSH32 0x4164647265737320616C726561647920612050617373656E6765720000000000 PUSH1 0x40 DUP3 ADD MSTORE PUSH1 0x60 ADD SWAP1 JUMP JUMPDEST PUSH1 0x20 DUP1 DUP3 MSTORE PUSH1 0x2B SWAP1 DUP3 ADD MSTORE PUSH32 0x537570706C69656420657468657220646F65736E2774206D6565742074686520 PUSH1 0x40 DUP3 ADD MSTORE PUSH11 0x66756E64696E6720666565 PUSH1 0xA8 SHL PUSH1 0x60 DUP3 ADD MSTORE PUSH1 0x80 ADD SWAP1 JUMP JUMPDEST PUSH1 0x20 DUP1 DUP3 MSTORE PUSH1 0x1E SWAP1 DUP3 ADD MSTORE PUSH32 0x6164647265737320697320616C726561647920616E206169726C696E65210000 PUSH1 0x40 DUP3 ADD MSTORE PUSH1 0x60 ADD SWAP1 JUMP JUMPDEST PUSH1 0x20 DUP1 DUP3 MSTORE DUP2 DUP2 ADD MSTORE PUSH32 0x41646472657373206E6F7420612072656769737465726564206169726C696E65 PUSH1 0x40 DUP3 ADD MSTORE PUSH1 0x60 ADD SWAP1 JUMP JUMPDEST SWAP1 DUP2 MSTORE PUSH1 0x20 ADD SWAP1 JUMP JUMPDEST PUSH1 0xFF DUP6 AND DUP2 MSTORE PUSH1 0x1 PUSH1 0x1 PUSH1 0xA0 SHL SUB DUP5 AND PUSH1 0x20 DUP3 ADD MSTORE PUSH1 0x80 PUSH1 0x40 DUP3 ADD DUP2 SWAP1 MSTORE PUSH1 0x0 SWAP1 PUSH2 0x221F SWAP1 DUP4 ADD DUP6 PUSH2 0x1B66 JUMP JUMPDEST SWAP1 POP DUP3 PUSH1 0x60 DUP4 ADD MSTORE SWAP6 SWAP5 POP POP POP POP POP JUMP JUMPDEST PUSH1 0x0 DUP3 NOT DUP3 GT ISZERO PUSH2 0x2243 JUMPI PUSH2 0x2243 PUSH2 0x22D3 JUMP JUMPDEST POP ADD SWAP1 JUMP JUMPDEST PUSH1 0x0 DUP3 PUSH2 0x2257 JUMPI PUSH2 0x2257 PUSH2 0x22E9 JUMP JUMPDEST POP DIV SWAP1 JUMP JUMPDEST PUSH1 0x0 DUP3 DUP3 LT ISZERO PUSH2 0x226E JUMPI PUSH2 0x226E PUSH2 0x22D3 JUMP JUMPDEST POP SUB SWAP1 JUMP JUMPDEST PUSH1 0x0 JUMPDEST DUP4 DUP2 LT ISZERO PUSH2 0x228E JUMPI DUP2 DUP2 ADD MLOAD DUP4 DUP3 ADD MSTORE PUSH1 0x20 ADD PUSH2 0x2276 JUMP JUMPDEST DUP4 DUP2 GT ISZERO PUSH2 0x529 JUMPI POP POP PUSH1 0x0 SWAP2 ADD MSTORE JUMP JUMPDEST PUSH1 0x0 PUSH1 0xFF DUP3 AND PUSH1 0xFF DUP2 EQ ISZERO PUSH2 0x22B6 JUMPI PUSH2 0x22B6 PUSH2 0x22D3 JUMP JUMPDEST PUSH1 0x1 ADD SWAP3 SWAP2 POP POP JUMP JUMPDEST PUSH1 0x0 DUP3 PUSH2 0x22CE JUMPI PUSH2 0x22CE PUSH2 0x22E9 JUMP JUMPDEST POP MOD SWAP1 JUMP JUMPDEST PUSH4 0x4E487B71 PUSH1 0xE0 SHL PUSH1 0x0 MSTORE PUSH1 0x11 PUSH1 0x4 MSTORE PUSH1 0x24 PUSH1 0x0 REVERT JUMPDEST PUSH4 0x4E487B71 PUSH1 0xE0 SHL PUSH1 0x0 MSTORE PUSH1 0x12 PUSH1 0x4 MSTORE PUSH1 0x24 PUSH1 0x0 REVERT JUMPDEST PUSH4 0x4E487B71 PUSH1 0xE0 SHL PUSH1 0x0 MSTORE PUSH1 0x41 PUSH1 0x4 MSTORE PUSH1 0x24 PUSH1 0x0 REVERT JUMPDEST DUP1 ISZERO ISZERO DUP2 EQ PUSH2 0x2323 JUMPI PUSH1 0x0 DUP1 REVERT JUMPDEST POP JUMP INVALID LOG2 PUSH5 0x6970667358 0x22 SLT KECCAK256 0xAC 0xDB EXP DUP9 0x4F CREATE DUP3 ADDRESS 0x2E MOD MSTORE8 0xBE PUSH31 0x26AFF2021E1A8DEA83BB72E46C264F8D4F825164736F6C6343000800003300 "
		},
		"gasEstimates": {
			"creation": {
				"codeDepositCost": "1810400",
				"executionCost": "infinite",
				"totalCost": "infinite"
			},
			"external": {
				"REGISTRATION_FEE()": "295",
				"fetchFlightStatus(address,string,uint256)": "infinite",
				"fund()": "infinite",
				"getMyIndexes()": "infinite",
				"isAddressAirline(address)": "infinite",
				"isAddressFundedAirline(address)": "infinite",
				"isAddressPassenger(address)": "infinite",
				"isAddressQueuedAirline(address)": "1348",
				"isOperational()": "infinite",
				"passengerBuysInsurance(address)": "infinite",
				"passengerCollectsInsurancePayout(address)": "infinite",
				"payAirlineFee()": "infinite",
				"registerAirline(address)": "infinite",
				"registerAirlineContractOwner(address)": "infinite",
				"registerFlight(string,uint256)": "infinite",
				"registerOracle()": "infinite",
				"registerPassenger(address)": "infinite",
				"registerPassengerContractOwner(address)": "infinite",
				"setOperatingStatus(bool)": "infinite",
				"submitOracleResponse(uint8,address,string,uint256,uint8)": "infinite"
			},
			"internal": {
				"generateIndexes(address)": "infinite",
				"getFlightKey(address,string memory,uint256)": "infinite",
				"getRandomIndex(address)": "infinite",
				"processFlightStatus(address,string memory,uint256,uint8)": "85"
			}
		},
		"methodIdentifiers": {
			"REGISTRATION_FEE()": "64b4f751",
			"fetchFlightStatus(address,string,uint256)": "f83f11c0",
			"fund()": "b60d4288",
			"getMyIndexes()": "5f1cc0e6",
			"isAddressAirline(address)": "ae1309ec",
			"isAddressFundedAirline(address)": "ed5509a6",
			"isAddressPassenger(address)": "1c3c1400",
			"isAddressQueuedAirline(address)": "e79e9649",
			"isOperational()": "cd905dff",
			"passengerBuysInsurance(address)": "6b6a82e1",
			"passengerCollectsInsurancePayout(address)": "b8aa3ff5",
			"payAirlineFee()": "d5e96264",
			"registerAirline(address)": "bdfd9877",
			"registerAirlineContractOwner(address)": "58121ea9",
			"registerFlight(string,uint256)": "39cfc995",
			"registerOracle()": "339d2590",
			"registerPassenger(address)": "94c15694",
			"registerPassengerContractOwner(address)": "509256d9",
			"setOperatingStatus(bool)": "110466ed",
			"submitOracleResponse(uint8,address,string,uint256,uint8)": "c10f2700"
		}
	},
	"abi": [
		{
			"inputs": [
				{
					"internalType": "address payable",
					"name": "flightSuretyDataContract",
					"type": "address"
				}
			],
			"stateMutability": "nonpayable",
			"type": "constructor"
		},
		{
			"anonymous": false,
			"inputs": [
				{
					"indexed": false,
					"internalType": "address",
					"name": "airline",
					"type": "address"
				},
				{
					"indexed": false,
					"internalType": "string",
					"name": "flight",
					"type": "string"
				},
				{
					"indexed": false,
					"internalType": "uint256",
					"name": "timestamp",
					"type": "uint256"
				},
				{
					"indexed": false,
					"internalType": "uint8",
					"name": "status",
					"type": "uint8"
				}
			],
			"name": "FlightStatusInfo",
			"type": "event"
		},
		{
			"anonymous": false,
			"inputs": [
				{
					"indexed": false,
					"internalType": "address",
					"name": "airline",
					"type": "address"
				},
				{
					"indexed": false,
					"internalType": "string",
					"name": "flight",
					"type": "string"
				},
				{
					"indexed": false,
					"internalType": "uint256",
					"name": "timestamp",
					"type": "uint256"
				},
				{
					"indexed": false,
					"internalType": "uint8",
					"name": "status",
					"type": "uint8"
				}
			],
			"name": "OracleReport",
			"type": "event"
		},
		{
			"anonymous": false,
			"inputs": [
				{
					"indexed": false,
					"internalType": "uint8",
					"name": "index",
					"type": "uint8"
				},
				{
					"indexed": false,
					"internalType": "address",
					"name": "airline",
					"type": "address"
				},
				{
					"indexed": false,
					"internalType": "string",
					"name": "flight",
					"type": "string"
				},
				{
					"indexed": false,
					"internalType": "uint256",
					"name": "timestamp",
					"type": "uint256"
				}
			],
			"name": "OracleRequest",
			"type": "event"
		},
		{
			"anonymous": false,
			"inputs": [
				{
					"indexed": false,
					"internalType": "address",
					"name": "airline",
					"type": "address"
				}
			],
			"name": "airlineFeesPaid",
			"type": "event"
		},
		{
			"anonymous": false,
			"inputs": [
				{
					"indexed": false,
					"internalType": "address",
					"name": "airline",
					"type": "address"
				}
			],
			"name": "airlineRegistered",
			"type": "event"
		},
		{
			"anonymous": false,
			"inputs": [
				{
					"indexed": false,
					"internalType": "address",
					"name": "airline",
					"type": "address"
				},
				{
					"indexed": false,
					"internalType": "string",
					"name": "flightName",
					"type": "string"
				},
				{
					"indexed": false,
					"internalType": "uint256",
					"name": "timestamp",
					"type": "uint256"
				}
			],
			"name": "flightRegistered",
			"type": "event"
		},
		{
			"anonymous": false,
			"inputs": [
				{
					"indexed": false,
					"internalType": "address",
					"name": "passengerAddress",
					"type": "address"
				},
				{
					"indexed": false,
					"internalType": "address",
					"name": "flightAddress",
					"type": "address"
				},
				{
					"indexed": false,
					"internalType": "uint256",
					"name": "insuranceAmount",
					"type": "uint256"
				}
			],
			"name": "passengerBoughtInsurance",
			"type": "event"
		},
		{
			"anonymous": false,
			"inputs": [
				{
					"indexed": false,
					"internalType": "address",
					"name": "passenger",
					"type": "address"
				}
			],
			"name": "passengerRegistered",
			"type": "event"
		},
		{
			"inputs": [],
			"name": "REGISTRATION_FEE",
			"outputs": [
				{
					"internalType": "uint256",
					"name": "",
					"type": "uint256"
				}
			],
			"stateMutability": "view",
			"type": "function"
		},
		{
			"inputs": [
				{
					"internalType": "address",
					"name": "airline",
					"type": "address"
				},
				{
					"internalType": "string",
					"name": "flight",
					"type": "string"
				},
				{
					"internalType": "uint256",
					"name": "timestamp",
					"type": "uint256"
				}
			],
			"name": "fetchFlightStatus",
			"outputs": [],
			"stateMutability": "nonpayable",
			"type": "function"
		},
		{
			"inputs": [],
			"name": "fund",
			"outputs": [],
			"stateMutability": "payable",
			"type": "function"
		},
		{
			"inputs": [],
			"name": "getMyIndexes",
			"outputs": [
				{
					"internalType": "uint8[3]",
					"name": "",
					"type": "uint8[3]"
				}
			],
			"stateMutability": "view",
			"type": "function"
		},
		{
			"inputs": [
				{
					"internalType": "address",
					"name": "inputAddress",
					"type": "address"
				}
			],
			"name": "isAddressAirline",
			"outputs": [
				{
					"internalType": "bool",
					"name": "",
					"type": "bool"
				}
			],
			"stateMutability": "view",
			"type": "function"
		},
		{
			"inputs": [
				{
					"internalType": "address",
					"name": "inputAddress",
					"type": "address"
				}
			],
			"name": "isAddressFundedAirline",
			"outputs": [
				{
					"internalType": "bool",
					"name": "",
					"type": "bool"
				}
			],
			"stateMutability": "view",
			"type": "function"
		},
		{
			"inputs": [
				{
					"internalType": "address",
					"name": "inputAddress",
					"type": "address"
				}
			],
			"name": "isAddressPassenger",
			"outputs": [
				{
					"internalType": "bool",
					"name": "",
					"type": "bool"
				}
			],
			"stateMutability": "view",
			"type": "function"
		},
		{
			"inputs": [
				{
					"internalType": "address",
					"name": "inputAddress",
					"type": "address"
				}
			],
			"name": "isAddressQueuedAirline",
			"outputs": [
				{
					"internalType": "bool",
					"name": "",
					"type": "bool"
				}
			],
			"stateMutability": "view",
			"type": "function"
		},
		{
			"inputs": [],
			"name": "isOperational",
			"outputs": [
				{
					"internalType": "bool",
					"name": "",
					"type": "bool"
				}
			],
			"stateMutability": "view",
			"type": "function"
		},
		{
			"inputs": [
				{
					"internalType": "address",
					"name": "inputFlightAddress",
					"type": "address"
				}
			],
			"name": "passengerBuysInsurance",
			"outputs": [],
			"stateMutability": "payable",
			"type": "function"
		},
		{
			"inputs": [
				{
					"internalType": "address",
					"name": "inputFlightAddress",
					"type": "address"
				}
			],
			"name": "passengerCollectsInsurancePayout",
			"outputs": [],
			"stateMutability": "nonpayable",
			"type": "function"
		},
		{
			"inputs": [],
			"name": "payAirlineFee",
			"outputs": [],
			"stateMutability": "payable",
			"type": "function"
		},
		{
			"inputs": [
				{
					"internalType": "address",
					"name": "inputAirlineAddress",
					"type": "address"
				}
			],
			"name": "registerAirline",
			"outputs": [],
			"stateMutability": "nonpayable",
			"type": "function"
		},
		{
			"inputs": [
				{
					"internalType": "address",
					"name": "inputAirlineAddress",
					"type": "address"
				}
			],
			"name": "registerAirlineContractOwner",
			"outputs": [],
			"stateMutability": "nonpayable",
			"type": "function"
		},
		{
			"inputs": [
				{
					"internalType": "string",
					"name": "flightName",
					"type": "string"
				},
				{
					"internalType": "uint256",
					"name": "timestamp",
					"type": "uint256"
				}
			],
			"name": "registerFlight",
			"outputs": [],
			"stateMutability": "nonpayable",
			"type": "function"
		},
		{
			"inputs": [],
			"name": "registerOracle",
			"outputs": [],
			"stateMutability": "payable",
			"type": "function"
		},
		{
			"inputs": [
				{
					"internalType": "address",
					"name": "inputPassengerAddress",
					"type": "address"
				}
			],
			"name": "registerPassenger",
			"outputs": [],
			"stateMutability": "nonpayable",
			"type": "function"
		},
		{
			"inputs": [
				{
					"internalType": "address",
					"name": "inputPassengerAddress",
					"type": "address"
				}
			],
			"name": "registerPassengerContractOwner",
			"outputs": [],
			"stateMutability": "nonpayable",
			"type": "function"
		},
		{
			"inputs": [
				{
					"internalType": "bool",
					"name": "newStatus",
					"type": "bool"
				}
			],
			"name": "setOperatingStatus",
			"outputs": [],
			"stateMutability": "nonpayable",
			"type": "function"
		},
		{
			"inputs": [
				{
					"internalType": "uint8",
					"name": "index",
					"type": "uint8"
				},
				{
					"internalType": "address",
					"name": "airline",
					"type": "address"
				},
				{
					"internalType": "string",
					"name": "flight",
					"type": "string"
				},
				{
					"internalType": "uint256",
					"name": "timestamp",
					"type": "uint256"
				},
				{
					"internalType": "uint8",
					"name": "statusCode",
					"type": "uint8"
				}
			],
			"name": "submitOracleResponse",
			"outputs": [],
			"stateMutability": "nonpayable",
			"type": "function"
		}
	]
}